:020000040000FA
:100000001248040001000000F8230000F82300005B
:10001000F8230000F8230000F8230000F823000074
:10002000F8230000F8230000F8230000F823000064
:10003000F823000024090000F8230000F823000042
:10004000F82300004A09000070090000F8230000AE
:10005000F8230000F8230000F8230000D477000004
:10006000F8230000F8230000F82300000C10000023
:10007000F82300005A070000B4080000F82300002D
:10008000F823000092070000F8230000F823000086
:10009000F8230000A4090000CA090000F4080000C9
:1000A000F8230000F8230000F8230000F8230000E4
:1000B000F8230000F8230000F8230000F8230000D4
:1000C000F8230000F8230000F8230000F8230000C4
:1000D000F8230000F8230000F8230000F8230000B4
:1000E000F8230000F8230000F8230000F8230000A4
:1000F000A6100000F8230000F823000034070000D9
:10010000F8230000F8230000F8230000F823000083
:10011000F8230000F8230000F8230000F823000073
:10012000F8230000F8230000F8230000F823000063
:10013000F8230000F8230000F8230000F823000053
:10014000F8230000F8230000F8230000F823000043
:10015000F8230000F8230000F8230000F823000033
:10016000F8230000F8230000F8230000F823000023
:10017000F8230000F8230000F823000040110000DD
:10018000FE090000F8230000F8230000F823000017
:10019000F8230000F8230000F8230000E607000021
:1001A000F8230000F8230000F8230000F8230000E3
:1001B000F8230000F8230000F8230000F8230000D3
:1001C000F8230000F8230000F8230000F8230000C3
:1001D000F8230000F8230000F8230000F8230000B3
:1001E000F8230000F8230000F8230000F8230000A3
:1001F000F8230000F8230000F8230000F823000093
:100200000000000000000000F8230000F8230000B8
:10021000F8230000F8230000F8230000F823000072
:10022000F8230000F8230000F8230000F823000062
:10023000F823000024090000F8230000F823000040
:10024000F82300004A09000070090000F8230000AC
:10025000F8230000F8230000F8230000D477000002
:10026000F8230000F8230000F82300000C10000021
:10027000F82300005A070000B4080000F82300002B
:10028000F823000092070000F8230000F823000084
:10029000F8230000A4090000CA090000F4080000C7
:1002A000F8230000F8230000F8230000F8230000E2
:1002B000F8230000F8230000F8230000F8230000D2
:1002C000F8230000F8230000F8230000F8230000C2
:1002D000F8230000F8230000F8230000F8230000B2
:1002E000F8230000F8230000F8230000F8230000A2
:1002F000A6100000F8230000F823000034070000D7
:10030000F8230000F8230000F8230000F823000081
:10031000F8230000F8230000F8230000F823000071
:10032000F8230000F8230000F8230000F823000061
:10033000F8230000F8230000F8230000F823000051
:10034000F8230000F8230000F8230000F823000041
:10035000F8230000F8230000F8230000F823000031
:10036000F8230000F8230000F8230000F823000021
:10037000F8230000F8230000F823000040110000DB
:10038000A8480100F8230000F8230000F82300002B
:10039000F8230000F8230000F8230000E60700001F
:1003A000F8230000F8230000F8230000F8230000E1
:1003B000F8230000F8230000F8230000F8230000D1
:1003C000F8230000F8230000F8230000F8230000C1
:1003D000F8230000F8230000F8230000F8230000B1
:1003E000F8230000F8230000F8230000F8230000A1
:1003F000F8230000F8230000F8230000F823000091
:100400000048040001000000EFE12200007F24000A
:1004100000018800000000000B000700A054270026
:100420000100200010000700000020000000E00094
:10043000020032000000020000000000108D0200E7
:10044000000000000000FE004440A900C0E32000BE
:100450000000E0000300320000002000A00188003E
:100460004440A80000000600F8FF2000591C2100AD
:1004700091018800800078000000EB001A0037002E
:100480008180E80032A0B4009101BA00E28040000F
:1004900032A0B4009102BA00E280400032A0B40061
:1004A0000002EB00472BDE00F507B200602CE100F4
:1004B00009003A00330007000700E00002003200A4
:1004C0000059EB00010037000201E8008301E90058
:1004D000F8FF3E00040037006128E100010032000F
:1004E0000082EB00040007001101BA000200E000E6
:1004F000E3FF3A0000000600220007000700E000CA
:10050000020032003159BA00020037008100E800D1
:100510000201E8008301E90017003200190007001A
:100520000700E000020032002159BA000200370043
:100530008100E9000201E8008301E9000D003200BA
:100540000400E00003003A00E280400032A0B40062
:10055000E9FF37000B0007000700E000020032004F
:1005600011D9BA00010037000201E8008301E90057
:10057000F5FF3A008100E800E180400032A0B400BD
:10058000000006000810E600020037000910E6002F
:10059000020037008083EB00000006008003EB00C0
:1005A0000000060091018800800078000000EB0048
:1005B00015003700E280400032A0B4009101BA007B
:1005C000E280400032A0B4009102BA00E280400014
:1005D00032A0B4000002EB00472BDE00F507B200AA
:1005E000602CE10004003A000059EB008301E900AF
:1005F000FDFF3E00040037006128E10001003200E9
:100600000082EB00040007001101BA000200E000C4
:10061000E8FF3A00000006003159BA008301E90002
:100620000C0032002159BA008301E90008003200B1
:100630000400E00003003A00E280400032A0B40071
:10064000F5FF370011D9BA008301E900FAFF3A003B
:100650008100E800E180400032A0B4000000060004
:1006600044220400000000004020040000000000BC
:10067000442004000000000070200400000000007E
:100680009021040000000000665B040000000000F0
:10069000985B040000000000C85B0400000000003C
:1006A0000A5C0400000000004C5C04000000000034
:1006B0008E5C040000000000D45C04000000000018
:1006C000385D0400000000007C5D040000000000B4
:1006D000C05D0400000000002E5E04000000000069
:1006E000A65E040000000000305F0400000000006F
:1006F0007A5F040000000000B45F04000000000006
:10070000EE5F0400000000008260040000000000B2
:10071000BC600400000000008E8C0400000000009B
:10072000BE8C040000000000DA8C04000000000011
:10073000CA8C040000000000DA770400000000000A
:10074000588C0400000000003A8C040000000000F7
:10075000628C0400000000003095040000000000DE
:1007600074920400000000004C940400000000009B
:10077000248F040000000000EC23040000000000AF
:10078000E47F040000000000906704000000000007
:10079000020AB900001BB9000200B8008100420043
:1007A000810043000000060080017800110009006C
:1007B0008280D8008001FD00110009004288D80025
:1007C00083007800000006006022B80006022000C6
:1007D0000000D0008180D2000482D2008582D20045
:1007E0000000A0000202520083825A000300310080
:1007F0000202420083824A000000A1000603E900D1
:10080000F3FF3A0000000600839F68000100E0004B
:1008100002003D0060001000E08018000300E000CE
:1008200002003D0060011100E0811900E6FF0700B1
:100830004F00E00002003B0060001000E080180064
:1008400000000600889FBE008A9FBE008C1F7800B3
:100850000205BE000004BE000006EB00E00F5000E1
:10086000E08F5800E00F5900E08F590007003D006D
:100870006000B8006011B800080450008984580076
:100880000A0559008B8559001C002000E00F52001A
:10089000E08F5A00E00F5B00E08F5B0002003D003C
:1008A0000F0007000C00A2000800BE000A01BE00F5
:1008B0001D0107000203BE000002BE000C00E000A4
:1008C00001003200060007000400BE000601BE0061
:1008D0004F0678004F05BE004F04BE000000060022
:1008E0006000B8006011B800040250008582580012
:1008F000060359008783590000000600881F78000E
:10090000000478005001BE004000BE00040040001A
:10091000858048000601490087814900009CBE008F
:100920000294BE000400E1000588E1000690E100A9
:100930000798E10002003100680044001008E80058
:100940004F04780000000600F4874700889FBE002F
:100950008A9FBE008C9FBE008E1F78000205BE00DD
:100960000004BE00D4B79F00E5B79F00F6B79F0014
:1009700087BF9F000000EB00C0B79F00B0B79F008B
:10098000A0B79F0090B79F0080B79F000D04200084
:10099000BFB097004FB09700000140000000E0009A
:1009A0000F003D004F08DE0000007100C0B79F003F
:1009B0009E00070001003D0012002000A10007007A
:1009C00001003D0012002000A6000700B100070052
:1009D000B60007000F004000C8FF070022003700E4
:1009E0004F08DE0000067100CCB79F008F000700A3
:1009F00001003D00120020009200070001003D00B0
:100A00001200200097000700A20007000FB2970015
:100A10009FB297002FB39700BFB39700A9000700BC
:100A20000000520081805A0002015B0083815B005C
:100A300080B79F0091B79F00A2B79F00B3B79F00F8
:100A40000007EB009F0007000020E10001A8E10083
:100A500002B0E10003B8E100010031001E002000F7
:100A60000E005600C0B79F004FB297000400E00090
:100A70000700350010002000010020006011B800C0
:100A800008047000898470000A0571008B8571006C
:100A90008D06E900BEFF3A000400E00003003D00BF
:100AA000820007000F00400094FF07004FA8970046
:100AB0000000E00004003A000FB497009FB49700D4
:100AC0002FB59700BFB59700940007004F07780037
:100AD0004F06BE004F05BE004F04BE004F01B100DF
:100AE00000000600881F780018002000881F78008A
:100AF00095FF07008F87E9004F047800000006008B
:100B0000801FEB0090FF07008F87E90000000600C0
:100B1000889FBE008A9FBE008C1F78006E00070071
:100B200007003D0073000700E00F5B00E08F5B00F3
:100B300007003D00320007000006EB00040037000C
:100B40003400070002003D002A0007001C002000BE
:100B500072000700E3FF07000203BE000002BE00B0
:100B60000C00E00001003200220007000400BE007B
:100B70000601BE004F0678004F05BE004F04BE00C0
:100B800000000600889FBE008A9FBE008C1F780070
:100B90005100070005003D0056000700E00F5B0014
:100BA000E08F5B0006003D000400370019000700DD
:100BB00003003D006000B8006011B800100007009D
:100BC00056000700CEFF07000203BE000002BE0071
:100BD0000C00E00001003200060007000400BE0027
:100BE0000601BE004F0678004F05BE004F04BE0050
:100BF000000006006000B8006011B8000000370077
:100C0000040250008582580006035900878359006A
:100C1000000006000006EB00E00F5200E08F5A00D3
:100C2000E00F5B00E08F5B000000060001804000E9
:100C300090B79F000001EB008FB097000100E0002B
:100C4000000006000200700090B79F000180400085
:100C500080B79F000001EB00FFA897000100E000B3
:100C6000000006000200700080B79F000180400075
:100C70006FAA9700CF20DE0001007000F0AF9F0048
:100C800004024200250007004F18DE000002720037
:100C900000000600E4AF9F000804440089844C0073
:100CA0000A054D008B854D00000006003FB29700FD
:100CB000CFB297005FB39700EFB3970000FE2F000D
:100CC000000006003FB09700CFB097005FB19700DB
:100CD000EFB19700000006000205BE000004BE0050
:100CE000E00F5000E08F5800E00F5900E08F5900EE
:100CF000000006006000B8006011B8000804500051
:100D0000898458000A0559008B8559001C00200071
:100D1000E00F5200E08F5A00000006000800BE00FD
:100D20000A01BE0000000600889FBE008A9FBE0028
:100D30008C9FBE000404B8000506B8008904460074
:100D400060854E000606B8000A054600E0854E00A4
:100D50000706B8008B054600040EB800890446005B
:100D60000A854E00E0854D00050EB8000A054600D4
:100D70008B854E00060EB8008B0546000416B800A1
:100D80000A0546008B854E000516B8008B05460007
:100D9000041EB8008B0546000800BE000A01BE0014
:100DA0004F06BE004F05BE004F04BE000000060007
:100DB0000400FA00E0BF9F00E48157008129780019
:100DC0000002EB000F0037006FB8970090407800EA
:100DD0007FB89700104078000402E80080CF5000F0
:100DE000040032008180FB000080FB000080500086
:100DF000070037006FB897000000E800E0BF9F00D1
:100E00009309E800820F5200EFFF3A000000EB0068
:100E10000080FA00000006008001EB0002003700AD
:100E2000817178008301E800828F5100FCFF3A0055
:100E300000000600800078003004E000FEFF3A0069
:100E4000010050000000E900000006008001EB00F6
:100E50000200370061F079008301E800828F5100C1
:100E6000FCFF3A00000006003600F800809FBE003C
:100E7000829FBE00849FBE00869FBE003400F800A3
:100E800000002000A00188008AA0A9009AA0A90063
:100E90000000EB00B94207003400F9004F03BE0028
:100EA0004F02BE004F01BE004F00BE003600F900E9
:100EB000004006003600F800809FBE00829FBE0002
:100EC000849FBE00869FBE003400F8000000200012
:100ED000A00188008660A900DA42E2000A003D0015
:100EE0007E7DEF0030EC80000653290035002000A5
:100EF000F4D7210013002000E2D7210041D82100BF
:100F000091407800BA3B07003400F9004F03BE005F
:100F10004F02BE004F01BE004F00BE003600F90078
:100F2000004006003600F800809FBE00829FBE0091
:100F3000849FBE00869FBE003400F80000002000A1
:100F4000A001880086E0A900E30B800078C1BF0003
:100F500081CFB3000140600078E1B700F0E2A80063
:100F600035C6A900B41DE2000E00320092ED8000EB
:100F7000007122000018B8000BFE07000001BE003F
:100F800020C521000200500092002000110009003D
:100F90000200D800A1ED800001000100CDA2A9004F
:100FA0000100370093ED8800EC62A900F0C2A900AF
:100FB0003400F9004F03BE004F02BE004F01BE00D7
:100FC0004F00BE003600F900004006003600F80071
:100FD000809FBE00829FBE00849FBE00869FBE0091
:100FE0003400F80000002000A00188008FA0A900B4
:100FF00071EA80004C1DE2000E003A001000200053
:1010000060EA8800200C800050EA88000000280078
:1010100040EA8800E000200030EA88006011B80053
:10102000010078006625070070EA80003928070073
:10103000460037006011B800010078006025070005
:1010400080C1BF000048A3003D00320037003700D8
:10105000210C800050EA80000081500051EA880095
:10106000F0232A000000410021D22200810F50000D
:101070000C003E0041EA800032EA80008201E80074
:10108000100020000300DD00008060000000D1009F
:101090008080700041EA88000201E90032EA88009D
:1010A00024003700B051270000004100C178230020
:1010B000810F50000C003E0042EA800031EA8000BF
:1010C0000100E800130020000018DD0000006100AE
:1010D00013003A000118DD000000710040EA8800AA
:1010E0000100E9000F00370020272C00800F51007D
:1010F0000E00360042EA800031EA80000100E8007C
:10110000130020000018DD0000006100070032001D
:101110000100E9000018DD000000710040EA8800CD
:101120000180E90030EA880002003700AD45070081
:1011300006003700461DE20001003C00A9450700FB
:1011400080C1BF000038A300C1FF3A003400F9009D
:101150004F03BE004F02BE004F01BE004F00BE0055
:101160003600F900004006003600F800809FBE00FF
:10117000829FBE00849FBE00869FBE003400F800A0
:1011800000002000A00188008680A900F2C3800032
:1011900011C48000F0072000808F5000040036004A
:1011A000408821000200E00004003A0006003700F9
:1011B0000200E00004003200409021000200010023
:1011C0000000E00001003A00F34507003400F90098
:1011D0004F03BE004F02BE004F01BE004F00BE00D5
:1011E0003600F900004006003600F800809FBE007F
:1011F000829FBE00849FBE00869FBE003400F80020
:1012000000002000A001880087A0A90001C4800080
:10121000F0072000808F5000020036004098210027
:101220000100370040A02100454307003400F900C9
:101230004F03BE004F02BE004F01BE004F00BE0074
:101240003600F900004006003600F800809FBE001E
:10125000829FBE00849FBE00869FBE003400F800BF
:1012600000002000A00188000000EB00E17E80006B
:10127000010001008460A9003400F9004F03BE00A2
:101280004F02BE004F01BE004F00BE003600F90005
:10129000004006003600F800809FBE00829FBE001E
:1012A000849FBE00869FBE003400F800000020002E
:1012B000A001880084E0A90010002000017F8000C8
:1012C000010001003400F9004F03BE004F02BE00D0
:1012D0004F01BE004F00BE003600F900004006007E
:1012E0003600F800809FBE00829FBE00849FBE0033
:1012F000869FBE003400F80000002000A001880096
:101300008500A900107F800066006000E60F500095
:1013100003003A0090002000017F800002003700A7
:1013200020002000217F8000010001003400F9002E
:101330004F03BE004F02BE004F01BE004F00BE0073
:101340003600F900004006003600F800809FBE001D
:10135000829FBE00849FBE00869FBE003400F800BE
:1013600000002000A00188008760A9003000200054
:10137000417F8000010001003400F9004F03BE00EE
:101380004F02BE004F01BE004F00BE003600F90004
:10139000004006003600F800809FBE00829FBE001D
:1013A000849FBE00869FBE003400F800000020002D
:1013B000A00188008780A900507F8000660060003F
:1013C000E60F500003003A00A0002000417F80009B
:1013D0000200370040002000617F80000100010012
:1013E0003400F9004F03BE004F02BE004F01BE00A3
:1013F0004F00BE003600F900004006003600F8003D
:10140000809FBE00829FBE00849FBE00869FBE005C
:10141000889FBE008A1F78003400F800000020007A
:10142000A00188000200FA0000828000E10F500055
:1014300008003A0094C4BF000068A30005003A0009
:101440008AA4EF008C04A8008C84A800200020004F
:10145000008288008AC4BF000028A3000C0032006C
:1014600082C4BF000048A300090032000801200028
:10147000082488008430EF000001EB008000EB00BE
:10148000400720000F4607008284A9000824880036
:1014900088C4BF000018A300D4023A008AC4BF0069
:1014A0000008A300090032008CC4BF000008A3009C
:1014B00006003200103407009EC0A8004000200043
:1014C0000082880010002000502488008AC4BF00D9
:1014D0000048A3000D0032008CC4BF000048A300E8
:1014E0000A0032008284A8000801200058248800E5
:1014F00010002000208488000001EB008000EB0039
:1015000050072000EF450700582488008AC4BF0018
:101510000028A3000F0032008CC4BF000028A300E5
:1015200004003200120020008000EB003007200091
:10153000E445070040002000502488008650E20067
:10154000010032008670ED008650E20001003A0092
:10155000303407008A44E20014003D008C44E2006D
:1015600012003D00AAC4BF000018A3000D00320005
:10157000328280009240900000C8B30080CF5000BB
:1015800007003A00808280009040900040C8B3007D
:1015900080CF500002003A0068404000104198009F
:1015A000AA24A90000082000502488008AC4BF0093
:1015B0000018A3000A0032008CC4BF000018A3006A
:1015C00007003200120020008000EB00F0FF27002F
:1015D000BC4507008EA4EF002000200050248800A6
:1015E00000828000E30F5000800236008CC4BF00F0
:1015F0000038A3007D0232000045EB008AC4BF0022
:101600000038A30079023200902480006CF0B7000B
:101610006CD0BF000080FB004400DE006AF0B70021
:1016200080002000502488006CD0BF000038A30048
:1016300004003A006AD0BF000080FB0021072100AF
:10164000030037006AD0BF000080FB00E1062100E4
:101650000100400010417800E14061000104A20057
:101660001004A10010C870006A50E20058023A004D
:10167000D0C2B30086F0B7006CD0BF008001780004
:10168000B30FB20015023A006CD0BF00C00FB20019
:10169000010021000101400032828800428288005E
:1016A0004850AA0012409000C043B20041C3B300AA
:1016B000814F50009A013A00820078000203210015
:1016C0001100900010F17900110090000000E80076
:1016D000900098008301E800E88F5100F8FF3A007D
:1016E000920098005670EF007630EF007C30EF00EB
:1016F0007E30EF008030EF005870EF008182800074
:10170000114090000074A100904098005050AA0031
:1017100081828000114090000074A10090409800E8
:101720005050AA0041828000114090000074A10036
:10173000904098005C70EF005E30EF006270EF0048
:1017400063D0BF006370EF0064D0BF006470EF002F
:1017500030D0BF000046B20040013A0031D0BF0097
:101760000080FB0001002000EB0F5000E08F5800CC
:101770003A013E00006001005D003700890037003B
:101780003601370087003700340137000600370084
:10179000080037002D0137005300370033003700B1
:1017A00018013700210137005CF0A80080002000FC
:1017B00045003700010321009140780000C8B300C4
:1017C00080CF500025013A0000CCB3005CF0B70098
:1017D00033D0BF00E24F500008003200E34F50000A
:1017E00013003200E14F50001E003A0000122100A9
:1017F000D0828800200120001800370032D0BF00BE
:101800000080FB0000004000E11B210060807800A8
:10181000D0828800D0828000204090005EF0B70027
:10182000D0828000304090005FF0B7000B0137009D
:1018300032D0BF00E24F50000A003E0032D0BF005D
:101840000080FB0000004000011C21006080780047
:10185000D0828800D08280001080FB00F082880057
:10186000FE0037005C70EF00FC0037005CF0A80061
:10187000AC24EF00AE24EF000000EB0001002100DB
:10188000010178000019EB000019EB000000E800EE
:10189000EC0F5000FBFF3A009424A8004470EF00C6
:1018A0009424A90080002100808288003182880071
:1018B0004182880032D0BF0042F0B7004250E200BF
:1018C00003003A000001200000828800E300370096
:1018D000120020002104210010002000F94407001C
:1018E00000022000F8FF370020042100C900370063
:1018F0003870EF003970EF0030D0BF007F0060001B
:10190000E10F50000B003200E20F50000B003200DC
:101910000000E0001B003A005CF0A8003810A800AE
:1019200010848000E10F500016003A003830A80003
:10193000140037005CF0A800120037005CF0A8002B
:101940003450E2000500350034D0BF006F00600065
:1019500000004000A10421000400370034D0BF0083
:101960006F006000000040000105210060807800E9
:10197000104090000028A3000200320010C0B30005
:1019800038F0B7005C50E200B4003D008003210055
:10199000D08288005C10A80020C0B3005EF0B700C1
:1019A000AE00370032D0BF00E14F50000B003A00CC
:1019B00030D0BF007F40600008003A005CF0A80013
:1019C00031D0BF00E34F500003003A001000200068
:1019D00010848800010037008230EF003250E200AE
:1019E0009E003A0030D0BF007F406000E24F5000C0
:1019F0009A003A0034D0BF006F4060009700320078
:101A000034D0BF006F006000E20F500093003C0034
:101A10000182800000022000808F50008F003A0079
:101A20005CF0A8003450E2000A00350034D0BF005A
:101A30006F00600000004000A10421006080780079
:101A4000F0BF9F0034D0BF006F006000210721006D
:101A50000900370034D0BF006F0060000000400074
:101A60000105210060807800F0BF9F0034D0BF00E6
:101A70006F006000E106210060C478000808A30040
:101A800004003A006FF997000224A100E2FF9F00D2
:101A9000030037006FF897000024A000E0FF9F00CC
:101AA0003450E2000500350034D0BF006F00600004
:101AB00000004000A10421000400370034D0BF0022
:101AC0006F00600000004000010521007FB9970011
:101AD00002B0780031D0BF00E34F500014003A004C
:101AE0007FB897001000E0000B003D003450E2008A
:101AF0000400350034D0BF006F00600021072100D2
:101B00000300370034D0BF006F006000E106210001
:101B1000010040001014A0007FB897009040900092
:101B200042C8B30082C07000114098004B003700DB
:101B30008F84E9006FF897000024A200E0FF9F0067
:101B4000FFB89700114090001100E0000B003D002D
:101B50000074A10090409800FFB8970011409000D9
:101B60000064A0009040980022002000FFB8970079
:101B70005000200053440700020037000064A0001A
:101B8000904098001924A2000818A30006003A000B
:101B90007FB9970000402800120060000100280073
:101BA000810F500013003A003450E2000400350069
:101BB00034D0BF006F006000210721000300370010
:101BC00034D0BF006F006000E1062100010040003A
:101BD0001014A100FFB8970011409000B043B2006C
:101BE0009040980022002000FFB89700500020008D
:101BF0001900370012409000B043B2001041980025
:101C00001600370034D0BF000080FB0041042100E3
:101C100001004000D08288005C10A80010C0B30012
:101C20005EF0B7005CF0A8000C0037005CF0A80084
:101C300034D0BF000080FB004104210022032100BA
:101C40001241780002F07800040037000001EB0038
:101C50008000EB00200020001A4407000001EB0088
:101C60008000EB00300020001644070094A4A90077
:101C70005C50E200130035006250E20008003D00B5
:101C800020C0B30058F0B7007E10E20001003A0017
:101C9000B33207007A30EF007830EF00D000370021
:101CA00081C0B300408280000148780041828000FA
:101CB0000003210090009800C0C8B3009040980035
:101CC000A40037003050E20006003D0010C0B30011
:101CD00058F0B7007C10E2000C003A00A032070078
:101CE0000A00370020C0B30058F0B70081C0B3002D
:101CF000408280000148780041828000000321007A
:101D00009000980040C8B300904098007A30EF00EF
:101D10007830EF007610E200B1003A005E00370044
:101D200058D0BF00E24F50005D003A0012427800E8
:101D300063D0BF000080FB00410621009140780085
:101D4000C808DD00808070000480FB00810F500017
:101D50000400360063D0BF004106210091407800A6
:101D60000042780031062100914078008180FB001C
:101D700064D0BF004800DD00010070008480FB00DB
:101D800001005000310621009140780063F0B70057
:101D90004800DE00410621009140780064F0B70061
:101DA00085032100100037000106210091407800D2
:101DB0008180FB0061D0BF004800DD0001007000A1
:101DC0008280FB0061D87A000106210091407800F2
:101DD00060F0B7004800DE00110621009140780055
:101DE00061F0B7008301E8000341780084CF51001F
:101DF000EDFF3900428280003106210091407800D9
:101E00008180FB0064D0BF004800DD00010070004D
:101E10000A00320080C0B30000497800418280008F
:101E200080032100900098003082800010409000D4
:101E30000068A3004E0032004F00370080C0B3009E
:101E40000049780041828000000321009000980042
:101E500040C8B3009040980051062100914078009E
:101E60008180FB0066D0BF004800DD0001007000EB
:101E70000700320051062100914078008180FB006C
:101E800066D0BF004800DD000100700000000100C6
:101E900062F0A9009FFF3700DE31070050003700D5
:101EA0008001FD0058F0B7008001FD008010E200C5
:101EB00008003A0081C0B3004082800001487800E9
:101EC000418280000003210090009800C0C8B30048
:101ED0002A00370003848800410037006CD0BF001F
:101EE000B00FB200E80F50003D003A008082800041
:101EF000104090004600DE00610460005050AA00CF
:101F000000828000E80F500008003A0032D0BF0085
:101F10000080FB00B0248800000120009604E2004D
:101F200001003A00400020000082880058D0BF0025
:101F3000E14F500013003A008003210081828000AD
:101F400090009800D831070056D0BF00E24F5000F3
:101F500004003A0041C8B30080828000114098001C
:101F60001F003700818280000804E00002003A0070
:101F700080CCB3000100370080C8B30090409800C7
:101F8000170037006250E2000F003D0051062100AB
:101F9000914078008180FB0066D0BF004800DD00E2
:101FA00001007000070032005106210091407800C6
:101FB0008180FB0066D0BF004800DD00010070009A
:101FC0000000010062F0A9005870EF000400370023
:101FD0000001EB00C1062100200720003943070063
:101FE0000A45E800E44F550084FD3A008EC0A90080
:101FF0000080FA003400F9004F0578004F04BE005D
:102000004F03BE004F02BE004F01BE004F00BE0096
:102010003600F900004006003600F800809FBE0040
:10202000829FBE00849FBE00869FBE003400F800E1
:1020300000002000A00188000400FA008620A9000A
:1020400040E88000E10F500003003A0001108000DA
:1020500050E88000014878009320200093417800E8
:102060008381FB0032E88000C719DE008F80E90021
:102070000000EB0024E880000400010080007800EC
:10208000E0BF9F00E40F50001900320006003C0042
:10209000E20F50001000320013003C00E10F50002E
:1020A0001C003A0008003700E60F5000150032000F
:1020B00011003500E70F500014003200E80F500007
:1020C00014003A00190037007FB8970050E88800E4
:1020D0000662A800140037007FB897001080FB004C
:1020E00010108800100037000622A8000E003700EC
:1020F00006A2A9000100370006A2A8000682A800D7
:10210000090037000642A80007003700043DEF0031
:1021100005003700E481570042A02000B10F2000E5
:10212000A0F92900AE09070041E888000080FA0004
:102130003400F9004F03BE004F02BE004F01BE0045
:102140004F00BE003600F900004006003600F800DF
:10215000809FBE00829FBE00849FBE00869FBE00FF
:102160003400F80000002000A00188000400FA00FC
:102170008A40A90080E88000E10F500003003A0087
:102180008110800090E880000148780093212000B1
:10219000934178008381FB0072E88000C719DE005C
:1021A0008F80E9001000200064E880000400010036
:1021B00080007800E0BF9F00E40F5000190032005B
:1021C00006003C00E20F50001000320013003C00FB
:1021D000E10F50001C003A0008003700E60F5000E5
:1021E0001500320011003500E70F500014003200D6
:1021F000E80F500014003A00190037007FB897002C
:1022000090E888001662A800140037007FB8970095
:102210001080FB0090108800100037001622A800E4
:102220000E00370016A2A9000100370016A2A80070
:102230001682A800090037001642A80007003700E0
:102240000C3DEF0005003700E481570042A020005C
:10225000A1132000A0F929006109070081E8880086
:102260000080FA003400F9004F03BE004F02BE00A8
:102270004F01BE004F00BE003600F90000400600CE
:102280003600F800809FBE00829FBE00849FBE0083
:10229000869FBE003400F80000002000A0018800E6
:1022A0000400FA008EA0A900C0E88000E10F5000F1
:1022B00003003A0081138000D0E8800001487800D4
:1022C00093272000934178008381FB00B2E88000CF
:1022D000C719DE008F80E90020002000A4E88000FC
:1022E0000400010080007800E0BF9F00E40F500070
:1022F0001900320006003C00E20F500010003200CE
:1023000013003C00E10F50001C003A0008003700A9
:10231000E60F50001500320011003500E70F5000A5
:1023200014003200E80F500014003A001900370082
:102330007FB89700D0E888007662A80014003700C4
:102340007FB897001080FB009013880010003700C2
:102350007622A8000E00370076A2A90001003700FF
:1023600076A2A8007682A800090037007642A8006D
:1023700007003700143DEF0005003700E4815700E7
:1023800042A0200091172000A0F92900140907009D
:10239000C1E888000080FA003400F9004F03BE0055
:1023A0004F02BE004F01BE004F00BE003600F900D4
:1023B000004006006D610000746800002E6E000091
:1023C0007A730000657100000077000072690000F8
:1023D00074650000207400006F2000006465000038
:1023E000737400002074000068650000206D000018
:1023F00069640000646C000065200000696E0000E4
:1024000064650000782000006F6600002074000002
:1024100068650000206C00006172000067650000C4
:102420007374000020730000657100007565000082
:102430006E630000652000006F660000206E0000E3
:102440006F6E00002D7A0000657200006F200000A2
:10245000656C0000656D0000656E0000747300001F
:1024600020660000726F00006D2000007372000093
:10247000632C0000202D0000312000006966000060
:10248000206E00006F740000206600006F75000071
:102490006E640000206F000072200000696600007A
:1024A000207300006D6100006C6C0000657200001C
:1024B00020740000686100006E2000006D6900005B
:1024C0006E4C0000656E000067740000680000003C
:1024D0006465000073740000007300007263000004
:1024E000006D0000696E00004C6500006E67000022
:1024F0007468000000000000DA910000E59100001F
:102500000100000068920000FFFF00006D920000D3
:1025100001000000719200000000000000000000B7
:102520006D610000746800002E730000717200007D
:102530007400000070650000726600006F72000099
:102540006D730000206400006573000074200000BB
:102550003D200000737100007274000028780000B4
:1025600029200000656C0000656D0000656E0000AC
:102570007420000062790000206500006C65000096
:102580006D6500006E74000000780000000000001F
:10259000909200009A920000FFFF000068920000F5
:1025A000FFFF0000C59200000000000000000000D6
:1025B0006D610000746800002E7200006F740000EE
:1025C00032000000726F000074610000746500004A
:1025D00073200000762000006F660000206100007C
:1025E0006E6700006C650000206100002074000030
:1025F0006F20000064650000737400000076000026
:102600000061000000000000D8920000E29200008B
:10261000020000006892000002000000FF9200002B
:102620000100000001930000000000000000000015
:102630006D610000746800002E6300006F7300007D
:102640000070000065720000666F0000726D00008F
:10265000732000006465000073740000203D0000DA
:10266000206300006F73000028780000292000001C
:10267000656C0000656D0000656E00007420000050
:1026800062790000206500006C6500006D65000047
:102690006E740000000000001893000021930000F9
:1026A000FFFF000068920000FFFF0000C5920000DD
:1026B00000000000000000006D6100007468000070
:1026C0002E730000696E000000700000657200004B
:1026D000666F0000726D00007320000064650000EA
:1026E00073740000203D000020730000696E00003C
:1026F0002878000029200000656C0000656D00004E
:10270000656E000074200000627900002065000002
:102710006C6500006D6500006E7400000000000034
:102720005C93000065930000FFFF000068920000CA
:10273000FFFF0000C5920000000000000000000044
:102740006D610000746800002E610000746100007B
:102750006E3200000070000065720000666F0000BD
:10276000726D000073200000646500007374000047
:10277000203D000020610000746100006E32000006
:10278000287900002C78000029200000656C0000EA
:10279000656D0000656E0000742000006279000025
:1027A000206500006C6500006D6500006E7400001F
:1027B0000079000000000000A0930000AB9300002F
:1027C000FFFF000068920000FFFF0000D9930000A7
:1027D000FFFF0000C59200000000000000000000A4
:1027E0006D610000746800002E6D0000756C0000C3
:1027F00064690000760000007065000072660000E9
:102800006F7200006D7300002064000065730000AB
:10281000742000003D200000286100002A620000B2
:10282000292F000063200000696E000020330000A3
:10283000322000006269000074730000206500000F
:102840006C6500006D6500006E7400002062000081
:1028500079200000656C0000656D0000656E000069
:10286000740000006200000063000000F0930000AC
:10287000FC930000FFFF000068920000FFFF0000D3
:1028800001930000FFFF000032940000FFFF0000F2
:102890003494000000000000000000006D610000A2
:1028A000746800002E730000746100007400000062
:1028B00070650000726600006F7200006D730000AA
:1028C00020730000746100007469000073740000DC
:1028D00069630000732000006F6E00002073000029
:1028E00072630000006D0000696E0000006D000062
:1028F00061780000006D0000656100006E0000005E
:102900004E94000058940000FFFF00006D920000FC
:1029100001000000739400000100000077940000A3
:10292000010000007B940000000000000000000097
:102930006D610000746800002E6400006F74000078
:1029400000770000726900007465000073200000C9
:102950007468000065200000646F000074200000AF
:10296000707200006F640000756300007420000046
:102970006F660000207300007263000031200000C9
:10298000616E00006420000073720000633200007A
:10299000207400006F200000646500007374000064
:1029A0002C200000616600007465000072200000A9
:1029B0006120000073680000696600007400000078
:1029C0007372000063310000007300007263000046
:1029D00032000000736800006966000074000000A7
:1029E00098940000A194000001000000689200008B
:1029F000FFFF0000E0940000FFFF0000E5940000EE
:102A000001000000EA940000000000000000000047
:102A10006D610000746800002E6D00006178000098
:102A200000770000726900007465000073200000E8
:102A300074680000652000006D6100007869000086
:102A40006D7500006D2000006F66000020730000AF
:102A50007263000031200000616E000064200000FD
:102A60007372000063320000207400006F200000C9
:102A700064650000737400002C200000656C000089
:102A8000656D0000656E0000742000006279000032
:102A9000206500006C6500006D6500006E7400002C
:102AA000000000000895000011950000FFFF0000E5
:102AB00068920000FFFF0000E0940000FFFF0000AC
:102AC000E594000000000000000000006D610000BF
:102AD000746800002E6D0000696E00000077000031
:102AE00072690000746500007320000074680000C3
:102AF000652000006D6900006E6900006D750000C2
:102B00006D2000006F6600002073000072630000FB
:102B100031200000616E000064200000737200002C
:102B200063320000207400006F2000006465000024
:102B3000737400002C200000656C0000656D0000BF
:102B4000656E0000742000006279000020650000BE
:102B50006C6500006D6500006E74000000000000F0
:102B6000669500006F950000FFFF0000689200006E
:102B7000FFFF0000E0940000FFFF0000E59400006C
:102B800000000000000000006D610000746800009B
:102B90002E64000069760000006400006976000081
:102BA0006964000065730000207300007263000018
:102BB0003120000062790000207300007263000081
:102BC00032200000746F0000206400006573000074
:102BD000742C0000206500006C6500006D6500002D
:102BE0006E7400002062000079200000656C000017
:102BF000656D0000656E000074000000C495000063
:102C0000CD950000FFFF000068920000FFFF00006C
:102C1000E0940000FFFF0000E594000000000000C9
:102C2000000000006D610000746800002E6D00005F
:102C3000756C0000006D0000756C00007469000088
:102C4000706C000069650000732000007372000062
:102C500063310000206100006E64000020730000FA
:102C60007263000032200000746F000020640000D6
:102C700065730000742C0000206500006C65000086
:102C80006D6500006E740000206200007920000075
:102C9000656C0000656D0000656E0000740000004A
:102CA000129600001B960000FFFF000068920000D3
:102CB000FFFF0000E0940000FFFF0000E59400002B
:102CC00000000000000000006D610000746800005A
:102CD0002E73000075620000007300007562000032
:102CE00073740000726100006374000073200000C0
:102CF000737200006332000020660000726F0000F3
:102D00006D20000073720000633100002074000029
:102D10006F20000064650000737400002C20000028
:102D2000656C0000656D0000656E00007420000099
:102D300062790000206500006C6500006D65000090
:102D40006E74000000000000649600006D960000A4
:102D5000FFFF000068920000FFFF0000E094000009
:102D6000FFFF0000E59400000000000000000000EC
:102D70006D610000746800002E6100006464000052
:102D800000610000646400007320000073720000A2
:102D900063310000206100006E64000020730000B9
:102DA0007263000032200000746F00002064000095
:102DB00065730000742C0000206500006C65000045
:102DC0006D6500006E740000206200007920000034
:102DD000656C0000656D0000656E00007400000009
:102DE000B8960000C1960000FFFF00006892000046
:102DF000FFFF0000E0940000FFFF0000E5940000EA
:102E000000000000000000006D6100007468000018
:102E10002E6100006464000073630000616C0000B8
:102E20006172000000610000646400002073000013
:102E3000636100006C61000072200000746F00008C
:102E4000206500006163000068200000656C0000E0
:102E5000656D0000656E0000742000006F66000064
:102E60002073000072630000206100006E640000A7
:102E700020730000746F0000726500002072000073
:102E800065730000756C000074200000746F000012
:102E9000206400006573000074000000736300008C
:102EA000616C0000617200000000000004970000E7
:102EB00013970000FFFF000068920000FFFF000072
:102EC0006D920000010000004E970000000000001D
:102ED000000000006D610000746800002E660000B4
:102EE000696C00006C000000666900006C6C0000FA
:102EF00073200000646500007374000020770000F8
:102F00006974000068200000636F00006E730000A9
:102F1000746100006E74000020760000616C000097
:102F20007565000000760000616C000075650000AA
:102F3000000000006A97000074970000FFFF000087
:102F4000689200000100000093970000000000005C
:102F5000000000006D610000746800002E63000036
:102F60006F70000079000000636F0000706900005E
:102F7000657300002073000072630000207400007D
:102F80006F2000006465000073740000206500007D
:102F90006C6500006D6500006E740000206200002A
:102FA00079200000656C0000656D0000656E000012
:102FB00074000000AA970000B4970000FFFF000013
:102FC00068920000FFFF00006D920000000000000A
:102FD0000000000000000000930100002403000036
:102FE000B704000048060000DA0700006B09000083
:102FF000FC0A00008C0C00001C0E0000AB0F00004F
:103000003B110000C812000056140000E315000038
:103010006E170000F9180000831A00000C1C000055
:10302000941D00001A1F0000A020000024220000B0
:10303000A723000029250000A8260000272800005B
:10304000A4290000202B0000992C0000122E000063
:10305000872F0000FC3000006F320000DF330000DB
:103060004E350000BA360000253800008D390000CA
:10307000F33A0000573C0000B93D0000173F000044
:1030800074400000CE410000264300007B44000055
:10309000CD4500001D4700006A480000B44900000B
:1030A000FC4A0000404C0000824D0000C04E000071
:1030B000FC4F000034510000695200009B53000097
:1030C000CA540000F65500001E5700004358000087
:1030D00064590000835A00009D5B0000B45C00004E
:1030E000C85D0000D75E0000E45F0000EC600000F7
:1030F000F1610000F2620000EF630000E96400008B
:10310000DE650000D0660000BD670000A768000013
:103110008C6900006E6A00004B6B0000246C00009C
:10312000F96C0000CA6D0000976E00005F6F000030
:1031300023700000E37000009E71000055720000D3
:1031400008730000B673000060740000057500008D
:10315000A575000042760000D97600006C7700006B
:10316000FB77000084780000097900008A7900006C
:10317000067A00007D7A0000EF7A00005D7B000097
:10318000C67B00002A7C0000897C0000E47C0000F3
:10319000397D00008A7D0000D77D00001D7E000083
:1031A000607E00009D7E0000D67E0000097F00004A
:1031B000397F0000627F0000877F0000A77F00004A
:1031C000C27F0000D87F0000EA7F0000F67F000089
:1031D000FE7F0000FF7F00008C020000DF02000085
:1031E0003003000080030000D1030000220400002F
:1031F00073040000C204000014050000B3050000C1
:1032000054060000F10600008F0700002D080000A2
:10321000CA08000063090000FC090000340B00002C
:103220005C0C0000820D0000A40E0000BD0F000029
:10323000D3100000E2110000E7120000EF140000BC
:10324000CC16000092180000401A0000D61B0000A7
:10325000531D0000B51E00000B2000007922000065
:103260008D2400006F260000142800009029000023
:10327000E02A0000112C0000252D0000052F000081
:1032800089300000D3310000EC320000DD33000053
:10329000AE340000673500000D3600002037000016
:1032A000FB370000B23800004A390000CC3900007A
:1032B0003B3A00009B3A0000F33A0000833B0000D9
:1032C000F43B0000513C00009F3C0000E13C00004A
:1032D0001A3D00004B3D0000783D0000C03D00005D
:1032E000F93D0000283E00004F3E0000703E000007
:1032F0008D3E0000A53E0000BC3E0000E03E000008
:10330000FD3E0000143F0000283F0000383F000051
:10331000473F0000533F00005E3F0000703F000049
:103320007F3F00008A3F0000943F00009C3F000068
:10333000A43F0000AA3F0000AF3F0000B83F0000DC
:10334000C03F0000C53F0000CB3F0000CE3F000063
:10335000D23F0000D53F0000D83F0000DC3F000016
:10336000E03F0000E33F0000E53F0000E83F0000D1
:10337000E93F0000EB3F0000EC3F0000EE3F0000A3
:10338000F13F0000F13F0000F33F0000F43F000078
:10339000F53F0000F53F0000F73F0000F73F000059
:1033A000F93F0000F83F0000FA3F0000FA3F00003C
:1033B000FA3F0000FB3F0000FB3F0000FC3F000025
:1033C000FC3F0000FC3F0000FE3F0000FD3F00000E
:1033D000FD3F0000FD3F0000FE3F0000FE3F0000FB
:1033E000FE3F0000FE3F0000FE3F0000FE3F0000E9
:1033F00000400000FF3F0000FF3F0000FF3F0000D3
:10340000FF3F0000FF3F0000FF3F0000FF3F0000C4
:10341000FF3F0000FF3F0000FF3F0000FF3F0000B4
:10342000004000000040000000400000004000009C
:10343000004000000040000000400000004000008C
:10344000004000000040000000400000004000007C
:1034500000400000004000000040000074680000D0
:10346000796D0000696F00002D49000049000000DF
:103470005F6900006400000065760000656E000072
:10348000742E0000736F0000757200006365000009
:1034900000650000766500006E7400002E6100007B
:1034A00072670000730000005F660000777600001E
:1034B00065720000736900006F6E0000005F00001D
:1034C000707200006F6400007563000074490000B2
:1034D0006400000062750000747400006F6E0000EC
:1034E000732E00005F720000617700000062000030
:1034F00075740000746F00006E7300002E6200008F
:10350000696E0000617200007900000062750000C1
:10351000747400006F6E0000732E00005F6D000079
:10352000656100006E0000006275000074740000A8
:103530006F6E0000732E00005F6E00006F69000068
:103540007365000000700000726F0000782E0000AC
:10355000686F0000726900007A6F00006E740000EE
:10356000616C000000700000726F0000782E000097
:10357000677200006F7500006E6400002E6100002D
:103580006D620000696100006E7400000070000050
:10359000726F0000782E0000677200006F750000E7
:1035A0006E6400002E720000656600006C6500000D
:1035B000637400006564000000700000726F00001A
:1035C000782E0000677200006F7500006E640000C6
:1035D0002E640000656C000074610000006D000046
:1035E0006F7400006F7200002E74000061720000A2
:1035F00067650000740000007662000061740000DE
:10360000006D00006F7400006F7200002E730000E8
:103610007065000065640000006D00006F740000BC
:103620006F7200002E700000776D000000610000D6
:103630006363000000740000656D000070650000A9
:103640007261000074750000726500000072000075
:10365000633500002E6100006464000072650000A4
:103660007373000000720000633500002E630000D9
:103670006F6D00006D6100006E64000000000000CE
:103680002E9A000001000000389A0000010000009E
:103690003C9A000020000000499A0000020000004F
:1036A000549A0000010000005F9A0000050000002D
:1036B0006A9A000005000000779A000005000000EB
:1036C000869A000005000000949A000007000000A0
:1036D000A39A000002000000B39A0000020000005C
:1036E000C79A000002000000DD9A000002000000FE
:1036F000EF9A000002000000FC9A000002000000A7
:10370000019B0000020000000D9B00000300000070
:10371000179B0000010000001B9B0000010000003F
:10372000279B000001000000339B00000000000008
:1037300000000000DE000000AD000000CA00000034
:10374000FE000000BE000000EF00000004000000CA
:10375000020000005F7300007973000074650000D0
:103760006D2E00007365000074740000696E000027
:10377000677300002E6600006C6100007368000033
:10378000005700007269000074650000207400009A
:103790006865000020730000657400007469000013
:1037A0006E67000073200000696E0000746F0000F7
:1037B000206600006C61000073680000005F00007C
:1037C0007379000073740000656D00002E730000B3
:1037D00065740000746900006E670000732E0000BD
:1037E00077720000697400006500000057720000E5
:1037F000697400006520000061200000736500000E
:1038000074740000696E00006700000061640000CD
:1038100064720000657300007300000076610000B0
:103820006C750000650000005F7300007973000094
:10383000746500006D2E0000736500007474000054
:10384000696E0000677300002E7200006561000061
:103850006400000052650000616400002061000007
:103860002073000065740000746900006E6700003A
:10387000005F00007379000073740000656D000044
:103880002E720000656200006F6F0000740000007F
:1038900052650000626F00006F7400002074000029
:1038A00068650000206D000069630000726F000011
:1038B000636F00006E740000726F00006C6C00009B
:1038C000657200000062000075740000746F0000F3
:1038D0006E00000042750000747400006F6E0000FE
:1038E00020650000766500006E740000006D000029
:1038F0006F7400006F720000004D00006F740000D4
:103900006F72000020740000696D00006572000095
:103910000041000063630000656C000065720000F8
:103920006F6D000065740000657200002065000086
:10393000766500006E74000000540000656D0000A4
:10394000706500007261000074750000726500000F
:1039500020650000766500006E74000000720000B3
:10396000633500000052000043350000206D000068
:10397000657300007361000067650000206500004A
:10398000766500006E74000000700000726F000029
:1039900078000000507200006F780000696D000030
:1039A0006974000079200000736500006E730000E8
:1039B0006F72000073000000639C00006A9C0000AE
:1039C000779C00007D9C0000179B0000899C0000F4
:1039D0001B9B00009D9C0000AF9C0000B39C00005E
:1039E000C59C0000CA9C0000000000000000000010
:1039F00041640000647200006573000073200000E1
:103A00006F750000742000006F66000020730000D6
:103A100065740000746900006E67000073000000A8
:103A2000536C000065650000702000006D6F0000A1
:103A300064650000206E00006F74000020730000B9
:103A400075700000706F0000727400006564000003
:103A500000450000727200006F7200003A20000002
:103A60006D6900006E2000003D3D00002030000028
:103A700078460000464600004646000046460000E4
:103A8000462000002100000045720000726F000017
:103A9000723A0000205500006E610000626C000068
:103AA00065200000746F0000206600006C6100005B
:103AB00073680000206200007974000065630000F4
:103AC0006F640000652000002831000029200000FC
:103AD0002100000045720000726F0000723A000081
:103AE000205500006E610000626C0000652000003F
:103AF000746F0000206600006C61000073680000B5
:103B00002062000079740000656300006F640000AB
:103B1000652000002832000029200000210000005C
:103B200045720000726F0000723A000020550000DC
:103B30006E610000626C000065200000746F000080
:103B4000206600006C6100007368000020620000C5
:103B500079740000656300006F6400006520000058
:103B6000283300002920000021000000466C0000DE
:103B700061730000686900006E670000204F00005C
:103B80004B000000809A0000904100008E41000030
:103B90008F8000004545000045490000494900006C
:103BA0008E8F000090920000924F0000994F00000D
:103BB00055550000599900009A9B00009C9D0000FB
:103BC0009E9F0000414900004F550000A5A5000040
:103BD000A6A70000A8A90000AAAB0000AC21000025
:103BE000AEAF0000B0B10000B2B30000B4B5000049
:103BF000B6B70000B8B90000BABB0000BCBD0000F9
:103C0000BEBF0000C0C10000C2C30000C4C50000A8
:103C1000C6C70000C8C90000CACB0000CCCD000058
:103C2000CECF0000D0D10000D2D30000D4D5000008
:103C3000D6D70000D8D90000DADB0000DCDD0000B8
:103C4000DEDF0000E0E10000E2E30000E4E5000068
:103C5000E6E70000E8E90000EAEB0000ECED000018
:103C6000EEEF0000F0F10000F2F30000F4F50000C8
:103C7000F6F70000F8F90000FAFB0000FCFD000078
:103C8000FEFF0000222A00002B2C00003A3B00001F
:103C90003C3D00003E3F00005B5D00007C7F00007B
:103CA000000000005F7300006F7500006E6400008C
:103CB0002E7000006C610000790000005374000059
:103CC0006172000074200000736F0000756E0000C8
:103CD00064200000706C00006179000062610000E7
:103CE000636B0000005B0000302D0000395D0000B8
:103CF000005F0000736F0000756E0000642E00000E
:103D000072650000636F00007264000000530000E1
:103D10007461000072740000207300006F75000071
:103D20006E64000020720000656300006F72000086
:103D3000646900006E670000005F0000706F0000A3
:103D400077650000726F000066660000005000009A
:103D50006F770000657200006F660000660000006B
:103D60005F6C000065640000732E00007365000046
:103D700074000000536500007420000074680000A7
:103D8000652000006C650000640000006C650000A8
:103D9000640000006272000069670000687400003F
:103DA0006E6500007373000000720000302E00008A
:103DB0007261000077000000C119000004000000DB
:103DC00036120000030000000000000000000000A8
:103DD000C119000004000000A01E00000300000044
:103DE000701400000500000000000000000000004A
:103DF0007014000004000000C1190000030000005E
:103E0000A01E0000040000000000000000000000F0
:103E1000703000002E720000617700000074000016
:103E2000756A0000686500002E720000617700006E
:103E3000006B00006F6900006E2E000072610000D0
:103E400077000000706F000077650000726F00005F
:103E50006E2E00007261000077000000706F00009D
:103E600077650000726F0000666600002E72000029
:103E7000617700000062000075740000746F00003C
:103E80006E2E000072610000770000005A3A0000B8
:103E90005C6D00006F6C00006F6C0000655C0000E2
:103EA00069320000635C00002F690000326300008B
:103EB0005F70000072690000762E0000680000004C
:103EC0005A3A00005C6D00006F6C00006F6C0000DF
:103ED000655C000069320000635C00006D610000F9
:103EE00073740000657200005F700000726F000064
:103EF000746F0000636F00006C2E00006300000010
:103F00005A3A00005C6D00006F6C00006F6C00009E
:103F1000655C000069320000635C00002F690000EE
:103F2000326300005F70000072690000762E0000AE
:103F3000680000005A3A00005C6D00006F6C0000E1
:103F40006F6C0000655C000069320000635C00007B
:103F50006D61000073740000657200002E63000044
:103F6000000000005A3A00005C6D00006F6C000019
:103F70006F6C0000655C0000746900006D650000F6
:103F8000725C0000746900006D650000722E000014
:103F900063000000010000000000000008000000B5
:103FA00000000000400000000000000000010000D0
:103FB000000000005A3A00005C6D00006F6C0000C9
:103FC0006F6C0000655C000069320000635C0000FB
:103FD0002F690000326300005F700000726900000A
:103FE000762E0000680000005A3A00005C6D000068
:103FF0006F6C00006F6C0000655C0000666C000078
:1040000061730000685C0000666C00006173000072
:10401000682E0000630000006D6D00006137000035
:1040200036360000302E000063000000900890003B
:10403000E001900001814000628179008100E90087
:1040400011089800020078000000060024360700DE
:1040500000003700993207000000E000FDFF3A0041
:1040600000003700F33407000000E000FDFF3A00D5
:104070009EC0A900004804000100000000000600E6
:104080000000FE0000000600889FBE00800478004B
:1040900040049000E5FF07000000400060047C0041
:1040A00009007800E1FF0700E10F5400040036002A
:1040B00081CF29000900780043220700060037005D
:1040C000C90190000001400088004400A0DA2100EE
:1040D0006100780000B179004F04BE0000000600C6
:1040E000889FBE008004780040049000CFFF070046
:1040F0000000400060047C0009007800CBFF07004E
:10410000E10F54000400360081CF29000900780037
:104110002D22070006003700880144004901900065
:1041200080004000A0DA210061017900823178002E
:104130004F04BE000000060001D1290022223700F2
:10414000C0CD29000000060000000600818040006C
:1041500022B22100E10079000140010000B42900F1
:1041600000000600C0AB210000000600F0874700F9
:10417000889FBE008A9FBE008C9FBE008E1F780065
:1041800080BF9F00588E8000698E800020009000C4
:10419000D0B79F000085EB008085EB006066B8001B
:1041A0003E0020000800BE00022E07008A0F5000CB
:1041B0008B8F5800020031000005BE000806BE00CB
:1041C000008020000100200008044000898448008D
:1041D0000E07E900F3FF3A0091D22900E10F4500F4
:1041E000E08F4D004600320061054500E0854D003E
:1041F000EAB79F00FBB79F000C04BE002A00200016
:104200000800BE00542E07000A05E9000040200007
:104210000100200008044000898448000A00E000F2
:10422000F7FF3A000C00BE00622E07006FB0970047
:10423000FFB097008D2E07008FB8970021009000E7
:10424000C1BF2000B12E0700E02E07000C00BE0009
:10425000D82D07006FB19700FFB19700800F510074
:10426000818F59000200320041D429002400370018
:1042700062054600E0854E00E93F20007A84570041
:1042800088017800320020000A00BE00DF2D070000
:1042900032002000DFB0970008007800C4F2070069
:1042A0000000E00013003A00DFB19700E381410015
:1042B000D3B79F0062054500E0854D008904E90001
:1042C000EEFF3A00FC815700220020000A00BE00E9
:1042D000CE2D070022002000DFB097007C80570021
:1042E000B3F2070001D929000000E00004003A0001
:1042F00002003700A1D629000100370061DB290048
:104300000FB89700B02107004F0778004F06BE0096
:104310004F05BE004F04BE000F01B10000000600B3
:10432000889FBE008A9FBE008C9FBE003A8E800090
:104330004B8E80000A04BE000006EB00ADB92900D8
:104340000800BE00A42D07009D0F500007003A0092
:104350000C06E8000808B0000980B0008D86E8006F
:10436000E80F560005003200F5FF37000C00E000B2
:1043700002003200E80F560003003A000A00BE00B7
:10438000F52D07000006EB004760DD00CF80DE0062
:104390000A0040008B804800062E0700AADDBF00FF
:1043A0008080FB00000020008C014600A2B929009B
:1043B0006301790003002000020070008380700018
:1043C0002A2E070031002000B0DA21004F2E07000E
:1043D0007E2E07004F06BE004F05BE004F04BE00F4
:1043E00000000600889FBE008A9FBE008C9FBE0012
:1043F0003C8E80004D8E80000C04BE000005EB005A
:10440000ABB929000800BE00732D07009B0F5000B8
:1044100007003A000A05E8000808B0000980B0006B
:104420008B85E800E80F550004003200F5FF3700E7
:104430000080EB000A00E0000F0032000A04E900EF
:104440004744DD00CFC4DE000C0444008D844C00E2
:104450000800BE00662D0700AAFDB70062044400F4
:10446000E0844C00B3DA2100320020000800BE00D6
:10447000662D07000000EB004F06BE004F05BE0092
:104480004F04BE00000006000000FE00FEFF3700E3
:104490000400FA00889FBE008A9FBE008C1F78002F
:1044A0001000200020D488000240220000002000DC
:1044B0008000780002007800508E8800618E8800AD
:1044C0000080240011002000308E8800418E88007A
:1044D000B320200082A022008300780030C1220097
:1044E0005C31070094C4BF000008A3000200320042
:1044F0009EC0A80001003700BD390700CFC0BF0033
:1045000081CFB300014060005040B300CFE0B7005E
:1045100040A821008C1F070020D48000708E8800E6
:1045200080002000B0908800588E8000698E800046
:104530006055B8009ABF9F00ABBF9F003C002000B1
:104540000800BE001B2D07008A0F50008B8F5800FB
:10455000030039000005BE0098BF9F00A9BF9F005F
:1045600000802000010020000804400089844800E9
:104570000C06E900F2FF3A00E00F5500E08F5D0005
:104580000A0032001FB99700AFB9970062004100DE
:10459000E080490043D48000C2BF20001B2D0700EB
:1045A0008080EB0040A821008D1F070040242200DE
:1045B0008D0007004F0678004F05BE004F04BE0077
:1045C0000080FA000000060014350700813E20003C
:1045D00040A821007F21070040A82100FE2F0700EE
:1045E000BE3407009CD480000C00D100E1056000BF
:1045F00002003A000C08A300F3FF3A00A9AB210027
:1046000020042000010C200010C870001904CF0005
:1046100005003900143107000000E00002003200FC
:10462000EE9802000000000020042000F1012000AC
:1046300010C86000080578000800E000E2FF3200C2
:104640000B00E000020032000C08A300DEFF3A007D
:104650000A00E900110020008008DD008180EA00E6
:10466000998C600021D48000818E8800E1FF2F00AA
:104670008080500040A82100591F0700D2FF37005A
:104680000001EB0084BF210073042000956B24001F
:10469000110009000301D800005A7800F20FB000A1
:1046A000850F5100FAFF3A000001EB00F4C321002E
:1046B00073042000956B2400110009000301D80049
:1046C00000DAEA00F20FB000850F5100FAFF3A005D
:1046D000000006008000780050222000808F5000EB
:1046E00002003E00612220000400370040892900BA
:1046F000808F50000100360080007800C0582000F4
:104700000008B80022F4200003002000000041004F
:104710008180490042E8210023F00700450620007F
:1047200000017800110009000580D8000001FD009B
:1047300032E488000591B9000201500052E488007B
:1047400003003200110009008282D80050E4880082
:10475000883CEF0000000600889FBE008A1F78009A
:1047600036E4800055E4800043E4800062E4800089
:104770000002EB0089BF2100D808200027F72F0096
:104780000E00370062C57C000A707A000601410005
:104790000500E000050032008301E800858F51002C
:1047A00002003A000201E8008001EB00880F51008E
:1047B00001003600070141000402E800810F5200A9
:1047C000F0FF390043E4880062E488004F05780078
:1047D0004F04BE0000000600803A0700FEFF3700CD
:1047E00034EE80000400010030EE88000000060076
:1047F0000000FE00000000000000000000000000BB
:104800000100000013000100001300000200180066
:1048100000F9FF001D00FA00FFDB0000FBFF4A006B
:1048200001FCFF008301FD00FF580200FEFF0400B1
:1048300003FFFF008A0308001053420053121800C0
:10484000C0000000FF1F53004253120018C00000B8
:10485000005E300000100A00A00A00001D10530086
:1048600042001000524252001253120016C00900BA
:10487000905E300000100C00A00600005E300100C9
:10488000100380005E40390030841000058059001C
:1048900040101000534259001053120016C03A0045
:1048A0003084100005805900401110005342590017
:1048B0001053120016C03B003084100005805900D0
:1048C00040141000534259001053120016C0150036
:1048D00010534200591053001216C0003C3084009F
:1048E0001005800059401200105342005910530027
:1048F0001216C0003D30840010058000594013009E
:1049000010534200591053001216C0003E3084006C
:104910001005800059400000105342005910530008
:104920001216C0003F30840010058000594001007D
:1049300010534200591053001216C00054300300A7
:10494000100AA0003A0039003000100000803A0040
:104950003001100000800200803B30000310040092
:10496000800280003C3001001000800002803D0089
:104970003000100000800200805940003930FC00F7
:104980001F0480003A30FE001F04800002803C00BB
:104990003001100000800200803D30000210000055
:1049A000800280005A4090001159300032100500FA
:1049B000800380005A3032001005800003804600DA
:1049C00040901100593032001005800003805A00D9
:1049D0003032100005800200804740004230140051
:1049E000100E800043301400100E800010A015003F
:1049F000000010004640000010474000081053001F
:104A000042201000524252001253120016C00B00F6
:104A1000105342002010520042521200531216004E
:104A2000C00F900008105300420010005242520084
:104A30001253120016C00B00105342000010520017
:104A40004252120053121600C00000001D10530005
:104A500042201000524252001253120016C00A00A7
:104A6000105E400052300000100A800053300500F4
:104A7000100A800011A0070000002000B77A530040
:104A80004253120019C05400300210000AA0560010
:104A90000052300000100A00A05200005330020003
:104AA000100AA0000700C80010464000C8104700C8
:104AB0004048900053300100100AA0000700320067
:104AC00010464000C8104700403F9000533005009A
:104AD000100AA00007000000104640000010470028
:104AE0004036900053300300100AA0000700C800B1
:104AF0001046400032104700402D90005330060011
:104B0000100AA0000700C80010464000381F4700E8
:104B10004024900053300400100AA0000700380021
:104B20001F464000C8104700401B9000533008004B
:104B3000100AA000070038001F464000381F470039
:104B40004012900053300700100AA0000700CE006A
:104B50001F464000381F47004009900053300900AD
:104B6000100AA000060038001F464000CE1F470074
:104B7000400000005130C800100EA00011002700B6
:104B800010534200201052004252120053121600DD
:104B9000C02610005342000010524200521253002F
:104BA0001216C0002690510030FA10000EA011001D
:104BB00000271000534210001052420052125300BE
:104BC0001216C0002610530042101000524252002C
:104BD0001253120016C0130090513000FA100C004E
:104BE000A010000027105300420010005242520053
:104BF0001253120016C0260010534200201052001B
:104C00004252120053121600C0000000543001003E
:104C1000100AA000D20018001053420000105200E9
:104C20004252120053121600C019100053420000E5
:104C300010524200521253001216C0001A105300B4
:104C400042001000524252001253120016C01B00C4
:104C5000105342000010520042521200531216002C
:104C6000C01C100053420000105242005212530068
:104C70001216C0002410530042001000524252008D
:104C80001253120016C025001053420000105200AB
:104C90004252120053121600C01F1000534200006F
:104CA00010524200521253001216C000503015002C
:104CB000100EA00096000100104F10004E105B0077
:104CC0001010C0005B3000002060F0000C805B0022
:104CD00030002000A00F0E008011A0000A001C0070
:104CE000105342002010520042521200531216007C
:104CF000C07E90005B3000002060F0000E805B0002
:104D00003000200020D10C008011A0000A001B0000
:104D1000105342002010520042521200531216004B
:104D2000C06C90005B3000002020D1000E805B0042
:104D300030002000E0B10C008011A0000A001A0031
:104D4000105342002010520042521200531216001B
:104D5000C05A90005B30000020E0B1000E805B0084
:104D600030002000A0920C008011A0000A00190061
:104D700010534200201052004252120053121600EB
:104D8000C04890005B30000020606D000C805B002C
:104D900030002000A0920E008010A0000A00180031
:104DA00010534200201052004252120053121600BB
:104DB000C03690005B30000020A00F000C805B002C
:104DC00030002000E02E0E008011A0000A00240018
:104DD000105342002010520042521200531216008B
:104DE000C02490005B30000020E02E000C805B00AF
:104DF00030002000204E0E008011A0000A00250087
:104E0000105342002010520042521200531216005A
:104E1000C01290005B30000020204E000C805B0030
:104E200030002000606D0E008011A00009001F00FE
:104E3000105342002010520042521200531216002A
:104E4000C000000054300300100AA000A9005C005C
:104E50003001100003805C00405C300000100E0048
:104E6000A0A100000A105C00405D300001100200AB
:104E7000805D40005D300000100AA00011001F009E
:104E800010534200001052004252120053121600FA
:104E9000C01810005342200010524200521253001A
:104EA0001216C00087905D00300110000AA01100AA
:104EB00000181000534200001052420052125300DA
:104EC0001216C00019105300422010005242520026
:104ED0001253120016C07400905D300002100A00D8
:104EE000A01100001910530042001000524252005D
:104EF0001253120016C01A00105342002010520024
:104F00004252120053121600C06190005D3003003F
:104F1000100AA00011001A001053420000105200A5
:104F20004252120053121600C01B100053422000C0
:104F300010524200521253001216C0004E905D00F3
:104F4000300410000AA01100001B100053420000A2
:104F500010524200521253001216C0001C1053008F
:104F600042201000524252001253120016C03B0061
:104F7000905D300005100A00A01100001C105300C5
:104F800042001000524252001253120016C0240078
:104F900010534200201052004252120053121600C9
:104FA000C02890005D300600100AA0001100240007
:104FB00010534200001052004252120053121600C9
:104FC000C0251000534220001052420052125300DC
:104FD0001216C00015905D00300710000AA01200E4
:104FE000002510005342000010524200521253009C
:104FF0001216C0001F1053004220100052425200EF
:105000001253120016C0FF001F5D400000002C006C
:10501000300110000AA121000000100046400000ED
:105020001047400054300200100BA0000C0002009A
:105030001054400010105500401010005640000061
:10504000105740008FD30E00902C300001100A0042
:10505000A00B00000010540040001000554000005C
:105060001056400000105700408FD300543002000B
:10507000100BA0003D002D00300110000AA00C0014
:10508000000310005440000010554000201056004E
:105090004000100057408F00D32D90002B300100AE
:1050A000100A80002E300100100A800011A00800B4
:1050B00000002000B77A53004253120019C01F00AD
:1050C000902E300001100A00A010000001105400C2
:1050D00040001000554000001056400020105700BE
:1050E000408FD300081053004253120019C00D0026
:1050F000902B300001100A00802A300001100A00B5
:105100008011A00006002A0010534200531219001B
:10511000C02490002D300100100AA0000700C80034
:1051200010464000C8104700401B90002B30010083
:10513000100AA00007006A001F46400096104700B2
:10514000401290002E300100100AA00007009600C7
:10515000104640006A1F4700400990002A300100B5
:10516000100AA00006000000104640000010470092
:105170004000000000105400400010005D4000009E
:1051800000021000534255001053120016C00300D5
:1051900010534200561053001216C0000410530062
:1051A0004257100053121600C000E000000000003B
:1051B00000000000000000000000000000000000EF
:1051C00000000000000000000000000000000000DF
:1051D00000000000000000000000000000000000CF
:1051E00000000000000000000000000000000000BF
:107800008001EB000200370061F079008301E8009D
:10781000828F5100FCFF3A00000006008001EB005F
:107820000200370001F079008301E800828F5100E7
:10783000FCFF3A0000000600889FBE008A9FBE0041
:107840008C9FBE008E1F7800000478000206BE00E8
:1078500050159000E0159000820F5500838F5D0059
:1078600034003200404090000004E000210032006B
:10787000EE022000080747001840900014C0B30033
:107880000A01BE008E007800E51907000000E00044
:1078900026003A0040449800780890008810900034
:1078A00058099000E80990000000410081804900DB
:1078B000800F5500818F5D000E003100B8449000AC
:1078C0000A00370058089000E80890000A054000B8
:1078D0008B8548001840900014C0B3000A01BE0018
:1078E0008E007800CE1907008944E900E1CF5400EA
:1078F000F4FF3E00E00F5600E08F5E000D00320006
:10790000E1022000888040001840900014C0B300BD
:107910000C01BE00861907000000E00003003A00D9
:107920005C1498006D1498000300370010002000CC
:10793000010037000000EB004F0778004F06BE0043
:107940004F05BE004F04BE0000000600881F7800EF
:107950000004780062025100E0825900C0089000E3
:107960003008900062005000E08058006011B800BC
:10797000800F5200818F5A00090031002841900089
:107980000281FB00030020000400BE0080E307002A
:1079900038119000C8119000000141008181490018
:1079A0000200BE004F04780000000600889FBE0061
:1079B0008A9FBE00000578000204BE00E10F51005E
:1079C000E08F590079003600C00890003008900020
:1079D000800F5100818F5900740031001A407800E7
:1079E000E24F50002E003200E34F500043003200BF
:1079F000E14F500070003A00820478000200D1008C
:107A0000000441004941DE007A0890008A1090008D
:107A100002014000E08148000A00780086FF07006C
:107A20000000E00064003A0008007800F01FB20097
:107A3000E002B0000A0040009085FB000804E80066
:107A40004941DE007A0890008A109000020140004F
:107A5000E08148000A00780077FF07000000E0009E
:107A600055003A00F81FB200E00220000800400074
:107A70000A0040001080FB004800DD008080750097
:107A80000908A300020032004408DE0002003700AB
:107A9000F0FF200000806000010020004800370057
:107AA0004818DD004811DE0002017000C819DE0030
:107AB0007A0890008A1090000201400083814800FB
:107AC0000A0078005CFF07000000E0003A003A007E
:107AD000E20220000A0141000800440089804C00B5
:107AE000F01FB20000014100124090004800DD008C
:107AF0009280FB0001007000E7FF37004918DD00AD
:107B00004711DE0002017000C719DE007A089000FC
:107B10008A10900002014000838148000A0078002A
:107B200045FF07000000E00023003A00E4022000C7
:107B30000A0242004248DD00CE40DE0081007000B3
:107B40004240DD00F01FB2000002420034419000CC
:107B5000C811DD0002002000244090008080FB005E
:107B6000000020000001710081817100144090002C
:107B70004800DD00010020000001710081817100DA
:107B8000144078000080FB0001002000000171001B
:107B900081817100F0FF2000030060008003780005
:107BA000020378000600BE00050037001000200028
:107BB00001002000020037000080EB008080EB0015
:107BC0004F05BE004F04BE0000000600E4874700DA
:107BD000889FBE008A9FBE008C9FBE008E1F7800CB
:107BE000000578000204BE000406BE00E10F51004B
:107BF000E08F59009F003600C008900030089000C8
:107C0000800F5100818F59009A0031001A4078008E
:107C1000E24F500044003200E34F50005900320060
:107C20002B002000E14F50008F003A000200D100ED
:107C3000800441004949DE007A0890008A109000D3
:107C400002014000E08148000A007800FAFE0700C7
:107C5000800578000000E00083003A00EE0220007A
:107C60000A07470009007800F01FB2000001470032
:107C7000610064000100200080BF9F000000E00060
:107C80000500320012427800EF4062004460DD00DF
:107C900001407000010037000C4078000049780076
:107CA0000904E80010C0B300404598004941DE00D7
:107CB0007A0890008A10900002014000E08148009C
:107CC0000A007800DCFE0700800578000000E00074
:107CD00065003A00F81FB200880147000FB897000E
:107CE0000000E000050032004C69DD004460DE0069
:107CF00000007100C468DE000800370002CFB30046
:107D000013416100486ADD004860DE000000720037
:107D1000C868DE006F406000004071008049780054
:107D20008005EB00500037004818DD004811DE00E8
:107D300002017000C819DE007A0890008A109000D5
:107D400002014000838148000A007800BAFE070063
:107D5000800578000000E00043003A00E0022000C7
:107D60000A0040000801440089814C00F21FB20063
:107D7000020040000C487800C860DE001140980006
:107D800039003700491ADD004711DE000201720098
:107D9000C719DE007A0890008A10900002014000A6
:107DA000838148000A007800A3FE07008005780060
:107DB0000000E0002C003A00E40220000A02420029
:107DC0004248DD00CE40DE00810070004240DD0010
:107DD000F01FB20000024200E30342000483E80007
:107DE0008402E80017417800C811DD00020020007D
:107DF000164078008080FB00000020000001710028
:107E0000818171001580FB004800DD000100200029
:107E10000001710081817100144078000080FB0036
:107E200001002000000171008181710000002F001D
:107E30000300600001002000C000DD000000200001
:107E40000000760081807600004A78004801DE005C
:107E5000824A78004009DE0003002000024B7800CF
:107E60004808DE00804B780010C0B3004045980001
:107E7000010037002B0020000B0078004F0778002E
:107E80004F06BE004F05BE004F04BE004F00B100BC
:107E9000000006000400FA00889FBE008A9FBE0012
:107EA0008C1F78000006780092BF9F00A3BF9F0040
:107EB000E00F5100E08F59000B003A005005900090
:107EC000E0059000E00F5500E08F5D0015003200E6
:107ED000C008900030089000800F5500818F5D0031
:107EE00010003100110037001FB99700AFB997009B
:107EF000AEFE07000001BE00E10F5000E08F580009
:107F00004D0036003C089000CC089000800F5100D6
:107F1000818F59004C0039001FBD9700AFBD9700FD
:107F2000020037001A0020000B0020000A04BE00E7
:107F300061044400E0844C003C089000CC089000B0
:107F4000800F5400818F5C0005003900E10F55005F
:107F5000E08F5D003B003600280020000900200073
:107F60000801BE000C00780090FE07000001BE0072
:107F7000E00F5000E08F58000A003200E10F40008F
:107F8000E08F480030003200E10F5000E08F5800D1
:107F90002D0032008A0F54008B8F5C0029003200C4
:107FA000E3FF3700F4FF2F00F5FF20000801BE00BB
:107FB0000C00780005FF07000000E0001A003A00FE
:107FC0001FB89700AFB89700E00F5000E08F58003F
:107FD000060032000802BE000001BE000C0078005E
:107FE000FAFE07000000E0000F003A005806980073
:107FF000690698007C0090008C089000E10F40001A
:10800000E08F48000600320061005000E080580018
:1080100070069800010E980010C0B30050469800FA
:108020000801BE00080037000081EB008081EB00F2
:10803000E10F500004003200120020000300200075
:10804000010037006011B8000200BE004F06780042
:108050004F05BE004F04BE000080FA00000006007D
:10806000889FBE008A1F78000004BE00210498008B
:1080700030019000C0019000E10F5100E08F5900E5
:10808000480032001002780034089000C4089000C4
:10809000800F5100818F590042003100E00F5100E4
:1080A000E08F590016003A0030C0B300944F100022
:1080B00005003A0014119000A4119000E00F510047
:1080C000E08F59000E003A006000B800500498009C
:1080D0006104980044009000808F5400310031000A
:1080E0004448DE0014119000A411900000004100EB
