:020000040000fa
:080000000002040000000000f2
:020000040000fa
:100400000048040001000000ef0a2300807d240062
:1004100000018800000000000b000700804a29004e
:100420000100200010000700000020000000e00094
:10043000020032000000020000000000c4b402000c
:10044000000000000000fe004440a900a04521007b
:100450000000e0000300320000002000a00188003e
:100460004440a80000000600f8ff2000591c2100ad
:1004700091018800800078000000eb001a0037002e
:100480008180e80032a0b4009101ba00e28040000f
:1004900032a0b4009102ba00e280400032a0b40061
:1004a0000002eb00472bde00f507b200602ce100f4
:1004b00009003a00330007000700e00002003200a4
:1004c0000059eb00010037000201e8008301e90058
:1004d000f8ff3e00040037006128e100010032000f
:1004e0000082eb00040007001101ba000200e000e6
:1004f000e3ff3a0000000600220007000700e000ca
:10050000020032003159ba00020037008100e800d1
:100510000201e8008301e90017003200190007001a
:100520000700e000020032002159ba000200370043
:100530008100e9000201e8008301e9000d003200ba
:100540000400e00003003a00e280400032a0b40062
:10055000e9ff37000b0007000700e000020032004f
:1005600011d9ba00010037000201e8008301e90057
:10057000f5ff3a008100e800e180400032a0b400bd
:10058000000006000810e600020037000910e6002f
:10059000020037008083eb00000006008003eb00c0
:1005a0000000060091018800800078000000eb0048
:1005b00015003700e280400032a0b4009101ba007b
:1005c000e280400032a0b4009102ba00e280400014
:1005d00032a0b4000002eb00472bde00f507b200aa
:1005e000602ce10004003a000059eb008301e900af
:1005f000fdff3e00040037006128e10001003200e9
:100600000082eb00040007001101ba000200e000c4
:10061000e8ff3a00000006003159ba008301e90002
:100620000c0032002159ba008301e90008003200b1
:100630000400e00003003a00e280400032a0b40071
:10064000f5ff370011d9ba008301e900faff3a003b
:100650008100e800e180400032a0b4000000060004
:10066000849a040000000000749804000000000058
:100670007898040000000000a89804000000000022
:10068000d099040000000000766c04000000000017
:10069000a86c040000000000d86c040000000000fa
:1006a0001a6d0400000000005c6d040000000000f2
:1006b0009e6d040000000000e46d040000000000d6
:1006c000486e0400000000008c6e04000000000072
:1006d000d06e0400000000003e6f04000000000027
:1006e000b66f04000000000040700400000000002d
:1006f0008a70040000000000c470040000000000c4
:10070000fe70040000000000927104000000000070
:10071000cc71040000000000c6720400000000005c
:1007200086900400000000003091040000000000ea
:10073000fe90040000000000629104000000000030
:100740009491040000000000c89104000000000023
:100750004892040000000000a49204000000000081
:1007600076920400000000004e9404000000000097
:10077000d292040000000000249304000000000056
:10078000c293040000000000f09304000000000089
:100790000894040000000000209404000000000001
:1007a0007894040000000000a6b4040000000000db
:1007b0008c9b04000000000020b404000000000036
:1007c00006b40400000000003ab404000000000079
:1007d0002eb4040000000000d8b3040000000000a4
:1007e000ca2604000000000004b904000000000054
:1007f0008ac304000000000030a9040000000000cb
:1008000044730400000000005c7504000000000058
:10081000b8c90400000000002cac04000000000077
:100820004880040000000000020ab900001bb90063
:100830000200b80081004200810043000000060071
:1008400080017800110009008280d8008001fd003d
:10085000110009004288d8008300780000000600db
:100860006022b800060220000000d0008180d20083
:100870000482d2008582d2000000a0000202520051
:1008800083825a00030031000202420083824a0040
:100890000000a1000603e900f3ff3a000000060093
:1008a000839f68000100e00002003d00600010002e
:1008b000e08018000300e00002003d00600111002c
:1008c000e0811900e6ff07004f00e00002003b0056
:1008d00060001000e080180000000600889fbe0045
:1008e0008a9fbe008c1f78000205be000004be0077
:1008f0000006eb00e00f5000e08f5800e00f5900b9
:10090000e08f590007003d006000b8006011b8009a
:1009100008045000898458000a0559008b85590045
:100920001c002000e00f5200e08f5a00e00f5b0037
:10093000e08f5b0002003d000f0007000c00a200ea
:100940000800be000a01be001d0107000203be0030
:100950000002be000c00e0000100320006000700ab
:100960000400be000601be004f0678004f05be0021
:100970004f04be00000006006000b8006011b8001f
:1009800004025000858258000603590087835900ed
:1009900000000600881f7800000478005001be00a7
:1009a0004000be0004004000858048000601490068
:1009b00087814900009cbe000294be000400e10053
:1009c0000588e1000690e1000798e100020031008f
:1009d000680044001008e8004f047800000006009a
:1009e000f4874700889fbe008a9fbe008c9fbe0090
:1009f0008e1f78000205be000004be00d4b79f0021
:100a0000e5b79f00f6b79f0087bf9f000000eb008f
:100a1000c0b79f00b0b79f00a0b79f0090b79f00de
:100a200080b79f000d042000bfb097004fb0970023
:100a3000000140000000e0000f003d004f08de0014
:100a400000007100c0b79f009e00070001003d003c
:100a500012002000a100070001003d00120020004c
:100a6000a6000700b1000700b60007000f00400015
:100a7000c8ff0700220037004f08de0000067100a3
:100a8000ccb79f008f00070001003d00120020003e
:100a90009200070001003d001200200097000700af
:100aa000a20007000fb297009fb297002fb39700e4
:100ab000bfb39700a90007000000520081805a00d0
:100ac00002015b0083815b0080b79f0091b79f00ac
:100ad000a2b79f00b3b79f000007eb009f0007007d
:100ae0000020e10001a8e10002b0e10003b8e1004c
:100af000010031001e0020000e005600c0b79f000c
:100b00004fb297000400e0000700350010002000fd
:100b1000010020006011b800080470008984700092
:100b20000a0571008b8571008d06e900beff3a0051
:100b30000400e00003003d00820007000f004000b9
:100b400094ff07004fa897000000e00004003a005f
:100b50000fb497009fb497002fb59700bfb59700cb
:100b6000940007004f0778004f06be004f05be00f7
:100b70004f04be004f01b10000000600881f78003e
:100b800018002000881f780095ff07008f87e90074
:100b90004f04780000000600801feb0090ff070064
:100ba0008f87e90000000600889fbe008a9fbe0074
:100bb0008c1f78006e00070007003d0073000700df
:100bc000e00f5b00e08f5b0007003d003200070094
:100bd0000006eb00040037003400070002003d006f
:100be0002a0007001c00200072000700e3ff070036
:100bf0000203be000002be000c00e0000100320053
:100c0000220007000400be000601be004f06780067
:100c10004f05be004f04be0000000600889fbe00c6
:100c20008a9fbe008c1f78005100070005003d0020
:100c300056000700e00f5b00e08f5b0006003d0000
:100c4000040037001900070003003d006000b800f1
:100c50006011b8001000070056000700ceff070023
:100c60000203be000002be000c00e00001003200e2
:100c7000060007000400be000601be004f06780013
:100c80004f05be004f04be00000006006000b80023
:100c90006011b8000000370004025000858258003f
:100ca0000603590087835900000006000006eb0088
:100cb000e00f5200e08f5a00e00f5b00e08f5b0016
:100cc000000006000180400090b79f000001eb008b
:100cd0008fb097000100e0000000060002007000e5
:100ce00090b79f000180400080b79f000001eb009b
:100cf000ffa897000100e00000000600020070005d
:100d000080b79f00018040006faa9700cf20de00cf
:100d100001007000f0af9f000402420025000700b0
:100d20004f18de000002720000000600e4af9f00d2
:100d30000804440089844c000a054d008b854d0051
:100d4000000006003fb29700cfb297005fb3970054
:100d5000efb3970000fe2f00000006003fb09700a1
:100d6000cfb097005fb19700efb197000000060089
:100d70000205be000004be00e00f5000e08f5800e6
:100d8000e00f5900e08f5900000006006000b80035
:100d90006011b80008045000898458000a05590001
:100da0008b8559001c002000e00f5200e08f5a0094
:100db000000006000800be000a01be000000060098
:100dc000889fbe008a9fbe008c9fbe000404b800ae
:100dd0000506b8008904460060854e000606b80086
:100de0000a054600e0854e000706b8008b05460060
:100df000040eb800890446000a854e00e0854d00c7
:100e0000050eb8000a0546008b854e00060eb80098
:100e10008b0546000416b8000a0546008b854e0077
:100e20000516b8008b054600041eb8008b05460069
:100e30000800be000a01be004f06be004f05be00fe
:100e40004f04be00000006000400fa00e0bf9f004f
:100e5000e4815700812978000002eb000f00370081
:100e60006fb89700904078007fb8970010407800e6
:100e70000402e80080cf5000040032008180fb00b3
:100e80000080fb0000805000070037006fb897001b
:100e90000000e800e0bf9f009309e800820f5200c5
:100ea000efff3a000000eb000080fa0000000600af
:100eb0008001eb0002003700817178008301e800b7
:100ec000828f5100fcff3a0000000600800078008d
:100ed0003004e000feff3a00010050000000e9008d
:100ee000000006008001eb000200370061f079008d
:100ef0008301e800828f5100fcff3a0000000600e9
:100f00003400f800881f780008002000a80188003d
:100f10004f0478008d00a9009d00a9008aa0a800b8
:100f20003400f900004006003600f800809fbe0043
:100f3000829fbe00849fbe00869fbe003400f800e2
:100f400000002000a00188008aa0a9009aa0a900a2
:100f50000000eb007d5607003400f9004f03be008f
:100f60004f02be004f01be004f00be003600f90028
:100f7000004006003600f800809fbe00829fbe0041
:100f8000849fbe00869fbe003400f8000000200051
:100f9000a00188008660a900da42e20001003d005d
:100fa0006e0f07003400f9004f03be004f02be0071
:100fb0004f01be004f00be003600f90000400600a1
:100fc0003600f800809fbe00829fbe00849fbe0056
:100fd000869fbe003400f80000002000a0018800b9
:100fe00086e0a900e30b800078c1bf0081cfb30089
:100ff0000140600078e1b700f0e2a80035c6a90022
:1010000092f98000c9c2bf000058a3000b003a004b
:10101000007122000018b80009fe070022c5210057
:101020000001510093002000110009000301d800c5
:1010300080017800cda2a9000e0037000200e00078
:101040000b0032006f10b80003004000e080480041
:1010500068004000e08048004c09dd004400de00ec
:1010600000007100c408de0090f98800010037001c
:1010700093f98800ec62a900a1f980000100e0006a
:10108000020032000300780001000100f0c2a90054
:10109000c9a2a9003400f9004f03be004f02be00f0
:1010a0004f01be004f00be003600f90000400600b0
:1010b0003600f800809fbe00829fbe00849fbe0065
:1010c000869fbe003400f80000002000a0018800c8
:1010d0008fa0a900b1f58000b41ee2000e003a0016
:1010e00010002000a0f58800200c800090f58800fa
:1010f0000000280080f58800e000200070f58800de
:101100006011b80001007800a22d0700b0f5800042
:1011100075300700460037006011b8000100780004
:101120009c2d070080c1bf000048a3003d00320095
:1011300037003700210c800090f5800000815000be
:1011400091f58800f0232a000000410021d22200fe
:10115000810f50000c003e0081f5800072f5800088
:101160008201e800100020000300dd000080600024
:101170000000d1008080700081f588000201e90044
:1011800072f5880024003700b051270000004100ac
:10119000c1782300810f50000c003e0082f58000d2
:1011a00071f580000100e800130020000018dd0048
:1011b0000000610013003a000118dd00000071001a
:1011c00080f588000100e9000f00370020272c007f
:1011d000800f51000e00360082f5800071f580000e
:1011e0000100e800130020000018dd00000061008d
:1011f000070032000100e9000018dd000000710066
:1012000080f588000180e90070f588000200370051
:10121000135d070006003700ae1ee20001003c002f
:101220000f5d070080c1bf000038a300c1ff3a0076
:101230003400f9004f03be004f02be004f01be0054
:101240004f00be003600f900004006003600f800ee
:10125000809fbe00829fbe00849fbe00869fbe000e
:101260003400f80000002000a00188008680a9005a
:1012700042b4800061b48000f0072000808f5000ed
:1012800004003600e06821000200e00004003a009b
:10129000060037000200e00004003200e070210088
:1012a000020001000000e00001003a00285b070096
:1012b0003400f9004f03be004f02be004f01be00d4
:1012c0004f00be003600f900004006003600f8006e
:1012d000809fbe00829fbe00849fbe00869fbe008e
:1012e0003400f80000002000a001880087a0a900b9
:1012f00051b48000f0072000808f500004003600b9
:10130000e0782100235b0700e0782100030037002c
:10131000e08021001f5b0700e080210034500700bf
:101320003400f9004f03be004f02be004f01be0063
:101330004f00be003600f900004006003600f800fd
:10134000809fbe00829fbe00849fbe00869fbe001d
:101350003400f80000002000a00188000000eb002d
:10136000e1f08000010001008460a9003400f90070
:101370004f03be004f02be004f01be004f00be0033
:101380003600f900004006003600f800809fbe00dd
:10139000829fbe00849fbe00869fbe003400f8007e
:1013a00000002000a001880084e0a90010002000b7
:1013b00001f18000010001003400f9004f03be007c
:1013c0004f02be004f01be004f00be003600f900c4
:1013d000004006003600f800809fbe00829fbe00dd
:1013e000849fbe00869fbe003400f80000002000ed
:1013f000a00188008500a90010f18000660060004f
:10140000e60f500003003a009000200001f1800038
:10141000020037002000200021f1800001000100bf
:101420003400f9004f03be004f02be004f01be0062
:101430004f00be003600f900004006003600f800fc
:10144000809fbe00829fbe00849fbe00869fbe001c
:101450003400f80000002000a00188008760a90087
:101460003000200041f18000010001003400f9004b
:101470004f03be004f02be004f01be004f00be0032
:101480003600f900004006003600f800809fbe00dc
:10149000829fbe00849fbe00869fbe003400f8007d
:1014a00000002000a00188008780a90050f1800082
:1014b00066006000e60f500003003a00a000200024
:1014c00041f18000020037004000200061f18000ff
:1014d000010001003400f9004f03be004f02be00be
:1014e0004f01be004f00be003600f900004006006c
:1014f0003600f800809fbe00829fbe00849fbe0021
:10150000869fbe00889fbe008a1f78003400f800c6
:1015100000002000a00188000200fa000082800084
:10152000e10f500008003a0094c4bf000068a30017
:1015300005003a008aa4ef008c04a8008c84a8005f
:1015400020002000008288008ac4bf000028a30079
:101550000c00320082c4bf000048a3000900320022
:1015600008012000082488008430ef000001eb000f
:101570008000eb00400720007e5d07008284a90008
:101580000824880088c4bf000018a300d4023a00d1
:101590008ac4bf000008a300090032008cc4bf0049
:1015a0000008a30006003200c84907009ec0a8003a
:1015b0004000200000828800100020005024880095
:1015c0008ac4bf000048a3000d0032008cc4bf00d5
:1015d0000048a3000a0032008284a800080120000d
:1015e0005824880010002000208488000001eb00af
:1015f0008000eb00500720005e5d07005824880043
:101600008ac4bf000028a3000f0032008cc4bf00b2
:101610000028a30004003200120020008000eb002c
:1016200030072000535d0700400020005024880050
:101630008650e200010032008670ed008650e20024
:1016400001003a00e84907008a44e20014003d0026
:101650008c44e20012003d00aac4bf000018a300a1
:101660000d003200328280009240900000c8b3002a
:1016700080cf500007003a008082800090409000a8
:1016800040c8b30080cf500002003a0068404000dc
:1016900010419800aa24a9000008200050248800c6
:1016a0008ac4bf000018a3000a0032008cc4bf0027
:1016b0000018a30007003200120020008000eb0099
:1016c000f0ff27002b5d07008ea4ef002000200014
:1016d0005024880000828000e30f50008002360012
:1016e0008cc4bf000038a3007d0232000045eb002f
:1016f0008ac4bf000038a300790232009024800021
:101700006cf0b7006cd0bf000080fb004400de002e
:101710006af0b70080002000502488006cd0bf0021
:101720000038a30004003a006ad0bf000080fb002c
:1017300021072100030037006ad0bf000080fb00b2
:10174000e10621000100400010417800e140610005
:101750000104a2001004a10010c870006a50e20049
:1017600058023a00d0c2b30086f0b7006cd0bf0078
:1017700080017800b30fb20015023a006cd0bf00b0
:10178000c00fb20001002100010140003282880038
:10179000428288004850aa0012409000c043b20024
:1017a00041c3b300814f50009a013a008200780093
:1017b000020321001100900010f179001100900047
:1017c0000000e800900098008301e800e88f5100d5
:1017d000f8ff3a00920098005670ef007630ef0064
:1017e0007c30ef007e30ef008030ef005870ef006b
:1017f00081828000114090000074a1009040980008
:101800005050aa0081828000114090000074a10015
:10181000904098005050aa004182800011409000f2
:101820000074a100904098005c70ef005e30ef0003
:101830006270ef0063d0bf006370ef0064d0bf0040
:101840006470ef0030d0bf000046b20040013a00a3
:1018500031d0bf000080fb0001002000eb0f5000e2
:10186000e08f58003a013e00006001005d00370043
:101870008900370036013700870037003401370010
:1018800006003700080037002d01370053003700ed
:101890003300370018013700210137005cf0a80041
:1018a00080002000450037000103210091407800ae
:1018b00000c8b30080cf500025013a0000ccb3002f
:1018c0005cf0b70033d0bf00e24f50000800320098
:1018d000e34f500013003200e14f50001e003a0069
:1018e00000122100d082880020012000180037005b
:1018f00032d0bf000080fb0000004000e11b21004f
:1019000060807800d0828800d082800020409000e3
:101910005ef0b700d0828000304090005ff0b700ea
:101920000b01370032d0bf00e24f50000a003e00ea
:1019300032d0bf000080fb0000004000011c2100ed
:1019400060807800d0828800d08280001080fb0008
:10195000f0828800fe0037005c70ef00fc0037006a
:101960005cf0a800ac24ef00ae24ef000000eb0018
:1019700001002100010178000019eb000019eb00c3
:101980000000e800ec0f5000fbff3a009424a80090
:101990004470ef009424a900800021008082880018
:1019a000318288004182880032d0bf0042f0b70007
:1019b0004250e20003003a0000012000008288004b
:1019c000e300370012002000210421001000200055
:1019d000685c070000022000f8ff370020042100a7
:1019e000c90037003870ef003970ef0030d0bf0009
:1019f0007f006000e10f50000b003200e20f50004a
:101a00000b0032000000e0001b003a005cf0a80070
:101a10003810a80010848000e10f500016003a0032
:101a20003830a800140037005cf0a800120037001e
:101a30005cf0a8003450e2000500350034d0bf004f
:101a40006f00600000004000a10421000400370086
:101a500034d0bf006f00600000004000010521008d
:101a600060807800104090000028a300020032003f
:101a700010c0b30038f0b7005c50e200b4003d0085
:101a800080032100d08288005c10a80020c0b30031
:101a90005ef0b700ae00370032d0bf00e14f50001b
:101aa0000b003a0030d0bf007f40600008003a00d1
:101ab0005cf0a80031d0bf00e34f500003003a00b3
:101ac0001000200010848800010037008230ef00f1
:101ad0003250e2009e003a0030d0bf007f406000ec
:101ae000e24f50009a003a0034d0bf006f406000cf
:101af0009700320034d0bf006f006000e20f50004a
:101b000093003c000182800000022000808f500082
:101b10008f003a005cf0a8003450e2000a00350063
:101b200034d0bf006f00600000004000a10421001d
:101b300060807800f0bf9f0034d0bf006f0060006d
:101b4000210721000900370034d0bf006f0060007a
:101b5000000040000105210060807800f0bf9f0078
:101b600034d0bf006f006000e106210060c478003f
:101b70000808a30004003a006ff997000224a100ae
:101b8000e2ff9f00030037006ff897000024a000d9
:101b9000e0ff9f003450e2000500350034d0bf0064
:101ba0006f00600000004000a10421000400370025
:101bb00034d0bf006f00600000004000010521002c
:101bc0007fb9970002b0780031d0bf00e34f5000da
:101bd00014003a007fb897001000e0000b003d00b1
:101be0003450e2000400350034d0bf006f006000c4
:101bf000210721000300370034d0bf006f006000d0
:101c0000e1062100010040001014a0007fb89700f9
:101c10009040900042c8b30082c07000114098000c
:101c20004b0037008f84e9006ff897000024a20072
:101c3000e0ff9f00ffb89700114090001100e00006
:101c40000b003d000074a10090409800ffb8970081
:101c5000114090000064a0009040980022002000f5
:101c6000ffb8970050002000c25b07000200370059
:101c70000064a000904098001924a2000818a30056
:101c800006003a007fb9970000402800120060006b
:101c900001002800810f500013003a003450e20088
:101ca0000400350034d0bf006f0060002107210020
:101cb0000300370034d0bf006f006000e106210050
:101cc000010040001014a100ffb8970011409000df
:101cd000b043b2009040980022002000ffb8970067
:101ce000500020001900370012409000b043b200ad
:101cf000104198001600370034d0bf000080fb0070
:101d00004104210001004000d08288005c10a8003e
:101d100010c0b3005ef0b7005cf0a8000c00370004
:101d20005cf0a80034d0bf000080fb00410421001b
:101d3000220321001241780002f0780004003700ed
:101d40000001eb008000eb0020002000895b070011
:101d50000001eb008000eb0030002000855b0700f5
:101d600094a4a9005c50e200130035006250e20028
:101d700008003d0020c0b30058f0b7007e10e2001c
:101d800001003a006b4807007a30ef007830ef002e
:101d9000d000370081c0b300408280000148780045
:101da000418280000003210090009800c0c8b30069
:101db00090409800a40037003050e20006003d003b
:101dc00010c0b30058f0b7007c10e2000c003a00dd
:101dd000584807000a00370020c0b30058f0b70089
:101de00081c0b300408280000148780041828000b9
:101df000000321009000980040c8b3009040980074
:101e00007a30ef007830ef007610e200b1003a004f
:101e10005e00370058d0bf00e24f50005d003a002e
:101e20001242780063d0bf000080fb004106210011
:101e300091407800c808dd00808070000480fb00bd
:101e4000810f50000400360063d0bf00410621001e
:101e500091407800004278003106210091407800de
:101e60008180fb0064d0bf004800dd0001007000ed
:101e70008480fb0001005000310621009140780071
:101e800063f0b7004800de00410621009140780071
:101e900064f0b7008503210010003700010621001f
:101ea000914078008180fb0061d0bf004800dd00d8
:101eb000010070008280fb0061d87a0001062100d9
:101ec0009140780060f0b7004800de001106210064
:101ed0009140780061f0b7008301e8000341780089
:101ee00084cf5100edff390042828000310621008d
:101ef000914078008180fb0064d0bf004800dd0085
:101f0000010070000a00320080c0b3000049780070
:101f10004182800080032100900098003082800080
:101f2000104090000068a3004e0032004f003700c0
:101f300080c0b30000497800418280000003210086
:101f40009000980040c8b3009040980051062100ce
:101f5000914078008180fb0066d0bf004800dd0022
:101f60000100700007003200510621009140780006
:101f70008180fb0066d0bf004800dd0001007000da
:101f80000000010062f0a9009fff3700964707009c
:101f9000500037008001fd0058f0b7008001fd00bf
:101fa0008010e20008003a0081c0b3004082800047
:101fb00001487800418280000003210090009800d1
:101fc000c0c8b3002a0037000384880041003700ee
:101fd0006cd0bf00b00fb200e80f50003d003a00d7
:101fe00080828000104090004600de0061046000a6
:101ff0005050aa0000828000e80f500008003a000c
:1020000032d0bf000080fb00b02488000001200017
:102010009604e20001003a0040002000008288009f
:1020200058d0bf00e14f500013003a008003210058
:1020300081828000900098009047070056d0bf0032
:10204000e24f500004003a0041c8b3008082800093
:10205000114098001f003700818280000804e000d2
:1020600002003a0080ccb3000100370080c8b30002
:1020700090409800170037006250e2000f003d00ca
:1020800051062100914078008180fb0066d0bf009e
:102090004800dd00010070000700320051062100f9
:1020a000914078008180fb0066d0bf004800dd00d1
:1020b000010070000000010062f0a9005870ef00fc
:1020c000040037000001eb00c106210020072000ba
:1020d000a85a07000a45e800e44f550084fd3a007d
:1020e0008ec0a9000080fa003400f9004f05780086
:1020f0004f04be004f03be004f02be004f01be00a2
:102100004f00be003600f900004006003600f8001f
:10211000809fbe00829fbe00849fbe00869fbe003f
:102120003400f80000002000a00188000400fa003c
:102130008620a900e0f28000e10f500003003a0081
:1021400001108000f0f28000014878009320200008
:10215000934178008381fb00d2f28000c719de0032
:102160008f80e9000000eb00c4f280000400010051
:1021700080007800e0bf9f00e40f5000190032009b
:1021800006003c00e20f50001000320013003c003b
:10219000e10f50001c003a0008003700e60f500025
:1021a0001500320011003500e70f50001400320016
:1021b000e80f500014003a00190037007fb897006c
:1021c000f0f288000662a800140037007fb897007c
:1021d0001080fb0010108800100037000622a800b5
:1021e0000e00370006a2a9000100370006a2a800d1
:1021f0000682a800090037000642a8000700370041
:10220000583eef0005003700e481570042a020004f
:10221000f10f2000405c2a00575c0700e1f28800c3
:102220000080fa003400f9004f03be004f02be00e8
:102230004f01be004f00be003600f900004006000e
:102240003600f800809fbe00829fbe00849fbe00c3
:10225000869fbe003400f80000002000a001880026
:102260000400fa008a40a90020f38000e10f50002a
:1022700003003a008110800030f3800001487800ac
:1022800093212000934178008381fb0012f38000aa
:10229000c719de008f80e9001000200004f38000e1
:1022a0000400010080007800e0bf9f00e40f5000b0
:1022b0001900320006003c00e20f5000100032000e
:1022c00013003c00e10f50001c003a0008003700ea
:1022d000e60f50001500320011003500e70f5000e6
:1022e00014003200e80f500014003a0019003700c3
:1022f0007fb8970030f388001662a80014003700fa
:102300007fb897001080fb00901088001000370005
:102310001622a8000e00370016a2a90001003700ff
:1023200016a2a8001682a800090037001642a800cd
:1023300007003700603eef0005003700e4815700da
:1023400042a02000e1132000405c2a000a5c070044
:1023500021f388000080fa003400f9004f03be002a
:102360004f02be004f01be004f00be003600f90014
:10237000004006003600f800809fbe00829fbe002d
:10238000849fbe00869fbe003400f800000020003d
:10239000a00188000400fa008ea0a90060f380006c
:1023a000e10f500003003a008113800070f38000b9
:1023b0000148780093272000934178008381fb0037
:1023c00052f38000c719de008f80e9002000200052
:1023d00044f380000400010080007800e0bf9f000b
:1023e000e40f50001900320006003c00e20f5000dc
:1023f0001000320013003c00e10f50001c003a00b6
:1024000008003700e60f50001500320011003500bb
:10241000e70f500014003200e80f500014003a009b
:10242000190037007fb8970070f388007662a80023
:10243000140037007fb897001080fb0090138800cd
:10244000100037007622a8000e00370076a2a900ff
:102450000100370076a2a8007682a80009003700a4
:102460007642a80007003700683eef0005003700fd
:10247000e481570042a02000d1172000405c2a00d0
:10248000bd5b070061f388000080fa003400f900aa
:102490004f03be004f02be004f01be004f00be0002
:0824a0003600f90000400600bf
:020000040000fa
:020000040002f8
:04aff40000600000f9
:020000040000fa
:020000040002f8
:04aff8004d130000f5
:020000040000fa
:020000040002f8
:04affc00693f0000a9
:020000040000fa
:10000800c4c90000c4c90000c4c90000c4c90000b4
:10001800c4c90000c4c90000c4c90000c4c90000a4
:10002800c4c90000c4c90000c4c900009e0900007a
:10003800c4c90000c4c90000c4c90000c409000044
:10004800ea090000c4c90000c4c90000c4c900000e
:10005800c4c90000869b0000c4c90000c4c90000d0
:10006800c4c9000086100000c4c90000ba07000017
:1000780026090000c4c90000c4c90000e007000048
:10008800c4c90000c4c90000c4c900001e0a000099
:10009800440a000066090000c4c90000c4c9000081
:1000a800c4c90000c4c90000c4c90000c4c9000014
:1000b800c4c90000c4c90000c4c90000c4c9000004
:1000c800c4c90000c4c90000c4c90000c4c90000f4
:1000d800c4c90000c4c90000c4c90000c4c90000e4
:1000e800c4c90000c4c9000020110000c4c9000030
:1000f800c4c9000094070000c4c90000c4c90000b6
:10010800c4c90000c4c90000c4c90000c4c90000b3
:10011800c4c90000c4c90000c4c90000c4c90000a3
:10012800c4c90000c4c90000c4c90000c4c9000093
:10013800c4c90000c4c90000c4c90000c4c9000083
:1001480080070000c4c90000c4c90000c4c9000079
:10015800c4c90000c4c90000c4c90000c4c9000063
:10016800c4c90000c4c90000c4c90000c4c9000053
:10017800c4c90000ba110000780a0000c4c9000010
:10018800c4c90000c4c90000c4c90000c4c9000033
:10019800c4c9000058080000c4c90000c4c9000050
:1001a800c4c90000c4c90000c4c90000c4c9000013
:1001b800c4c90000c4c90000c4c90000c4c9000003
:1001c800c4c90000c4c90000c4c90000c4c90000f3
:1001d800c4c90000c4c90000c4c90000c4c90000e3
:1001e800c4c90000c4c90000c4c90000c4c90000d3
:0801f800c4c90000c4c90000e5
:020000040000fa
:10020800c4c90000c4c90000c4c90000c4c90000b2
:10021800c4c90000c4c90000c4c90000c4c90000a2
:10022800c4c90000c4c90000c4c900009e09000078
:10023800c4c90000c4c90000c4c90000c409000042
:10024800ea090000c4c90000c4c90000c4c900000c
:10025800c4c90000869b0000c4c90000c4c90000ce
:10026800c4c9000086100000c4c90000ba07000015
:1002780026090000c4c90000c4c90000e007000046
:10028800c4c90000c4c90000c4c900001e0a000097
:10029800440a000066090000c4c90000c4c900007f
:1002a800c4c90000c4c90000c4c90000c4c9000012
:1002b800c4c90000c4c90000c4c90000c4c9000002
:1002c800c4c90000c4c90000c4c90000c4c90000f2
:1002d800c4c90000c4c90000c4c90000c4c90000e2
:1002e800c4c90000c4c9000020110000c4c900002e
:1002f800c4c9000094070000c4c90000c4c90000b4
:10030800c4c90000c4c90000c4c90000c4c90000b1
:10031800c4c90000c4c90000c4c90000c4c90000a1
:10032800c4c90000c4c90000c4c90000c4c9000091
:10033800c4c90000c4c90000c4c90000c4c9000081
:1003480080070000c4c90000c4c90000c4c9000077
:10035800c4c90000c4c90000c4c90000c4c9000061
:10036800c4c90000c4c90000c4c90000c4c9000051
:10037800c4c90000ba110000780a0000c4c900000e
:10038800c4c90000c4c90000c4c90000c4c9000031
:10039800c4c9000058080000c4c90000c4c900004e
:1003a800c4c90000c4c90000c4c90000c4c9000011
:1003b800c4c90000c4c90000c4c90000c4c9000001
:1003c800c4c90000c4c90000c4c90000c4c90000f1
:1003d800c4c90000c4c90000c4c90000c4c90000e1
:1003e800c4c90000c4c90000c4c90000c4c90000d1
:0803f800c4c90000c4c90000e3
:020000040000fa
:1024a8006d610000746800002e720000616e00000b
:1024b80064000000666900006c6c00002061000088
:1024c80072720000617900002077000069740000d2
:1024d80068200000726100006e6400006f6d0000eb
:1024e80020760000616c0000756500007300000034
:1024f800646500007374000000000000549200003e
:102508005e920000ffff00007c92000000000000c7
:10251800000000006d610000746800002e6e00006d
:102528007a7300006571000000770000726900008e
:1025380074650000207400006f20000064650000ce
:10254800737400002074000068650000206d0000ae
:1025580069640000646c000065200000696e00007a
:1025680064650000782000006f6600002074000099
:1025780068650000206c000061720000676500005b
:102588007374000020730000657100007565000019
:102598006e630000652000006f660000206e00007a
:1025a8006f6e00002d7a0000657200006f20000039
:1025b800656c0000656d0000656e000074730000b6
:1025c80020660000726f00006d200000737200002a
:1025d800632c0000202d00003120000069660000f7
:1025e800206e00006f740000206600006f75000008
:1025f8006e640000206f0000722000006966000011
:10260800207300006d6100006c6c000065720000b2
:1026180020740000686100006e2000006d690000f1
:102628006e4c0000656e00006774000068000000d2
:1026380073720000630000006d6900006e4c0000ba
:10264800656e000067740000680000008e9200004c
:1026580099920000010000007c920000ffff00003a
:102668001c930000010000002093000000000000ff
:10267800000000006d610000746800002e73000007
:10268800717200007400000070650000726600003e
:102698006f7200006d730000206400006573000015
:1026a800742000003d200000737100007274000067
:1026b8002878000029200000656c0000656d000086
:1026c800656e00007420000062790000206500003b
:1026d8006c6500006d6500006e74000000780000f5
:1026e800000000003e93000048930000ffff000038
:1026f8007c920000ffff00007393000000000000c0
:10270800000000006d610000746800002e72000077
:102718006f74000032000000726f000074610000e6
:102728007465000073200000762000006f660000ca
:10273800206100006e6700006c65000020610000e9
:10274800207400006f2000006465000073740000ae
:102758000076000000610000000000008693000081
:1027680090930000020000007c920000020000002c
:10277800ad93000001000000af93000000000000ce
:10278800000000006d610000746800002e63000006
:102798006f7300000070000065720000666f000033
:1027a800726d0000732000006465000073740000ff
:1027b800203d0000206300006f73000028780000af
:1027c80029200000656c0000656d0000656e000042
:1027d8007420000062790000206500006c6500002c
:1027e8006d6500006e74000000000000c6930000d4
:1027f800cf930000ffff00007c920000ffff000065
:102808007393000000000000000000006d610000ec
:10281800746800002e730000696e000000700000ec
:1028280065720000666f0000726d00007320000082
:102838006465000073740000203d000020730000f0
:10284800696e00002878000029200000656c0000ef
:10285800656d0000656e000074200000627900005c
:10286800206500006c6500006d6500006e74000056
:10287800000000000a94000013940000ffff00000d
:102888007c920000ffff000073930000000000002e
:10289800000000006d610000746800002e610000f7
:1028a800746100006e320000007000006572000064
:1028b800666f0000726d0000732000006465000000
:1028c80073740000203d0000206100007461000066
:1028d8006e320000287900002c78000029200000c2
:1028e800656c0000656d0000656e000074200000d6
:1028f80062790000206500006c6500006d650000cd
:102908006e74000000790000000000004e94000082
:1029180059940000ffff00007c920000ffff0000b8
:1029280087940000ffff0000739300000000000080
:10293800000000006d610000746800002e6d00004a
:10294800756c000064690000760000007065000086
:10295800726600006f7200006d7300002064000052
:1029680065730000742000003d200000286100000d
:102978002a620000292f000063200000696e000011
:1029880020330000322000006269000074730000e8
:10299800206500006c6500006d6500006e74000025
:1029a8002062000079200000656c0000656d000061
:1029b800656e000074000000620000006300000003
:1029c8009e940000aa940000ffff00007c92000083
:1029d800ffff0000af930000ffff0000e09400003d
:1029e800ffff0000e294000000000000000000006b
:1029f8006d610000746800002e73000074610000af
:102a08007400000070650000726600006f720000bc
:102a18006d73000020730000746100007469000089
:102a28007374000069630000732000006f6e00007b
:102a38002073000072630000006d0000696e0000e2
:102a4800006d000061780000006d00006561000005
:102a58006e000000fc94000006950000ffff0000d7
:102a68001c930000010000002195000001000000f7
:102a780025950000010000002995000000000000d5
:102a8800000000006d610000746800002e64000002
:102a98006f74000000770000726900007465000020
:102aa800732000007468000065200000646f000057
:102ab80074200000707200006f64000075630000ed
:102ac800742000006f66000020730000726300002d
:102ad80031200000616e0000642000007372000065
:102ae80063320000207400006f200000646500005d
:102af800737400002c2000006166000074650000fb
:102b08007220000061200000736800006966000000
:102b1800740000007372000063310000007300004d
:102b280072630000320000007368000069660000ec
:102b380074000000469500004f9500000100000059
:102b48007c920000ffff00008e950000ffff000050
:102b58009395000001000000989500000000000017
:102b6800000000006d610000746800002e6d000018
:102b78006178000000770000726900007465000049
:102b88007320000074680000652000006d6100007b
:102b9800786900006d7500006d2000006f66000008
:102ba800207300007263000031200000616e000095
:102bb800642000007372000063320000207400007b
:102bc8006f20000064650000737400002c20000072
:102bd800656c0000656d0000656e000074200000e3
:102be80062790000206500006c6500006d650000da
:102bf8006e74000000000000b6950000bf9500004c
:102c0800ffff00007c920000ffff00008e9500008f
:102c1800ffff000093950000000000000000000086
:102c28006d610000746800002e6d0000696e000080
:102c380000770000726900007465000073200000ce
:102c480074680000652000006d6900006e6900006e
:102c58006d7500006d2000006f6600002073000095
:102c68007263000031200000616e000064200000e3
:102c78007372000063320000207400006f200000af
:102c880064650000737400002c200000656c00006f
:102c9800656d0000656e0000742000006279000018
:102ca800206500006c6500006d6500006e74000012
:102cb80000000000149600001d960000ffff0000b1
:102cc8007c920000ffff00008e950000ffff0000cf
:102cd8009395000000000000000000006d610000f6
:102ce800746800002e64000069760000006400002b
:102cf80069760000696400006573000020730000b5
:102d08007263000031200000627900002073000027
:102d18007263000032200000746f0000206400001d
:102d280065730000742c0000206500006c650000cd
:102d38006d6500006e7400002062000079200000bc
:102d4800656c0000656d0000656e00007400000091
:102d5800729600007b960000ffff00007c92000046
:102d6800ffff00008e950000ffff00009395000014
:102d780000000000000000006d61000074680000a1
:102d88002e6d0000756c0000006d0000756c000071
:102d980074690000706c0000696500007320000011
:102da8007372000063310000206100006e6400004f
:102db800207300007263000032200000746f00006e
:102dc8002064000065730000742c0000206500007a
:102dd8006c6500006d6500006e74000020620000e4
:102de80079200000656c0000656d0000656e0000cc
:102df80074000000c0960000c9960000ffff0000a4
:102e08007c920000ffff00008e950000ffff00008d
:102e18009395000000000000000000006d610000b4
:102e2800746800002e7300007562000000730000d3
:102e38007562000073740000726100006374000022
:102e480073200000737200006332000020660000e7
:102e5800726f00006d200000737200006331000083
:102e6800207400006f200000646500007374000087
:102e78002c200000656c0000656d0000656e000088
:102e88007420000062790000206500006c65000075
:102e98006d6500006e7400000000000012970000cd
:102ea8001b970000ffff00007c920000ffff00005e
:102eb8008e950000ffff00009395000000000000c1
:102ec800000000006d610000746800002e610000c1
:102ed8006464000000610000646400007320000066
:102ee8007372000063310000206100006e6400000e
:102ef800207300007263000032200000746f00002d
:102f08002064000065730000742c00002065000038
:102f18006c6500006d6500006e74000020620000a2
:102f280079200000656c0000656d0000656e00008a
:102f380074000000669700006f970000ffff000014
:102f48007c920000ffff00008e950000ffff00004c
:102f58009395000000000000000000006d61000073
:102f6800746800002e610000646400007363000050
:102f7800616c000061720000006100006464000080
:102f880020730000636100006c6100007220000083
:102f9800746f000020650000616300006820000075
:102fa800656c0000656d0000656e0000742000000f
:102fb8006f6600002073000072630000206100004b
:102fc8006e64000020730000746f000072650000da
:102fd8002072000065730000756c0000742000000a
:102fe800746f000020640000657300007400000026
:102ff80073630000616c0000617200000000000053
:10300800b2970000c1970000ffff00007c9200000b
:10301800ffff00001c93000001000000fc97000067
:1030280000000000000000006d61000074680000ee
:103038002e660000696c00006c00000066690000e4
:103048006c6c00007320000064650000737400005d
:10305800207700006974000068200000636f00009a
:103068006e730000746100006e740000207600002a
:10307800616c00007565000000760000616c00005e
:1030880075650000000000001898000022980000f4
:10309800ffff00007c920000010000004198000042
:1030a80000000000000000006d610000746800006e
:1030b8002e6300006f70000079000000636f00004d
:1030c80070690000657300002073000072630000df
:1030d800207400006f200000646500007374000015
:1030e800206500006c6500006d6500006e740000ce
:1030f8002062000079200000656c0000656d00000a
:10310800656e000074000000589800006298000086
:10311800ffff00007c920000ffff00001c930000ee
:103128000000000000000000000000009301000003
:1031380024030000b704000048060000da07000076
:103148006b090000fc0a00008c0c00001c0e00003b
:10315800ab0f00003b110000c8120000561400001d
:10316800e31500006e170000f9180000831a00002c
:103178000c1c0000941d00001a1f0000a020000075
:1031880024220000a723000029250000a82600000b
:1031980027280000a4290000202b0000992c0000fb
:1031a800122e0000872f0000fc3000006f32000054
:1031b800df3300004e350000ba3600002538000025
:1031c8008d390000f33a0000573c0000b93d00007b
:1031d800173f000074400000ce4100002643000065
:1031e8007b440000cd4500001d4700006a480000f0
:1031f800b4490000fc4a0000404c0000824d000029
:10320800c04e0000fc4f000034510000695200001d
:103218009b530000ca540000f65500001e570000da
:103228004358000064590000835a00009d5b000069
:10323800b45c0000c85d0000d75e0000e45f0000d9
:10324800ec600000f1610000f2620000ef63000032
:10325800e9640000de650000d0660000bd6700007c
:10326800a76800008c6900006e6a00004b6b0000c4
:10327800246c0000f96c0000ca6d0000976e000015
:103288005f6f000023700000e37000009e71000073
:103298005572000008730000b673000060740000e7
:1032a80005750000a575000042760000d97600007b
:1032b8006c770000fb770000847800000979000033
:1032c8008a790000067a00007d7a0000ef7a000013
:1032d8005d7b0000c67b00002a7c0000897c000022
:1032e800e47c0000397d00008a7d0000d77d000065
:1032f8001d7e0000607e00009d7e0000d67e0000de
:10330800097f0000397f0000627f0000877f00008e
:10331800a77f0000c27f0000d87f0000ea7f00007e
:10332800f67f0000fe7f0000ff7f00008c02000097
:10333800df0200003003000080030000d10300001a
:103348002204000073040000c204000014050000f9
:10335800b305000054060000f10600008f070000c6
:103368002d080000ca08000063090000fc090000dd
:10337800340b00005c0c0000820d0000a40e00005d
:10338800bd0f0000d3100000e2110000e71200009a
:10339800ef140000cc16000092180000401a00003c
:1033a800d61b0000531d0000b51e00000b200000b6
:1033b800792200008d2400006f26000014280000e8
:1033c80090290000e02a0000112c0000252d0000a3
:1033d800052f000089300000d3310000ec320000d6
:1033e800dd330000ae340000673500000d36000004
:1033f80020370000fb370000b23800004a390000cf
:10340800cc3900003b3a00009b3a0000f33a000038
:10341800833b0000f43b0000513c00009f3c00004f
:10342800e13c00001a3d00004b3d0000783d0000e3
:10343800c03d0000f93d0000283e00004f3e00005e
:10344800703e00008d3e0000a53e0000bc3e00001e
:10345800e03e0000fd3e0000143f0000283f000051
:10346800383f0000473f0000533f00005e3f000028
:10347800703f00007f3f00008a3f0000943f00003b
:103488009c3f0000a43f0000aa3f0000af3f00009f
:10349800b83f0000c03f0000c53f0000cb3f000020
:1034a800ce3f0000d23f0000d53f0000d83f0000cb
:1034b800dc3f0000e03f0000e33f0000e53f000084
:1034c800e83f0000e93f0000eb3f0000ec3f000050
:1034d800ee3f0000f13f0000f13f0000f33f000025
:1034e800f43f0000f53f0000f53f0000f73f000003
:1034f800f73f0000f93f0000f83f0000fa3f0000e6
:10350800fa3f0000fa3f0000fb3f0000fb3f0000cd
:10351800fc3f0000fc3f0000fc3f0000fe3f0000b5
:10352800fd3f0000fd3f0000fd3f0000fe3f0000a2
:10353800fe3f0000fe3f0000fe3f0000fe3f00008f
:10354800fe3f000000400000ff3f0000ff3f00007a
:10355800ff3f0000ff3f0000ff3f0000ff3f00006b
:10356800ff3f0000ff3f0000ff3f0000ff3f00005b
:10357800ff3f000000400000004000000040000045
:103588000040000000400000004000000040000033
:103598000040000000400000004000000040000023
:1035a8000040000000400000004000000040000013
:1035b80074680000796d0000696f00002d490000f3
:1035c800490000005f6900006400000065760000a3
:1035d800656e0000742e0000736f000075720000a5
:1035e8006365000000650000766500006e740000e9
:1035f8002e61000072670000730000005f66000023
:103608007776000065720000736900006f6e000035
:10361800005f0000707200006f64000075630000b6
:1036280074490000640000006275000074740000b2
:103638006f6e0000732e00005f720000617700005b
:103648000062000075740000746f00006e2e0000a8
:1036580062610000636b0000776100007264000023
:103668000062000075740000746f00006e2e000088
:103678006c6500006674000000620000757400004c
:10368800746f00006e2e0000636500006e74000009
:10369800657200000062000075740000746f00001d
:1036a8006e2e0000666f00007277000061720000e5
:1036b8006400000062750000747400006f6e000002
:1036c8002e72000069670000687400000062000044
:1036d80075740000746f00006e7300002e5f0000a8
:1036e8006d650000616e00000062000075740000e6
:1036f800746f00006e7300002e5f00006e6f000094
:103708006973000065000000707200006f780000a7
:103718002e6800006f720000697a00006f6e00006a
:10372800746100006c000000707200006f78000087
:103738002e670000726f0000756e0000642e000096
:10374800616d000062690000616e00007400000095
:10375800707200006f7800002e670000726f000022
:10376800756e0000642e000072650000666c000033
:10377800656300007465000064000000707200005a
:103788006f7800002e670000726f0000756e0000f1
:10379800642e0000646500006c7400006100000085
:1037a8006d6f0000746f0000722e00006c650000e1
:1037b800667400002e7400006172000067650000e6
:1037c800740000006d6f0000746f0000722e00001e
:1037d8007269000067680000742e000074610000c0
:1037e8007267000065740000005f000076620000e8
:1037f80061740000006d00006f7400006f720000bb
:103808002e6c000065660000742e000073700000c6
:1038180065650000640000006d6f0000746f0000b3
:10382800722e00007269000067680000742e0000a4
:103838007370000065650000640000006d6f000093
:10384800746f0000722e00006c6500006674000042
:103858002e700000776d0000006d00006f7400008e
:103868006f7200002e720000696700006874000023
:103878002e700000776d0000006100006363000097
:1038880000740000656d0000706500007261000042
:103898007475000072650000007200006335000056
:1038a8002e610000646400007265000073730000fc
:1038b80000720000633500002e6300006f6d000089
:1038c8006d6100006e640000006d00006963000017
:1038d8002e6900006e740000656e000073690000b8
:1038e80074790000006d0000696300002e74000008
:1038f8006872000065730000686f00006c64000067
:10390800006d0000696300002e5f00006d65000017
:10391800616e000000740000696d000065720000af
:103928002e70000065720000696f000064000000de
:1039380061630000632e00005f7400006170000086
:1039480000000000dc9a000001000000e69a000078
:1039580001000000ea9a000020000000f79a000029
:1039680002000000029b0000010000000d9b000007
:1039780005000000189b000001000000259b0000c6
:1039880001000000359b000001000000419b000081
:10399800010000004f9b0000010000005e9b00003a
:1039a800050000006b9b000005000000799b0000eb
:1039b80007000000889b000002000000989b0000a0
:1039c80002000000ac9b000002000000c29b000047
:1039d80001000000d49b000001000000e69b0000ed
:1039e80002000000f99b000001000000ff9b00009e
:1039f80001000000109c000001000000229c000053
:103a080001000000319c000003000000419c000000
:103a180001000000459c000001000000519c0000ce
:103a2800010000005d9c000001000000699c00008e
:103a380001000000779c000001000000859c000048
:103a4800020000008f9c0000010000009c9c000008
:103a58000000000000000000de000000ad000000d3
:103a6800ca000000fe000000be000000ef000000d9
:103a780004000000020000005f730000797300007a
:103a8800746500006d2e00007365000074740000fa
:103a9800696e0000677300002e6600006c6100000c
:103aa8007368000000570000726900007465000028
:103ab8002074000068650000207300006574000031
:103ac800746900006e67000073200000696e0000d2
:103ad800746f0000206600006c61000073680000cd
:103ae800005f00007379000073740000656d0000ca
:103af8002e73000065740000746900006e67000092
:103b0800732e0000777200006974000065000000e1
:103b180057720000697400006520000061200000f1
:103b28007365000074740000696e0000670000008f
:103b38006164000064720000657300007300000097
:103b4800766100006c750000650000005f7300007e
:103b580079730000746500006d2e00007365000025
:103b680074740000696e0000677300002e72000014
:103b78006561000064000000526500006164000097
:103b88002061000020730000657400007469000063
:103b98006e670000005f0000737900007374000016
:103ba800656d00002e720000656200006f6f0000f6
:103bb8007400000052650000626f00006f7400001e
:103bc8002074000068650000206d00006963000033
:103bd800726f0000636f00006e740000726f000067
:103be8006c6c000065720000004200006163000018
:103bf8006b770000617200006420000062750000ad
:103c0800747400006f6e000020730000746100007f
:103c1800747500007320000063680000616e000086
:103c280067650000640000004c65000066740000d1
:103c38002062000075740000746f00006e200000a0
:103c48007374000061740000757300002063000045
:103c5800686100006e6700006564000000430000b2
:103c6800656e000074650000722000006275000037
:103c7800747400006f6e000020730000746100000f
:103c8800747500007320000063680000616e000016
:103c98006765000064000000466f0000727700004e
:103ca80061720000642000006275000074740000f6
:103cb8006f6e0000207300007461000074750000ce
:103cc8007320000063680000616e000067650000f3
:103cd800640000005269000067680000742000005a
:103ce80062750000747400006f6e0000207300009d
:103cf80074610000747500007320000063680000a0
:103d0800616e0000676500006400000062750000d5
:103d1800747400006f6e00007300000042750000ac
:103d2800747400006f6e000073200000766100005c
:103d38006c75000065730000207500007064000059
:103d4800617400006564000000700000726f00007c
:103d580078000000507200006f780000696d000064
:103d68006974000079200000766100006c7500001d
:103d78006573000020750000706400006174000025
:103d880065640000007400006170000000410000dc
:103d9800207400006170000020690000732000009a
:103da80064650000746500006374000065640000c9
:103db8000041000063630000656c0000657200004c
:103dc8006f6d0000657400006572000020760000c9
:103dd800616c0000756500007320000075700000bc
:103de8006461000074650000640000006d690000f3
:103df800630000004669000072650000642000004e
:103e080077680000656e0000206d0000696300009f
:103e1800726f0000706800006f6e0000652000007f
:103e2800696e0000746500006e730000697400001c
:103e3800792000006973000020610000626f0000b3
:103e48007665000020740000687200006573000049
:103e5800686f00006c640000007300006f7500005c
:103e68006e6400002e660000696e00006973000031
:103e78006865000064000000466900007265000083
:103e88006420000077680000656e00002074000060
:103e980068650000207000006c6100007962000015
:103ea800616300006b2000006f6600002061000065
:103eb800207500007365000072200000696e000024
:103ec80069740000696100007465000064200000e6
:103ed800736f0000756e00006420000069730000b5
:103ee80020660000696e00006973000068650000c4
:103ef80064000000546500006d70000065720000e9
:103f08006174000075720000652000007661000091
:103f18006c75000065200000757000006461000089
:103f28007465000064000000726300003500000042
:103f380052430000352000006d65000073730000d7
:103f4800616700006520000072650000636500007d
:103f58006976000065640000006d00006f74000061
:103f68006f720000004d00006f7400006f72000057
:103f780020740000696d0000657200000074000084
:103f8800696d00006572000030000000546900008f
:103f98006d650000722000003000000074690000a8
:103fa8006d6500007231000000540000696d00006a
:103fb800657200002031000000000000259b000011
:103fc800f99d0000359b0000189e0000419b0000f1
:103fd800339e00004f9b0000509e00005e9b000037
:103fe8006e9e00008a9e0000929e0000a99e00001e
:103ff800ae9e0000c79e0000cb9e0000419c0000c2
:10400800dd9e0000fa9e0000fe9e0000319f000029
:10401800409f0000459c00007e9f0000989f000084
:104028009c9f0000b19f0000b79f0000c39f000045
:10403800ca9f0000d29f0000d99f00000000000026
:104048000000000041640000647200006573000015
:10405800732000006f750000742000006f66000078
:104068002073000065740000746900006e6700002a
:1040780073000000536c00006565000070200000ac
:104088006d6f000064650000206e00006f74000012
:104098002073000075700000706f000072740000db
:1040a8006564000000450000727200006f72000035
:1040b8003a2000006d6900006e2000003d3d0000c0
:1040c80020300000784600004646000046460000c2
:1040d800464600004620000021000000457200000e
:1040e800726f0000723a0000205500006e610000f7
:1040f800626c000065200000746f000020660000fc
:104108006c61000073680000206200007974000090
:10411800656300006f64000065200000283100001e
:10412800292000002100000045720000726f000085
:10413800723a0000205500006e610000626c0000b9
:1041480065200000746f0000206600006c610000ac
:104158007368000020620000797400006563000045
:104168006f6400006520000028320000292000004c
:104178002100000045720000726f0000723a0000d2
:10418800205500006e610000626c00006520000090
:10419800746f0000206600006c6100007368000006
:1041a8002062000079740000656300006f640000fd
:1041b80065200000283300002920000021000000ad
:1041c800466c000061730000686900006e670000bb
:1041d800204f00004b000000736f0000756e000058
:1041e800642e00007761000076650000005300002f
:1041f80065740000207400006865000020700000ed
:10420800726900006d61000072790000207700007b
:1042180061760000652000006f66000020740000d1
:1042280068650000207400006f6e000065200000c3
:10423800676500006e65000072610000746f000021
:1042480072000000776100007665000000730000ce
:104258006f7500006e6400002e6600007265000035
:1042680071000000506c00006179000020660000b9
:104278007265000071750000656e000063790000ca
:10428800004800007a00000064730000006c000021
:1042980065640000732e0000746500006d700000f6
:1042a800657200006174000075720000650000000e
:1042b80053650000742000006e7400006320000045
:1042c8006c65000064000000726500006400000076
:1042d800626c000075650000006c000065640000f9
:1042e800732e0000736f0000756e000064000000fc
:1042f8005365000074200000736f0000756e0000a5
:10430800642000006c650000640000006c6500001b
:10431800640000006c650000647300002e720000e9
:104328006300000053650000742000007263000001
:10433800206c000065640000006c000065640000eb
:10434800732e0000707200006f7800002e76000057
:1043580000530000657400002076000065720000bc
:1043680074690000636100006c2000007072000036
:104378006f780000696d0000697400007920000002
:104388006c65000064730000006c00006564000048
:1043980020300000006c000065640000203100003f
:1043a800006c000065640000732e0000707200004d
:1043b8006f7800002e68000000530000657400004c
:1043c800206800006f720000697a00006f6e0000bc
:1043d800746100006c200000707200006f780000ab
:1043e800696d000069740000792000006c650000a8
:1043f80064730000006c0000656400002032000057
:10440800006c00006564000020330000006c0000b0
:104418006564000020340000006c00006564000042
:1044280020350000006c00006564000020360000a4
:10443800006c00006564000020370000006c00007c
:1044480065640000732e000062750000747400003b
:104458006f6e0000730000005365000074200000b8
:1044680062750000747400006f6e00007320000015
:104478006c65000064730000006c00006564000057
:10448800732e0000626f0000747400006f6d0000ee
:104498002e6c000065660000740000005365000083
:1044a800742000005247000042200000626f0000a4
:1044b800746f00006d2000006c65000066740000d9
:1044c800206c000065640000006700007265000051
:1044d800656e0000006c000065640000732e00002b
:1044e800626f0000747400006f6d00002e7200008f
:1044f80069670000687400000053000065740000dc
:104508002052000047420000206200006f74000043
:104518006f6d000020720000696700006874000079
:10452800206c000065640000006c000065640000f9
:10453800732e0000746f00007000000053650000c7
:10454800742000005247000042200000746f0000f1
:10455800702000006c650000640000006c650000bd
:10456800647300002e63000069720000636c000031
:1045780065000000536500007420000063690000b6
:1045880072630000756c0000617200002072000008
:10459800696e0000672000006c650000647300000d
:1045a800007300006f7500006e6400002e73000039
:1045b80079730000746500006d00000053740000fa
:1045c8006172000074200000706c000061790000c6
:1045d80062610000636b0000206f0000662000002d
:1045e8007379000073740000656d0000207300008b
:1045f8006f7500006e640000204e0000004e000041
:10460800007300006f7500006e6400002e720000d9
:10461800657000006c6100007900000053740000b0
:104628006172000074200000706c00006179000065
:1046380062610000636b0000206f000066200000cc
:10464800724e00002e7700006176000000730000b3
:104658006f7500006e6400002e7000006c61000031
:10466800790000005374000061720000742000009b
:10467800706c00006179000062610000636b0000eb
:10468800206f000066200000704e00002e770000aa
:1046980061760000007300006f7500006e64000012
:1046a8002e720000656300006f7200006400000055
:1046b80053740000617200007420000072650000ed
:1046c800636f000072640000696e000067200000dc
:1046d8006f660000207200004e2e00007761000017
:1046e800760000005f6c000065640000732e000017
:1046f800736500007400000053650000742000001a
:1047080074680000652000006c650000640000000b
:104718006272000069670000687400006e6500003e
:10472800737300000070000000000000000000002b
:104738000000000000000000000000000000000071
:1047480072000000000000000000000000000000ef
:1047580000000000000000000072000000000000df
:104768000000000000000000000000000000000041
:1047780000000000730000000000000000000000be
:1047880000000000000000000000000000450000dc
:10479800727200006f7200003a200000736100001e
:1047a8006d7000006c650000732000006d750000de
:1047b800737400002062000065200000696e00002c
:1047c800205b00002d310000323800002c31000041
:1047d800323700005d200000726100006e67000043
:1047e8006500000030110000070000007c15000083
:1047f80007000000c81900000700000000000000c2
:104808000000000030110000070000007c150000c7
:10481800070000000000000000000000c8190000a8
:1048280005000000be0a00000400000000000000af
:10483800000000009c27000002000000ab220000de
:10484800010000009d1c000002000000fb18000091
:10485800020000002d32000001000000322d00008f
:10486800010000004628000002000000e8260000c1
:1048780001000000bf22000002000000fb18000039
:1048880002000000ff32000001000000c620000006
:1048980001000000762f0000020000002c2e00000e
:1048a80001000000ce2c000001000000fd390000ce
:1048b800020000000000000000000000e40c0000fe
:1048c80007000000301100000d000000c8190000aa
:1048d8000700000000000000000000004c04000079
:1048e8000700000098080000070000000000000012
:1048f80000000000781e00000d00000000190000f4
:1049080007000000ec130000070000003011000051
:1049180007000000480d000007000000000000002c
:1049280000000000480d00000d00000030110000dc
:1049380007000000ec130000070000000019000049
:1049480007000000781e00000700000000000000bb
:1049580000000000733000002e7700006176000030
:1049680000730000322e000077610000760000001e
:10497800733300002e77000061760000007300009a
:10498800342e0000776100007600000073350000c7
:104998002e7700006176000000730000362e0000bc
:1049a8007761000076000000733700002e77000062
:1049b8006176000000000000809a0000904100002d
:1049c8008e4100008f8000004545000045490000e9
:1049d800494900008e8f000090920000924f00001d
:1049e800994f000055550000599900009a9b000006
:1049f8009c9d00009e9f0000414900004f5500000b
:104a0800a5a50000a6a70000a8a90000aaab000061
:104a1800ac210000aeaf0000b0b10000b2b300009e
:104a2800b4b50000b6b70000b8b90000babb0000c2
:104a3800bcbd0000bebf0000c0c10000c2c3000072
:104a4800c4c50000c6c70000c8c90000cacb000022
:104a5800cccd0000cecf0000d0d10000d2d30000d2
:104a6800d4d50000d6d70000d8d90000dadb000082
:104a7800dcdd0000dedf0000e0e10000e2e3000032
:104a8800e4e50000e6e70000e8e90000eaeb0000e2
:104a9800eced0000eeef0000f0f10000f2f3000092
:104aa800f4f50000f6f70000f8f90000fafb000042
:104ab800fcfd0000feff0000222a00002b2c000055
:104ac8003a3b00003c3d00003e3f00005b5d0000bb
:104ad8007c7f0000000000005a3a00005c6d000076
:104ae8006f6c00006f6c0000655c000069320000ac
:104af800635c00002f690000326300005f700000f3
:104b080072690000762e0000680000005a3a000022
:104b18005c6d00006f6c00006f6c0000655c00004d
:104b280069320000635c00006d610000737400006e
:104b3800657200005f700000726f0000746f000003
:104b4800636f00006c2e0000630000005a3a0000fa
:104b58005c6d00006f6c00006f6c0000655c00000d
:104b680069320000635c00002f69000032630000b6
:104b78005f70000072690000762e00006800000077
:104b88005a3a00005c6d00006f6c00006f6c00000a
:104b9800655c000069320000635c00006d61000024
:104ba80073740000657200002e63000000000000ae
:104bb80052490000464600000000000000000000c6
:104bc8005741000056450000666d00007420000043
:104bd80010000000000000000100000001000000bb
:104be800841e000000000000841e00000000000079
:104bf800010000000800000064610000746100000a
:104c080000000000000000005a3a00005c6d00003f
:104c18006f6c00006f6c0000655c00007469000038
:104c28006d650000725c0000746900006d6500002d
:104c3800722e000063000000010000000000000068
:104c48000800000000000000400000000000000014
:104c580000010000000000005f4c00004f4700000a
:104c6800445500004d5000002e2300004021000054
:104c7800005f000054450000535400004d4f0000f1
:104c8800442e00002340000021000000564d000083
:104c9800434f0000444500002e410000424f0000f1
:104ca800000000005a3a00005c6d00006f6c0000c4
:104cb8006f6c0000655c000069320000635c0000f6
:104cc8002f690000326300005f7000007269000005
:104cd800762e0000680000005a3a00005c6d000063
:104ce8006f6c00006f6c0000655c0000666c000073
:104cf80061730000685c0000666c0000617300006e
:104d0800682e0000630000005f7000006f770000ed
:104d1800657200006f66000066000000506f0000ba
:104d280077650000726f00006666000000000000f2
:104d38006d6d00006137000036360000302e00002f
:104d480063000000000000000000000000000000f8
:044d58000000000057
:020000040000fa
:1050000000000000000000000000000000000000a0
:105010000000000000000000000000000000000090
:105020000000000000000000000000000000000080
:105030000000000000000000000000000000000070
:020000040000fa
:108000008001eb000200370061f079008301e80095
:10801000828f5100fcff3a00000006008001eb0057
:108020000200370001f079008301e800828f5100df
:10803000fcff3a0000000600889fbe008a9fbe0039
:108040008c9fbe008e1f7800000478000206be00e0
:1080500050159000e0159000820f5500838f5d0051
:1080600034003200404090000004e0002100320063
:10807000ee022000080747001840900014c0b3002b
:108080000a01be008e007800752407000000e000a1
:1080900026003a004044980078089000881090002c
:1080a00058099000e80990000000410081804900d3
:1080b000800f5500818f5d000e003100b8449000a4
:1080c0000a00370058089000e80890000a054000b0
:1080d0008b8548001840900014c0b3000a01be0010
:1080e0008e0078005e2407008944e900e1cf540047
:1080f000f4ff3e00e00f5600e08f5e000d003200fe
:10810000e1022000888040001840900014c0b300b5
:108110000c01be00162407000000e00003003a0036
:108120005c1498006d1498000300370010002000c4
:10813000010037000000eb004f0778004f06be003b
:108140004f05be004f04be0000000600881f7800e7
:108150000004780062025100e0825900c0089000db
:108160003008900062005000e08058006011b800b4
:10817000800f5200818f5a00090031002841900081
:108180000281fb00030020000400be00a6e10700fe
:1081900038119000c8119000000141008181490010
:1081a0000200be004f04780000000600889fbe0059
:1081b0008a9fbe00000578000204be00e10f510056
:1081c000e08f590079003600c00890003008900018
:1081d000800f5100818f5900740031001a407800df
:1081e000e24f50002e003200e34f500043003200b7
:1081f000e14f500070003a00820478000200d10084
:10820000000441004941de007a0890008a10900085
:1082100002014000e08148000a00780086ff070064
:108220000000e00064003a0008007800f01fb2008f
:10823000e002b0000a0040009085fb000804e8005e
:108240004941de007a0890008a1090000201400047
:10825000e08148000a00780077ff07000000e00096
:1082600055003a00f81fb200e0022000080040006c
:108270000a0040001080fb004800dd00808075008f
:108280000908a300020032004408de0002003700a3
:10829000f0ff20000080600001002000480037004f
:1082a0004818dd004811de0002017000c819de0028
:1082b0007a0890008a1090000201400083814800f3
:1082c0000a0078005cff07000000e0003a003a0076
:1082d000e20220000a0141000800440089804c00ad
:1082e000f01fb20000014100124090004800dd0084
:1082f0009280fb0001007000e7ff37004918dd00a5
:108300004711de0002017000c719de007a089000f4
:108310008a10900002014000838148000a00780022
:1083200045ff07000000e00023003a00e4022000bf
:108330000a0242004248dd00ce40de0081007000ab
:108340004240dd00f01fb2000002420034419000c4
:10835000c811dd0002002000244090008080fb0056
:108360000000200000017100818171001440900024
:108370004800dd00010020000001710081817100d2
:10838000144078000080fb00010020000001710013
:1083900081817100f0ff20000300600080037800fd
:1083a000020378000600be00050037001000200020
:1083b00001002000020037000080eb008080eb000d
:1083c0004f05be004f04be0000000600e4874700d2
:1083d000889fbe008a9fbe008c9fbe008e1f7800c3
:1083e000000578000204be000406be00e10f510043
:1083f000e08f59009f003600c008900030089000c0
:10840000800f5100818f59009a0031001a40780086
:10841000e24f500044003200e34f50005900320058
:108420002b002000e14f50008f003a000200d100e5
:10843000800441004949de007a0890008a109000cb
:1084400002014000e08148000a007800fafe0700bf
:10845000800578000000e00083003a00ee02200072
:108460000a07470009007800f01fb200000147002a
:10847000610064000100200080bf9f000000e00058
:108480000500320012427800ef4062004460dd00d7
:1084900001407000010037000c407800004978006e
:1084a0000904e80010c0b300404598004941de00cf
:1084b0007a0890008a10900002014000e081480094
:1084c0000a007800dcfe0700800578000000e0006c
:1084d00065003a00f81fb200880147000fb8970006
:1084e0000000e000050032004c69dd004460de0061
:1084f00000007100c468de000800370002cfb3003e
:1085000013416100486add004860de00000072002f
:10851000c868de006f40600000407100804978004c
:108520008005eb00500037004818dd004811de00e0
:1085300002017000c819de007a0890008a109000cd
:1085400002014000838148000a007800bafe07005b
:10855000800578000000e00043003a00e0022000bf
:108560000a0040000801440089814c00f21fb2005b
:10857000020040000c487800c860de0011409800fe
:1085800039003700491add004711de000201720090
:10859000c719de007a0890008a109000020140009e
:1085a000838148000a007800a3fe07008005780058
:1085b0000000e0002c003a00e40220000a02420021
:1085c0004248dd00ce40de00810070004240dd0008
:1085d000f01fb20000024200e30342000483e800ff
:1085e0008402e80017417800c811dd000200200075
:1085f000164078008080fb00000020000001710020
:10860000818171001580fb004800dd000100200021
:108610000001710081817100144078000080fb002e
:1086200001002000000171008181710000002f0015
:108630000300600001002000c000dd0000002000f9
:108640000000760081807600004a78004801de0054
:10865000824a78004009de0003002000024b7800c7
:108660004808de00804b780010c0b30040459800f9
:10867000010037002b0020000b0078004f07780026
:108680004f06be004f05be004f04be004f00b100b4
:10869000000006000400fa00889fbe008a9fbe000a
:1086a0008c1f78000006780092bf9f00a3bf9f0038
:1086b000e00f5100e08f59000b003a005005900088
:1086c000e0059000e00f5500e08f5d0015003200de
:1086d000c008900030089000800f5500818f5d0029
:1086e00010003100110037001fb99700afb9970093
:1086f000aefe07000001be00e10f5000e08f580001
:108700004d0036003c089000cc089000800f5100ce
:10871000818f59004c0039001fbd9700afbd9700f5
:10872000020037001a0020000b0020000a04be00df
:1087300061044400e0844c003c089000cc089000a8
:10874000800f5400818f5c0005003900e10f550057
:10875000e08f5d003b00360028002000090020006b
:108760000801be000c00780090fe07000001be006a
:10877000e00f5000e08f58000a003200e10f400087
:10878000e08f480030003200e10f5000e08f5800c9
:108790002d0032008a0f54008b8f5c0029003200bc
:1087a000e3ff3700f4ff2f00f5ff20000801be00b3
:1087b0000c00780005ff07000000e0001a003a00f6
:1087c0001fb89700afb89700e00f5000e08f580037
:1087d000060032000802be000001be000c00780056
:1087e000fafe07000000e0000f003a00580698006b
:1087f000690698007c0090008c089000e10f400012
:10880000e08f48000600320061005000e080580010
:1088100070069800010e980010c0b30050469800f2
:108820000801be00080037000081eb008081eb00ea
:10883000e10f50000400320012002000030020006d
:10884000010037006011b8000200be004f0678003a
:108850004f05be004f04be000080fa000000060075
:10886000889fbe008a1f78000004be002104980083
:1088700030019000c0019000e10f5100e08f5900dd
:10888000480032001002780034089000c4089000bc
:10889000800f5100818f590042003100e00f5100dc
:1088a000e08f590016003a0030c0b300944f10001a
:1088b00005003a0014119000a4119000e00f51003f
:1088c000e08f59000e003a006000b8005004980094
:1088d0006104980044009000808f54003100310002
:1088e0004448de0014119000a411900000004100e3
:1088f000e080490070049800010c98001f003700c8
:10890000244090000080fb004405dd00100037008b
:108910001800780025fe07000001be00e10f4000ae
:10892000e08f48001d003200e10f5000e08f58003a
:108930001c00360018007800c00890003008900035
:10894000800f5100818f5900160031008a84540035
:108950008a8f5400eeff310052049800630498009f
:1089600018007800f9fd07004449de0002014000cc
:10897000e081480072049800030c9800e002200097
:10898000980040006f8064004500dd00808040005a
:10899000110c98000000eb000300370010002000cd
:1089a00001003700200020004f0578004f04be0072
:1089b00000000600889fbe008a9fbe008c9fbe00fc
:1089c0008004780001047800200090000006e80090
:1089d000770032007900900089089000e00f500085
:1089e000e08f580072003200ef06660068003a001f
:1089f00061004000e0804800f0049800810c98007d
:108a00001902780059019000e9019000e00f51002f
:108a1000e08f590004003a0044009000800f560097
:108a20005b00390062003700c460de002440900023
:108a30000080fb000000e9008080600054003a00e4
:108a400004007800d9fd07000005be00e10f5000ca
:108a5000e08f580058003600e10f4000e08f4800da
:108a6000570032001902780034089000c4089000c2
:108a7000800f5500818f5d003e0039000800e00046
:108a80004b00320059019000e90190000400780089
:108a900000ff07000005be0070002000e00f550039
:108aa000e08f5d0047003200e10f5500e08f5d0070
:108ab00041003200e10f4500e08f4d0040003200e0
:108ac0006011b800190078005bfd07000000e000ad
:108ad0003b003a00e1022000198040000220200003
:108ae0008d0078004dfd0700190478000a01be00d2
:108af0000800780095fd0700501498006114980054
:108b00000d0478000f00370010c0b30040429800f9
:108b10006011b8001900780047fd07000804e8005c
:108b20000000e00026003a00190178005210900081
:108b3000e210900061004000e08048005011980071
:108b4000611198001902780024409000804f540071
:108b5000edff39000881fb00030020005410900055
:108b6000e4109000020050008380580050129800da
:108b700061129800da049800eb0498000a01be0024
:108b80001900780071fd0700f0049800810c98002e
:108b9000ac049800e102200019804000c568dd00a7
:108ba00001004000900c98000000eb000500370029
:108bb00040002000030037002000200001003700a3
:108bc000100020004f06be004f05be004f04be003f
:108bd00000000600881f7800e8022000000444001e
:108be0001040900014c0b300880078006021070096
:108bf000320020000000e0003f003a0078f89300c7
:108c00004800dd00e8f893008180fb00010070005f
:108c10002200200051a52a00810f500036003a00a2
:108c200018799000c811dd0002002000087890003b
:108c30008080fb0000002000000171008181710034
:108c4000787090004800dd000100200000017100f4
:108c500081817100687090000080fb00010020009d
:108c600000017100818171000380fb0080027800a7
:108c7000020278000400be006614240047052000ac
:108c8000860f5000878f58001a00320058d190008c
:108c9000c811dd000200200048d090008080fb0059
:108ca00000002000000171008181710038d0900027
:108cb0004800dd0001002000000171008181710089
:108cc00028d090000080fb0001002000000171000e
:108cd000818171000380fb0080027800020278002d
