:020000040000FA
:100000000848040001000000F81F0000F81F00006D
:10001000F81F0000F81F0000F81F0000F81F000084
:10002000F81F0000F81F0000F81F0000F81F000074
:10003000F81F000004E40000F81F0000F81F000093
:10004000F81F00002AE4000050E40000F81F000040
:10005000F81F0000F81F0000F81F000020BD00007E
:10006000F81F0000F81F0000A0D4000044D10000D9
:10007000F81F00005CEA0000C8E70000F81F00005D
:10008000F81F0000C6E80000F81F0000F81F00007D
:10009000F81F000084E40000AAE400000AE8000061
:1000A000F81F0000F81F0000F81F0000F81F0000F4
:1000B000F81F0000F81F0000F81F0000F81F0000E4
:1000C000F81F0000F81F0000F81F0000F81F0000D4
:1000D000F81F0000F81F00009EA30000F81F00009A
:1000E000F81F0000F81F0000F81F000026D50000D0
:1000F000DAD10000F81F0000F81F000034EA000009
:1001000044E70000F81F0000F81F0000F81F00007F
:10011000F81F0000F81F0000F81F0000F81F000083
:10012000F81F0000F81F0000F81F0000F81F000073
:10013000F81F0000F81F0000F81F0000F81F000063
:10014000F81F0000F81F000020EA0000F81F000060
:10015000F81F0000F81F0000F81F0000F81F000043
:10016000F81F0000F81F0000F81F0000F81F000033
:10017000F81F0000F81F0000A8D5000070D2000092
:1001800038DF0000F81F0000F81F0000F81F000013
:10019000F81F0000F81F0000F81F0000DEE4000058
:1001A000F81F0000F81F0000F81F0000F81F0000F3
:1001B000F81F0000F81F0000F81F0000F81F0000E3
:1001C000F81F0000F81F0000F81F0000F81F0000D3
:1001D000F81F0000F81F0000F81F0000F81F0000C3
:1001E000F81F0000F81F0000F81F0000F81F0000B3
:1001F000F81F0000F81F0000F81F0000F81F0000A3
:100200000000000000000000F81F0000F81F0000C0
:10021000F81F0000F81F0000F81F0000F81F000082
:10022000F81F0000F81F0000F81F0000F81F000072
:10023000F81F000004E40000F81F0000F81F000091
:10024000F81F00002AE4000050E40000F81F00003E
:10025000F81F0000F81F0000F81F000020BD00007C
:10026000F81F0000F81F0000A0D4000044D10000D7
:10027000F81F00005CEA0000C8E70000F81F00005B
:10028000F81F0000C6E80000F81F0000F81F00007B
:10029000F81F000084E40000AAE400000AE800005F
:1002A000F81F0000F81F0000F81F0000F81F0000F2
:1002B000F81F0000F81F0000F81F0000F81F0000E2
:1002C000F81F0000F81F0000F81F0000F81F0000D2
:1002D000F81F0000F81F00009EA30000F81F000098
:1002E000F81F0000F81F0000F81F000026D50000CE
:1002F000DAD10000F81F0000F81F000034EA000007
:1003000044E70000F81F0000F81F0000F81F00007D
:10031000F81F0000F81F0000F81F0000F81F000081
:10032000F81F0000F81F0000F81F0000F81F000071
:10033000F81F0000F81F0000F81F0000F81F000061
:10034000F81F0000F81F000020EA0000F81F00005E
:10035000F81F0000F81F0000F81F0000F81F000041
:10036000F81F0000F81F0000F81F0000F81F000031
:10037000F81F0000F81F0000A8D5000070D2000090
:100380009E480100F81F0000F81F0000F81F000041
:10039000F81F0000F81F0000F81F0000DEE4000056
:1003A000F81F0000F81F0000F81F0000F81F0000F1
:1003B000F81F0000F81F0000F81F0000F81F0000E1
:1003C000F81F0000F81F0000F81F0000F81F0000D1
:1003D000F81F0000F81F0000F81F0000F81F0000C1
:1003E000F81F0000F81F0000F81F0000F81F0000B1
:1003F000F81F0000F81F0000F81F0000F81F0000A1
:100400000048040001000000EF402300607D24004C
:1004100000018800000000000B000700608F2A0028
:100420000100200010000700000020000000E00094
:10043000020032000000020000000000F2B40200DE
:10044000000000000000FE004440A900608321007D
:100450000000E0000300320000002000A00188003E
:100460004440A80000000600F8FF2000591C2100AD
:1004700091018800800078000000EB001A0037002E
:100480008180E80032A0B4009101BA00E28040000F
:1004900032A0B4009102BA00E280400032A0B40061
:1004A0000002EB00472BDE00F507B200602CE100F4
:1004B00009003A00330007000700E00002003200A4
:1004C0000059EB00010037000201E8008301E90058
:1004D000F8FF3E00040037006128E100010032000F
:1004E0000082EB00040007001101BA000200E000E6
:1004F000E3FF3A0000000600220007000700E000CA
:10050000020032003159BA00020037008100E800D1
:100510000201E8008301E90017003200190007001A
:100520000700E000020032002159BA000200370043
:100530008100E9000201E8008301E9000D003200BA
:100540000400E00003003A00E280400032A0B40062
:10055000E9FF37000B0007000700E000020032004F
:1005600011D9BA00010037000201E8008301E90057
:10057000F5FF3A008100E800E180400032A0B400BD
:10058000000006000810E600020037000910E6002F
:10059000020037008083EB00000006008003EB00C0
:1005A0000000060091018800800078000000EB0048
:1005B00015003700E280400032A0B4009101BA007B
:1005C000E280400032A0B4009102BA00E280400014
:1005D00032A0B4000002EB00472BDE00F507B200AA
:1005E000602CE10004003A000059EB008301E900AF
:1005F000FDFF3E00040037006128E10001003200E9
:100600000082EB00040007001101BA000200E000C4
:10061000E8FF3A00000006003159BA008301E90002
:100620000C0032002159BA008301E90008003200B1
:100630000400E00003003A00E280400032A0B40071
:10064000F5FF370011D9BA008301E900FAFF3A003B
:100650008100E800E180400032A0B4000000060004
:10066000BA7F040000000000D080040000000000F9
:10067000EA1F040000000000B4C6040000000000EF
:1006800062D00400000000000EE30400000000003F
:100690009AB004000000000036A50400000000002D
:1006A000B8AC040000000000B4AC0400000000007E
:1006B0005AAD04000000000028AD04000000000056
:1006C000BCAC040000000000146A0400000000003C
:1006D000466A040000000000766A04000000000082
:1006E000B86A040000000000FC6A0400000000007A
:1006F000406B040000000000826B0400000000005A
:10070000EE6B040000000000366C040000000000E6
:100710007E6C040000000000DA6C040000000000A1
:10072000506D040000000000CC6D040000000000CB
:10073000206E0400000000003C6E04000000000079
:10074000CE6E0400000000001A6F040000000000DC
:10075000566F040000000000926F040000000000CB
:1007600046700400000000006E71040000000000EC
:100770008E8F0400000000000290040000000000C2
:10078000C28F04000000000042900400000000003E
:100790008290040000000000C890040000000000E7
:1007A0005491040000000000B89104000000000013
:1007B0008691040000000000A093040000000000E7
:1007C000EA910400000000004892040000000000CC
:1007D000FC920400000000003293040000000000BE
:1007E0004E930400000000006A9304000000000023
:1007F000D2930400000000000A94040000000000EE
:1008000026940400000000009494040000000000FE
:10081000C694040000000000F894040000000000EA
:10082000BAB404000000000048B404000000000056
:1008300070B30400000000008AB304000000000050
:10084000E4B304000000000038D9040000000000F8
:1008500060BC040000000000839F68000100E0000D
:1008600002003D0060001000E08018000300E0007E
:1008700002003D0060011100E08119000D00070039
:100880004F00E00002003B0060001000E080180014
:100890000000060080017800110009008280D80065
:1008A0008001FD00110009004288D8008300780013
:1008B000000006006022B800060220000000D00000
:1008C0008180D2000482D2008582D2000000A00084
:1008D0000202520083825A000300310002024200E9
:1008E00083824A000000A1000603E900F3FF3A00FA
:1008F00000000600020AB900001BB9000200B8009F
:10090000810042008100430000000600889FBE0075
:100910008A9FBE003004BE002005BE0004044400CF
:1009200085844C0006054D0087854D000898BE0063
:100930000A90BE000440E10005C8E10006D0E100D5
:1009400007D8E10002003100680040001008E8000C
:100950004F05BE004F04BE0000000600889FBE0089
:100960008A9FBE008C1F7800000678003C04BE0001
:100970002C05BE000400540085805C0006015D006B
:1009800087815D00009EBE00029EBE001000200018
:100990000440E10005C8E10006D0E10007D8E1000D
:1009A000010039000000EB001C0E10004F0678001B
:1009B0004F05BE004F04BE00000006001200FA0002
:1009C000889FBE008A9FBE008C9FBE000205BE00AD
:1009D0000004BE00E4B79F00F5B79F0086BF9F00EC
:1009E00097BF9F000000EB00D0B79F00C0B79F00EB
:1009F000B0B79F00A0B79F0090B79F000006780097
:100A0000FD032000DFB197004FB097000381410044
:100A1000BFB09700E08F510004003D00290007009F
:100A20007E805700B9FF070003003700250007004C
:100A30007E805700C9FF0700DFB09700E08F5000AD
:100A40000700350014002000050020006033B800C6
:100A500008047200898472000A0573008B85730094
:100A60000C06E8008D0F5600E6FF3400E08F5000C2
:100A700006003D006FB29700FFB297000FBB9700D2
:100A80009FBB97007E805700A0FF07005FA89700DC
:100A9000E00F500004003A001FB49700AFB4970075
:100AA0003FB59700CFB597000800BE000A01BE0011
:100AB0004F06BE004F05BE004F04BE000080FA0086
:100AC00000000600CF01DE0002817100B2B79F0076
:100AD0004F09DE000000400000007100A0B79F0039
:100AE0000FB097004F01DE0081804000810071004F
:100AF00091B79F007FAA9700CF20DE000000400042
:100B00000080700080B79F000800BE000A01BE0090
:100B10004F18DE000402420000027200F4AF9F0092
:100B20000804440089844C000A054D008B854D0063
:100B30004FB29700DFB297006FB39700FFB39700F3
:100B400000000600881F780018002000881F780029
:100B50009AFF07008F87E9004F0478000000060025
:100B6000801FEB0095FF07008F87E900000006005B
:100B7000889FBE008A9FBE008C1F7800E00F500047
:100B8000E08F5800E00F5900E08F59000F003D0042
:100B90006044B8006055B8000000540081805C00DB
:100BA00002015D0083815D001C0020000820E1003F
:100BB00009A8E1000AB0E1000BB8E1000D003D001A
:100BC000190007000006EB000A0037000006EB00E2
:100BD000E00F5200E08F5A00E00F5B00E08F5B00F7
:100BE00004003D006044B8006055B8000E000700E6
:100BF0001C002000D3FF0700E00F56000600320063
:100C00006022B8006033B8000000520081805A00B2
:100C100002015B0083815B004F0678004F05BE0038
:100C20004F04BE00000006000402540085825C00F0
:100C300006035D0087835D0000000600889FBE00FC
:100C40008A9FBE008C1F7800E00F5000E08F580094
:100C5000E00F5900E08F59000D003D006044B800DE
:100C60006055B8000000540081805C0002015D0006
:100C700083815D001C0020000820E10009A8E1003C
:100C80000AB0E1000BB8E1000D003D00080037009C
:100C90000006EB00E00F5200E08F5A00E00F5B000F
:100CA000E08F5B0006003D006044B8006055B8006E
:100CB0000402540085825C0006035D0087835D00AA
:100CC000A7FF0700E00F5600060032006022B800C0
:100CD0006033B8000000520081805A0002015B00BE
:100CE00083815B004F0678004F05BE004F04BE00B5
:100CF00000000600889FBE008A9FBE008C1F7800FF
:100D00000006EB00E00F5000E08F5800E00F5900A4
:100D1000E08F590007003D006044B8006055B800FE
:100D20000000540081805C0002015D0083815D0051
:100D30001C002000E00F5200E08F5A00E00F5B0023
:100D4000E08F5B0007003D006044B8006055B800CC
:100D50000402540085825C0006035D0087835D0009
:100D60000C00A2000C000700E00F56000600320045
:100D70006022B8006033B8000000520081805A0041
:100D800002015B0083815B004F0678004F05BE00C7
:100D90004F04BE0000000600889FBE008A9FBE0070
:100DA0008C9FBE000404B8000506B8008904460004
:100DB00060854E000606B8000A054600E0854E0034
:100DC0000706B8008B054600040EB80089044600EB
:100DD0000A854E00E0854D00050EB8000A05460064
:100DE0008B854E00060EB8008B0546000416B80031
:100DF0000A0546008B854E000516B8008B05460097
:100E0000041EB8008B0546000800BE000A01BE00A3
:100E10004F06BE004F05BE004F04BE000000060096
:100E2000E68747008E1F7800D0BF9F006687570077
:100E3000012F78000E003700DFB9970013417800CA
:100E40006FB8970090407800814F51000400320045
:100E50000280FB008180FB00010050000800370089
:100E60008301E800D3BF9F00000FE8000401780071
:100E70000202E900E00F5100EFFF3A0002007800A3
:100E80004F0778006F00B100000006008001780075
:100E900002003700B1597800040178000202E9002D
:100EA000E00F5100FBFF3A000000060080017800CF
:100EB0000200370081597800040178000202E9003D
:100EC000E00F5100FBFF3A000000060080007800B0
:100ED0000041EB00B14F1100FDFF3A000080EA0035
:100EE00000804000000006006D6100007468000092
:100EF0002E6300006F70000079000000636F000037
:100F000070690000657300002073000072630000C8
:100F1000207400006F2000006465000073740000FE
:100F2000206500006C6500006D6500006E740000B7
:100F30002062000079200000656C0000656D0000F3
:100F4000656E0000740000006465000073740000AA
:100F5000007300007263000000000000748700004E
:100F60007E870000FFFF0000A4870000FFFF000055
:100F7000A987000000000000000000006D61000073
:100F8000746800002E660000696C00006C000000B0
:100F9000666900006C6C000073200000646500004E
:100FA000737400002077000069740000682000005E
:100FB000636F00006E730000746100006E740000C7
:100FC00020760000616C000075650000007600006E
:100FD000616C00007565000000000000BE87000025
:100FE000C8870000FFFF0000A48700000100000088
:100FF000E787000000000000000000006D610000B5
:10100000746800002E6100006464000073630000D7
:10101000616C000061720000006100006464000007
:1010200020730000636100006C610000722000000A
:10103000746F0000206500006163000068200000FC
:10104000656C0000656D0000656E00007420000096
:101050006F660000207300007263000020610000D2
:101060006E64000020730000746F00007265000061
:101070002072000065730000756C00007420000091
:10108000746F0000206400006573000074000000AD
:1010900073630000616C00006172000000000000DA
:1010A000FE8700000D880000FFFF0000A4870000FD
:1010B000FFFF0000A9870000010000004888000031
:1010C00000000000000000006D6100007468000076
:1010D0002E61000064640000006100006464000090
:1010E0007320000073720000633100002061000073
:1010F0006E64000020730000726300003220000064
:10110000746F00002064000065730000742C000000
:10111000206500006C6500006D6500006E740000C5
:101120002062000079200000656C0000656D000001
:10113000656E0000740000007372000063310000EF
:101140000073000072630000320000006488000039
:101150006D880000FFFF0000A4870000FFFF000073
:101160009C880000FFFF0000A18800000000000034
:10117000000000006D610000746800002E73000024
:101180007562000000730000756200007374000057
:10119000726100006374000073200000737200002D
:1011A0006332000020660000726F00006D200000B6
:1011B0007372000063310000207400006F20000093
:1011C00064650000737400002C200000656C000052
:1011D000656D0000656E00007420000062790000FB
:1011E000206500006C6500006D6500006E740000F5
:1011F00000000000BA880000C3880000FFFF000064
:10120000A4870000FFFF00009C880000FFFF000093
:10121000A188000000000000000000006D610000D7
:10122000746800002E6D0000756C0000006D0000F9
:10123000756C000074690000706C00006965000046
:101240007320000073720000633100002061000011
:101250006E64000020730000726300003220000002
:10126000746F00002064000065730000742C00009F
:10127000206500006C6500006D6500006E74000064
:101280002062000079200000656C0000656D0000A0
:10129000656E0000740000000E89000017890000D0
:1012A000FFFF0000A4870000FFFF00009C880000F3
:1012B000FFFF0000A1880000000000000000000007
:1012C0006D610000746800002E6400006976000003
:1012D0000064000069760000696400006573000026
:1012E000207300007263000031200000627900006A
:1012F000207300007263000032200000746F000051
:101300002064000065730000742C0000206500005C
:101310006C6500006D6500006E74000020620000C6
:1013200079200000656C0000656D0000656E0000AE
:10133000740000006089000069890000FFFF000060
:10134000A4870000FFFF00009C880000FFFF000052
:10135000A188000000000000000000006D61000096
:10136000746800002E6D0000696E000000770000B8
:10137000726900007465000073200000746800004A
:10138000652000006D6900006E6900006D75000049
:101390006D2000006F660000207300007263000083
:1013A00031200000616E00006420000073720000B4
:1013B00063320000207400006F20000064650000AC
:1013C000737400002C200000656C0000656D000047
:1013D000656E000074200000627900002065000046
:1013E0006C6500006D6500006E7400000000000078
:1013F000AE890000B7890000FFFF0000A48700004D
:10140000FFFF00009C880000FFFF0000A188000093
:1014100000000000000000006D6100007468000022
:101420002E6D0000617800000077000072690000F6
:1014300074650000732000007468000065200000DF
:101440006D610000786900006D7500006D2000007E
:101450006F660000207300007263000031200000FE
:10146000616E0000642000007372000063320000AF
:10147000207400006F200000646500007374000099
:101480002C200000656C0000656D0000656E00009A
:101490007420000062790000206500006C65000087
:1014A0006D6500006E740000000000000C8A0000F2
:1014B000158A0000FFFF0000A4870000FFFF000066
:1014C0009C880000FFFF0000A188000000000000D1
:1014D000000000006D610000746800002E630000D1
:1014E0006C6100006D700000006300006C61000022
:1014F0006D70000020730000726300002074000013
:101500006F2000006C6F0000772F000068690000FA
:1015100067680000206200006F7500006E640000C4
:1015200073200000696E0000746F000020640000EA
:1015300065730000742C0000206500006C650000DD
:101540006D6500006E7400002062000079200000CC
:10155000656C0000656D0000656E000074000000A1
:101560006C6F000077000000686900006768000089
:10157000000000006A8A0000758A0000FFFF00007A
:10158000A4870000FFFF0000A9870000FFFF000004
:10159000B08A0000FFFF0000B48A000000000000D5
:1015A000000000006D610000746800002E640000FF
:1015B0006F7400000077000072690000746500001D
:1015C000732000007468000065200000646F000054
:1015D00074200000707200006F64000075630000EA
:1015E000742000006F66000020730000726300002A
:1015F00031200000616E0000642000007372000062
:1016000063320000207400006F2000006465000059
:10161000737400002C2000006166000074650000F7
:1016200072200000612000007368000069660000FD
:101630007400000073680000696600007400000018
:10164000D28A0000DB8A000001000000A4870000AD
:10165000FFFF00009C880000FFFF0000A188000041
:10166000010000001A8B00000000000000000000D4
:101670006D610000746800002E730000746100004A
:101680007400000070650000726600006F72000058
:101690006D73000020730000746100007469000025
:1016A0007374000069630000732000006F6E000017
:1016B0002073000072630000006D0000696E00007E
:1016C000006D000061780000006D000065610000A1
:1016D0006E000000388B0000428B0000FFFF00000E
:1016E000A9870000010000005D8B000001000000E0
:1016F000618B000001000000658B0000000000000D
:10170000000000006D610000746800002E610000A0
:1017100072670000626F0000756E00006473000065
:101720000067000065740000207400006865000018
:10173000206900006E6400006963000065730000AA
:101740002028000061720000676D0000696E0000D3
:101750002C20000061720000676D000061780000BD
:10176000292000006F6600002074000068650000FA
:10177000206C0000696D0000697400002076000094
:10178000616C000075650000732000006F6600004A
:1017900020730000726300000061000072670000A7
:1017A0006D6900006E00000061720000676D00004E
:1017B0006178000000000000828B0000918B000027
:1017C000FFFF0000A987000001000000CD8B000092
:1017D00001000000D48B00000000000000000000A9
:1017E0006D610000746800002E7300006F720000CD
:1017F00074000000736F000072740000206100002C
:101800007272000061790000206900006E20000003
:10181000706C0000616300006500000061720000F0
:101820007261000079000000F08B0000FA8B00006C
:10183000FFFF00000E8C0000000000000000000010
:101840006D610000746800002E6D0000756C000072
:101850006469000076000000706500007266000098
:101860006F7200006D73000020640000657300005B
:10187000742000003D200000286100002A62000062
:10188000292F000063200000696E00002033000053
:1018900032200000626900007473000020650000BF
:1018A0006C6500006D6500006E7400002062000031
:1018B00079200000656C0000656D0000656E000019
:1018C000740000006100000062000000630000007E
:1018D000208C00002C8C0000FFFF0000A48700007B
:1018E000FFFF0000628C0000FFFF0000648C00001E
:1018F000FFFF0000668C00000000000000000000F8
:101900006D610000746800002E61000074610000C9
:101910006E3200000070000065720000666F00000B
:10192000726D000073200000646500007374000095
:10193000203D000020610000746100006E32000054
:10194000287900002C78000029200000656C000038
:10195000656D0000656E0000742000006279000073
:10196000206500006C6500006D6500006E7400006D
:10197000007900000078000000000000808C00006A
:101980008B8C0000FFFF0000A4870000FFFF000019
:10199000B98C0000FFFF0000BB8C000000000000BD
:1019A000000000006D610000746800002E730000EC
:1019B000696E00000070000065720000666F000034
:1019C000726D0000732000006465000073740000F5
:1019D000203D000020730000696E000028780000A0
:1019E00029200000656C0000656D0000656E000038
:1019F0007420000062790000206500006C65000022
:101A00006D6500006E74000000000000D28C0000C4
:101A1000DB8C0000FFFF0000A4870000FFFF000038
:101A2000BB8C000000000000000000006D610000A1
:101A3000746800002E6300006F73000000700000E7
:101A400065720000666F0000726D00007320000078
:101A50006465000073740000203D000020630000F6
:101A60006F7300002878000029200000656C0000DA
:101A7000656D0000656E0000742000006279000052
:101A8000206500006C6500006D6500006E7400004C
:101A900000000000168D00001F8D0000FFFF0000F9
:101AA000A4870000FFFF0000BB8C000000000000C6
:101AB000000000006D610000746800002E720000DC
:101AC0006F74000032000000726F0000746100004B
:101AD0007465000073200000762000006F6600002F
:101AE000206100006E6700006C650000206100004E
:101AF000207400006F200000646500007374000013
:101B000000760000000000005A8D0000648D000087
:101B100002000000A487000002000000818D000088
:101B200001000000628C00000000000000000000C6
:101B30006D610000746800002E7300007172000077
:101B40007400000070650000726600006F72000093
:101B50006D730000206400006573000074200000B5
:101B60003D200000737100007274000028780000AE
:101B700029200000656C0000656D0000656E0000A6
:101B80007420000062790000206500006C65000090
:101B90006D6500006E74000000000000988D00006C
:101BA000A28D0000FFFF0000A4870000FFFF0000DF
:101BB000BB8C000000000000000000006D61000010
:101BC000746800002E6E00007A73000065710000DA
:101BD0000077000072690000746500002074000046
:101BE0006F20000064650000737400002074000022
:101BF00068650000206D000069640000646C0000EE
:101C000065200000696E0000646500007820000017
:101C10006F6600002074000068650000206C000002
:101C2000617200006765000073740000207300009B
:101C300065710000756500006E630000652000009E
:101C40006F660000206E00006F6E00002D7A0000AD
:101C5000657200006F200000656C0000656D00007B
:101C6000656E00007473000020660000726F000053
:101C70006D20000073720000632C0000202D000016
:101C80003120000069660000206E00006F740000C3
:101C9000206600006F7500006E640000206F000079
:101CA0007220000069660000207300006D61000072
:101CB0006C6C000065720000207400006861000018
:101CC0006E2000006D6900006E4C0000656E000023
:101CD00067740000680000006D6900006E4C000031
:101CE000656E00006774000068000000DE8D000073
:101CF000E98D000001000000A4870000FFFF000044
:101D0000A9870000010000006C8E000000000000A8
:101D1000000000006D610000746800002E72000079
:101D2000616E000064000000666900006C6C0000D9
:101D300020610000727200006179000020770000CD
:101D40006974000068200000726100006E64000089
:101D50006F6D000020760000616C0000756500006A
:101D6000730000008A8E0000948E0000FFFF0000C8
:101D7000A487000000000000000000000000000038
:101D80009301000024030000B7040000480600008F
:101D9000DA0700006B090000FC0A00008C0C000050
:101DA0001C0E0000AB0F00003B110000C812000029
:101DB00056140000E31500006E170000F91800002B
:101DC000831A00000C1C0000941D00001A1F000064
:101DD000A020000024220000A723000029250000E5
:101DE000A826000027280000A4290000202B0000BE
:101DF000992C0000122E0000872F0000FC300000FC
:101E00006F320000DF3300004E350000BA360000AC
:101E1000253800008D390000F33A0000573C0000DF
:101E2000B93D0000173F000074400000CE410000A3
:101E3000264300007B440000CD4500001D47000004
:101E40006A480000B4490000FC4A0000404C000011
:101E5000824D0000C04E0000FC4F000034510000D5
:101E6000695200009B530000CA540000F655000060
:101E70001E5700004358000064590000835A0000B8
:101E80009D5B0000B45C0000C85D0000D75E0000F0
:101E9000E45F0000EC600000F1610000F26200000D
:101EA000EF630000E9640000DE650000D06600001A
:101EB000BD670000A76800008C6900006E6A000022
:101EC0004B6B0000246C0000F96C0000CA6D000030
:101ED000976E00005F6F000023700000E370000049
:101EE0009E7100005572000008730000B673000078
:101EF0006074000005750000A575000042760000C2
:101F0000D97600006C770000FB7700008478000031
:101F1000097900008A790000067A00007D7A0000C5
:101F2000EF7A00005D7B0000C67B00002A7C000089
:101F3000897C0000E47C0000397D00008A7D00007F
:101F4000D77D00001D7E0000607E00009D7E0000A9
:101F5000D67E0000097F0000397F0000627F00000C
:101F6000877F0000A77F0000C27F0000D87F0000AD
:101F7000EA7F0000F67F0000FE7F0000FF7F000088
:101F80008C020000DF02000030030000800300002C
:101F9000D10300002204000073040000C20400000A
:101FA00014050000B305000054060000F10600000F
:101FB0008F0700002D080000CA0800006309000018
:101FC000FC090000340B00005C0C0000820D0000D6
:101FD000A40E0000BD0F0000D3100000E2110000AD
:101FE000E7120000EF140000CC1600009218000069
:101FF000401A0000D61B0000531D0000B51E000053
:102000000B200000792200008D2400006F260000C4
:102010001428000090290000E02A0000112C000084
:10202000252D0000052F000089300000D33100006D
:10203000EC320000DD330000AE34000067350000F4
:102040000D36000020370000FB370000B2380000DA
:102050004A390000CC3900003B3A00009B3A0000AE
:10206000F33A0000833B0000F43B0000513C0000C9
:102070009F3C0000E13C00001A3D00004B3D000089
:10208000783D0000C03D0000F93D0000283E000002
:102090004F3E0000703E00008D3E0000A53E000057
:1020A000BC3E0000E03E0000FD3E0000143F00008A
:1020B000283F0000383F0000473F0000533F00002A
:1020C0005E3F0000703F00007F3F00008A3F00003D
:1020D000943F00009C3F0000A43F0000AA3F000086
:1020E000AF3F0000B83F0000C03F0000C53F000008
:1020F000CB3F0000CE3F0000D23F0000D53F0000A4
:10210000D83F0000DC3F0000E03F0000E33F00005C
:10211000E53F0000E83F0000E93F0000EB3F000022
:10212000EC3F0000EE3F0000F13F0000F13F0000F7
:10213000F33F0000F43F0000F53F0000F53F0000D2
:10214000F73F0000F73F0000F93F0000F83F0000B4
:10215000FA3F0000FA3F0000FA3F0000FB3F00009A
:10216000FB3F0000FC3F0000FC3F0000FC3F000084
:10217000FE3F0000FD3F0000FD3F0000FD3F00006E
:10218000FE3F0000FE3F0000FE3F0000FE3F00005B
:10219000FE3F0000FE3F000000400000FF3F000047
:1021A000FF3F0000FF3F0000FF3F0000FF3F000037
:1021B000FF3F0000FF3F0000FF3F0000FF3F000027
:1021C000FF3F0000FF3F0000004000000040000013
:1021D00000400000004000000040000000400000FF
:1021E00000400000004000000040000000400000EF
:1021F00000400000004000000040000000400000DF
:10220000004000004164000064720000657300003B
:10221000732000006F750000742000006F660000DE
:102220002073000065740000746900006E67000090
:1022300073000000536C0000656500007020000012
:102240006D6F000064650000206E00006F74000078
:102250002073000075700000706F00007274000041
:102260006564000000450000727200006F7200009B
:102270003A2000006D6900006E2000003D3D000026
:102280002030000078460000464600004646000028
:102290004646000046200000210000004572000074
:1022A000726F0000723A0000205500006E6100005D
:1022B000626C000065200000746F00002066000062
:1022C0006C610000736800002062000079740000F7
:1022D000656300006F640000652000002831000085
:1022E000292000002100000045720000726F0000EC
:1022F000723A0000205500006E610000626C000020
:1023000065200000746F0000206600006C61000012
:1023100073680000206200007974000065630000AB
:102320006F640000652000002832000029200000B2
:102330002100000045720000726F0000723A000038
:10234000205500006E610000626C000065200000F6
:10235000746F0000206600006C610000736800006C
:102360002062000079740000656300006F64000063
:102370006520000028330000292000002100000013
:10238000466C000061730000686900006E67000021
:10239000204F00004B00000074680000796D0000C1
:1023A000696F00002D490000490000005F690000CE
:1023B0006400000065760000656E0000742E000069
:1023C000736F000075720000636500000065000017
:1023D000766500006E7400002E61000072670000D8
:1023E000730000005F6600007776000065720000F1
:1023F000736900006F6E0000005F000070720000E3
:102400006F64000075630000744900006400000000
:1024100062750000747400006F6E0000732E00007F
:102420005F720000617700000062000075740000B8
:10243000746F00006E2E000062610000636B00008C
:102440007761000072640000006200007574000093
:10245000746F00006E2E00006C6500006674000052
:102460000062000075740000746F00006E2E0000A2
:10247000636500006E740000657200000062000079
:1024800075740000746F00006E2E0000666F00000F
:102490007277000061720000640000006275000045
:1024A000747400006F6E00002E72000069670000F7
:1024B000687400000062000075740000746F000012
:1024C0006E7300002E5F00006D650000616E0000FD
:1024D0000062000075740000746F00006E730000ED
:1024E0002E5F00006E6F0000697300006500000041
:1024F000707200006F7800002E6800006F7200009C
:10250000697A00006F6E0000746100006C000000CA
:10251000707200006F7800002E6300006F6D000085
:102520006D2E0000727800002E5F000070610000C8
:10253000796C00006F61000064730000007000009F
:10254000726F0000782E0000636F00006D6D000058
:102550002E720000782E00005F6900006E7400008B
:10256000656E000073690000746900006573000007
:1025700000700000726F0000782E0000636F000092
:102580006D6D00002E720000780000007072000077
:102590006F7800002E6300006F6D00006D2E00004C
:1025A0007478000000700000726F0000782E000048
:1025B000677200006F7500006E6400002E610000FD
:1025C0006D620000696100006E7400000070000020
:1025D000726F0000782E0000677200006F750000B7
:1025E0006E6400002E720000656600006C650000DD
:1025F000637400006564000000700000726F0000EA
:10260000782E0000677200006F7500006E64000095
:102610002E640000656C000074610000006D000015
:102620006F7400006F7200002E6C00006566000081
:10263000742E000074610000726700006574000071
:10264000006D00006F7400006F7200002E720000B9
:1026500069670000687400002E7400006172000059
:1026600067650000740000005F7600006261000092
:10267000740000005F6900006D6F000074000000CE
:102680006D6F0000746F0000722E00006C6500001A
:10269000667400002E730000706500006564000021
:1026A000006D00006F7400006F7200002E72000059
:1026B00069670000687400002E73000070650000F8
:1026C00065640000006D00006F7400006F72000010
:1026D0002E6C000065660000742E0000707700000C
:1026E0006D0000006D6F0000746F0000722E00001E
:1026F0007269000067680000742E000070770000A7
:102700006D0000006163000063000000746500005C
:102710006D70000065720000617400007572000049
:102720006500000072630000352E00006164000047
:1027300064720000657300007300000072630000A3
:10274000352E0000636F00006D6D0000616E0000AB
:10275000640000006D690000632E0000696E0000D7
:10276000746500006E730000697400007900000059
:102770006D690000632E000074680000726500003F
:10278000736800006F6C0000640000006D69000059
:10279000632E00005F6D0000656100006E000000A8
:1027A000746900006D650000722E00007065000005
:1027B000726900006F640000006100006363000044
:1027C0002E5F00007461000070000000CC910000DA
:1027D00001000000D691000001000000DA91000025
:1027E00020000000E791000002000000F2910000CC
:1027F00001000000FD9100000500000008920000AB
:102800000100000015920000010000002592000068
:102810000100000031920000010000003F92000022
:10282000010000004E920000050000005B920000D5
:102830000500000069920000070000007892000087
:102840000700000088920000070000009F9200002F
:1028500001000000B992000001000000C6920000D3
:1028600002000000D392000002000000E792000086
:1028700002000000FD920000010000000F93000024
:1028800001000000219300000200000034930000CA
:10289000020000003A930000010000004093000095
:1028A000010000005193000001000000639300004C
:1028B00001000000729300000300000082930000FA
:1028C00001000000869300000100000092930000C8
:1028D000010000009E93000001000000AA93000088
:1028E00001000000B893000001000000C693000042
:1028F00002000000D093000001000000DD93000002
:102900000000000000000000DE000000AD0000003C
:10291000CA000000FE000000BE000000EF00000042
:102920000400000002000000B4AC00005AAD00003A
:1029300028AD0000BCAC0000146A0000466A00002C
:10294000766A0000B86A0000FC6A0000406B000074
:10295000826B0000EE6B0000366C00007E6C0000A5
:10296000DA6C0000506D0000CC6D0000206E00009D
:102970003C6E0000CE6E00001A6F0000566F000023
:10298000926F0000467000006E7100008E8F000094
:1029900002900000C28F0000429000008290000070
:1029A000C890000054910000B8910000869100008A
:1029B000A0930000EA91000048920000FC92000001
:1029C000329300004E9300006A930000D2930000FF
:1029D0000A9400002694000094940000C69400001D
:1029E000F8940000BAB4000042610000636B00007C
:1029F00077610000726400002062000075740000BE
:102A0000746F00006E200000737400006174000099
:102A10007573000020630000686100006E670000AD
:102A200065640000004C0000656600007420000032
:102A300062750000747400006F6E00002073000067
:102A4000746100007475000073200000636800006A
:102A5000616E0000676500006400000043650000CF
:102A60006E74000065720000206200007574000042
:102A7000746F00006E200000737400006174000029
:102A80007573000020630000686100006E6700003D
:102A900065640000004600006F720000776100006E
:102AA000726400002062000075740000746F000002
:102AB0006E200000737400006174000075730000E4
:102AC00020630000686100006E670000656400001C
:102AD0000052000069670000687400002062000076
:102AE00075740000746F00006E20000073740000A5
:102AF00061740000757300002063000068610000CD
:102B00006E670000656400000062000075740000DC
:102B1000746F00006E7300000042000075740000C6
:102B2000746F00006E73000020760000616C00007E
:102B3000756500007320000075700000646100007E
:102B40007465000064000000707200006F7800007F
:102B500000500000726F0000786900006D6900008D
:102B60007479000020760000616C0000756500003B
:102B7000732000007570000064610000746500003F
:102B800064000000707200006F7800002E63000087
:102B90006F6D00006D000000446100007461000072
:102BA0002072000065630000656900007665000022
:102BB000642000006F6E0000207400006865000053
:102BC00020700000726F0000786900006D690000DD
:102BD00074790000206300006F6D00006D750000C7
:102BE0006E69000063610000746900006F6E000090
:102BF00000740000617000000041000020740000BB
:102C0000617000002069000073200000646500000E
:102C100074650000637400006564000000410000FA
:102C200063630000656C0000657200006F6D00005A
:102C3000657400006572000020760000616C000081
:102C4000756500007320000075700000646100006D
:102C500074650000640000006D69000063000000FE
:102C6000466900007265000064200000776800007B
:102C7000656E0000206D000069630000726F000047
:102C8000706800006F6E000065200000696E000033
:102C9000746500006E730000697400007920000004
:102CA0006973000020610000626F0000766500001B
:102CB000207400006872000065730000686F0000F7
:102CC0006C640000007300006F7500006E6400000B
:102CD0002E660000696E00006973000068650000E0
:102CE0006400000046690000726500006420000076
:102CF00077680000656E00002074000068650000C1
:102D0000207000006C6100007962000061630000C7
:102D10006B2000006F66000020610000207500003D
:102D20007365000072200000696E00006974000085
:102D3000696100007465000064200000736F00008A
:102D4000756E0000642000006973000020660000BA
:102D5000696E00006973000068650000640000008F
:102D6000546500006D700000657200006174000021
:102D70007572000065200000766100006C7500002F
:102D8000652000007570000064610000746500003B
:102D90006400000072630000350000005243000030
:102DA000352000006D65000073730000616700004E
:102DB0006520000072650000636500006976000010
:102DC00065640000006D00006F7400006F72000009
:102DD000004D00006F7400006F720000207400004E
:102DE000696D00006572000000740000696D0000EC
:102DF0006572000030000000546900006D6500003D
:102E00007220000030000000746900006D65000051
:102E10007231000000540000696D0000657200000E
:102E2000203100000000000015920000F494000022
:102E30002592000013950000319200002E950000AD
:102E40003F9200004B9500004E92000069950000F3
:102E5000859500008D950000A4950000A9950000BF
:102E6000C2950000CC950000F9950000FD9500008A
:102E7000829300000F9600002C9600003096000010
:102E8000639600007296000086930000B0960000E2
:102E9000CA960000CE960000E3960000E996000076
:102EA000F5960000FC960000049700000B970000C8
:102EB00000000000000000005F7300007973000054
:102EC000746500006D2E000072650000626F0000E6
:102ED0006F74000000520000656200006F6F000018
:102EE0007420000074680000652000006D69000017
:102EF000637200006F6300006F6E00007472000068
:102F00006F6C00006C650000720000005F730000D1
:102F100079730000746500006D2E00007365000079
:102F200074740000696E0000677300002E72000068
:102F300065610000640000005265000061640000EB
:102F400020610000207300006574000074690000B7
:102F50006E6700000061000064640000726500009C
:102F60007373000000760000616C0000756500005E
:102F7000005F00007379000073740000656D00004D
:102F80002E73000065740000746900006E67000015
:102F9000732E000077720000697400006500000065
:102FA0005772000069740000652000006120000075
:102FB0007365000074740000696E00006700000013
:102FC0005F73000079730000746500006D2E0000CF
:102FD0007365000074740000696E00006773000080
:102FE0002E6600006C61000073680000005700004E
:102FF00072690000746500002074000068650000BC
:103000002073000065740000746900006E670000A2
:1030100073200000696E0000746F000020660000DD
:103020006C61000073680000000000004572000041
:10303000726F0000723A000020730000616D0000A2
:10304000706C000065730000206D00007573000057
:103050007420000062650000206900006E200000FE
:103060005B2D000031320000382C000031320000AE
:10307000375D000020720000616E0000676500008F
:10308000005F00006C650000647300002E73000098
:103090006574000000530000657400002074000097
:1030A00068650000206C000065640000006C000092
:1030B000656400000062000072690000676800003B
:1030C000746E00006573000073000000736F0000F1
:1030D000756E0000642E000072650000636F0000D2
:1030E00072640000005300007461000072740000FC
:1030F00020720000656300006F72000064690000C8
:103100006E670000206F000066200000724E000015
:103110002E77000061760000004E00000073000072
:103120006F7500006E6400002E7000006C6100007E
:1031300079000000537400006172000074200000E8
:10314000706C00006179000062610000636B000038
:10315000206F000066200000704E00002E770000F7
:1031600061760000007300006F7500006E6400005F
:103170002E720000657000006C6100007900000094
:10318000537400006172000074200000706C000035
:103190006179000062610000636B0000206F000035
:1031A00066200000724E00002E770000617600005D
:1031B000007300006F7500006E6400002E73000045
:1031C00079730000746500006D0000005374000006
:1031D0006172000074200000706C000061790000D2
:1031E00062610000636B0000206F00006620000039
:1031F0007379000073740000656D00002073000097
:103200006F7500006E640000204E0000006C00002E
:1032100065640000732E00006369000072630000A3
:103220006C6500000053000065740000206300001E
:1032300069720000637500006C610000722000007C
:10324000726900006E670000206C00006564000079
:10325000730000006C300000006C000031000000C2
:103260006C320000006C0000330000006C34000081
:10327000006C0000350000006C360000006C00009F
:10328000370000006C650000647300002E740000BD
:103290006F700000005300006574000020520000B1
:1032A00047420000207400006F700000206C000096
:1032B00065640000007200006564000000670000A3
:1032C00072650000656E0000006200006C75000011
:1032D000650000006C650000647300002E62000051
:1032E0006F740000746F00006D2E000072690000A2
:1032F000676800007400000053650000742000003F
:103300005247000042200000626F0000746F00000E
:103310006D200000726900006768000074200000E2
:103320006C650000640000006C65000064730000C0
:103330002E6200006F740000746F00006D2E00009C
:103340006C650000667400000053000065740000A6
:103350002052000047420000206200006F7400000D
:103360006F6D0000206C0000656600007420000096
:103370006C650000640000006C6500006473000070
:103380002E62000075740000746F00006E73000000
:103390000053000065740000206200007574000096
:1033A000746F00006E730000206C00006564000004
:1033B000730000006C650000647300002E70000054
:1033C000726F0000782E0000680000005365000056
:1033D00074200000686F0000726900007A6F0000BE
:1033E0006E740000616C000020700000726F0000BD
:1033F000786900006D69000074790000206C00009D
:1034000065640000730000006C65000064730000D8
:103410002E700000726F0000782E00007600000011
:10342000536500007420000076650000727400008F
:1034300069630000616C000020700000726F000082
:10344000786900006D69000074790000206C00004C
:1034500065640000730000006C6500006473000088
:103460002E7200006300000053650000742000000D
:1034700072630000206C000065640000006C0000B6
:1034800065640000732E0000736F0000756E00000D
:10349000640000005365000074200000736F00009A
:1034A000756E0000642000006C6500006400000080
:1034B0006C650000647300002E740000656D0000F0
:1034C0007065000072610000747500007265000094
:1034D0000053000065740000206E0000746300005B
:1034E000206C000065640000007300006F75000030
:1034F0006E6400002E66000072650000710000001E
:10350000506C0000617900002066000072650000C8
:1035100071750000656E00006379000000480000CE
:103520007A00000064730000007300006F750000F3
:103530006E6400002E7700006176000065000000D8
:1035400053650000742000007468000065200000CE
:1035500070720000696D0000617200007920000047
:103560007761000076650000206F00006620000093
:103570007468000065200000746F00006E65000034
:1035800020670000656E0000657200006174000035
:103590006F72000000770000617600006500000097
:1035A000707200006F7800002E6300006F6D0000E5
:1035B0006D2E0000656E0000616200006C65000009
:1035C000004500006E610000626C00006520000094
:1035D0006F720000206400006973000061620000E7
:1035E0006C65000020740000686500002070000019
:1035F000726F0000786900006D6900007479000046
:10360000206300006F6D00006D7500006E690000A2
:1036100063610000746900006F6E000000730000B9
:10362000746100007465000000730000642E0000E7
:103630006F700000656E0000004F000070650000B4
:103640006E20000061200000666900006C650000CB
:10365000206F00006E2000007468000065200000EC
:103660005344000020630000617200006400000009
:103670006E7500006D62000065720000007300004E
:103680007461000074750000730000007364000032
:103690002E7700007269000074650000005700007A
:1036A000726900007465000020640000617400000D
:1036B00061200000746F0000207400006865000045
:1036C000206F0000706500006E650000642000003F
:1036D000666900006C650000006400006174000011
:1036E00061000000777200006974000074650000DA
:1036F0006E000000736400002E720000656100001F
:103700006400000052650000616400002064000055
:103710006174000061200000667200006F6D00009F
:103720002074000068650000206F000070650000D4
:103730006E65000064200000666900006C65000092
:103740000072000065610000640000007364000006
:103750002E730000656500006B00000053650000DB
:10376000656B00002074000068650000206F000099
:10377000706500006E65000064200000666900004E
:103780006C650000007000006F7300006974000039
:10379000696F00006E000000733000002E7700009B
:1037A0006176000000730000322E00007761000097
:1037B00076000000733300002E7700006176000071
:1037C00000730000342E00007761000076000000D6
:1037D000733500002E770000617600000073000052
:1037E000362E00007761000076000000733700007D
:1037F0002E7700006176000000000000480D0000F8
:103800000D0000003011000007000000EC13000064
:10381000070000000019000007000000781E0000EB
:10382000070000000000000000000000781E0000FB
:103830000D0000000019000007000000EC1300005C
:10384000070000003011000007000000480D0000D4
:103850000700000000000000000000004C04000011
:1038600007000000980800000700000000000000AA
:1038700000000000E40C0000070000003011000010
:103880000D000000C8190000070000000000000043
:10389000000000009C27000002000000AB22000096
:1038A000010000009D1C000002000000FB18000049
:1038B000020000002D32000001000000322D000047
:1038C000010000004628000002000000E826000079
:1038D00001000000BF22000002000000FB180000F1
:1038E00002000000FF32000001000000C6200000BE
:1038F00001000000762F0000020000002C2E0000C6
:1039000001000000CE2C000001000000FD39000085
:10391000020000000000000000000000C8190000C4
:1039200005000000BE0A00000400000000000000C6
:103930000000000030110000070000007C150000AE
:10394000070000000000000000000000301100002F
:10395000070000007C15000007000000C8190000E7
:10396000070000000000000000000000222A000004
:103970002B2C00003A3B00003C3D00003E3F000085
:103980005B5D00007C7F0000008000009A900000DA
:10399000418E0000418F0000804500004545000039
:1039A00049490000498E00008F900000929200006B
:1039B0004F9900004F55000055590000999A00009A
:1039C0009B9C00009D9E00009F410000494F00000D
:1039D00055A50000A5A60000A7A80000A9AA000000
:1039E000ABAC000021AE0000AFB00000B1B20000EF
:1039F000B3B40000B5B60000B7B80000B9BA000013
:103A0000BBBC0000BDBE0000BFC00000C1C20000C2
:103A1000C3C40000C5C60000C7C80000C9CA000072
:103A2000CBCC0000CDCE0000CFD00000D1D2000022
:103A3000D3D40000D5D60000D7D80000D9DA0000D2
:103A4000DBDC0000DDDE0000DFE00000E1E2000082
:103A5000E3E40000E5E60000E7E80000E9EA000032
:103A6000EBEC0000EDEE0000EFF00000F1F20000E2
:103A7000F3F40000F5F60000F7F80000F9FA000092
:103A8000FBFC0000FDFE0000FF0000002E2E0000E9
:103A90002F2E00002E2F0000446F000063750000E1
:103AA0006D6500006E740000732F0000436F00000E
:103AB000646500002064000073500000494300006A
:103AC0002F6D00006F6C00006F6C0000652F000010
:103AD00069320000632F000069320000635F00005C
:103AE00070720000697600002E680000002E000051
:103AF0002E2F00002E2E00002F4400006F630000C8
:103B0000756D0000656E0000747300002F430000A7
:103B10006F640000652000006473000050490000DD
:103B2000432F00006D6F00006C6F00006C6500009B
:103B30002F690000326300002F6D000061730000E8
:103B400074650000725F0000707200006F74000006
:103B50006F6300006F6C00002E6300000000000027
:103B60002E2E00002F2E00002E2F0000446F00008C
:103B7000637500006D6500006E740000732F000017
:103B8000436F000064650000206400007350000073
:103B9000494300002F6D00006F6C00006F6C000047
:103BA000652F000069320000632F000069320000B9
:103BB000635F000070720000697600002E680000EC
:103BC000002E00002E2F00002E2E00002F4400009B
:103BD0006F630000756D0000656E00007473000077
:103BE0002F4300006F640000652000006473000034
:103BF00050490000432F00006D6F00006C6F000003
:103C00006C6500002F690000326300002F6D00001A
:103C10006173000074650000722E000063000000F4
:103C20002E2E00002F2E00002E2F0000446F0000CB
:103C3000637500006D6500006E740000732F000056
:103C4000436F0000646500002064000073500000B2
:103C5000494300002F6D00006F6C00006F6C000086
:103C6000652F000069320000632F000069320000F8
:103C7000635F000070720000697600002E6800002B
:103C8000002E00002E2F00002E2E00002F440000DA
:103C90006F630000756D0000656E000074730000B6
:103CA0002F4300006F640000652000006473000073
:103CB00050490000432F00006D6F00006C6F000042
:103CC0006C6500002F690000326300002F73000054
:103CD0006C610000766500002E63000000000000AB
:103CE0002E2E00002F2E00002E2F0000446F00000B
:103CF000637500006D6500006E740000732F000096
:103D0000436F0000646500002064000073500000F1
:103D1000494300002F6D00006F6C00006F6C0000C5
:103D2000652F0000746900006D650000722F0000AF
:103D3000746900006D650000722E000063000000D1
:103D4000010000000000000008000000000000006A
:103D50004000000000000000000100000000000022
:103D60002E2E00002F2E00002E2F0000446F00008A
:103D7000637500006D6500006E740000732F000015
:103D8000436F000064650000206400007350000071
:103D9000494300002F6D00006F6C00006F6C000045
:103DA000652F000069320000632F000069320000B7
:103DB000635F000070720000697600002E680000EA
:103DC000000000002E2E00002F2E00002E2F0000DD
:103DD000446F0000637500006D6500006E740000A4
:103DE000732F0000436F0000646500002064000032
:103DF00073500000494300002F6D00006F6C0000FD
:103E00006F6C0000652F0000666C0000617300009D
:103E1000682F0000666C000061730000682E0000CF
:103E20006300000052490000464600000000000008
:103E3000000000005741000056450000666D00007C
:103E400074200000100000000000000001000000CD
:103E500001000000841E000000000000841E00001D
:103E60000000000001000000080000006461000084
:103E70007461000000000000000000005F4C0000C2
:103E80004F470000445500004D5000002E23000015
:103E900040210000005F0000544500005354000022
:103EA0004D4F0000442E0000234000002100000080
:103EB000564D0000434F0000444500002E410000D5
:103EC000424F0000000000002E2E00002F2E0000A8
:103ED0002E2F000074680000796D0000696F0000EB
:103EE0002D670000697400002F74000068790000DD
:103EF0006D6900006F2F00006D6D000061370000DC
:103F000036360000302E0000630000005F700000B5
:103F10006F770000657200006F66000066000000A9
:103F2000506F000077650000726F00006666000049
:103F30000000000010110000141200001300000027
:103F40000116000017000000038000000F0F0000A2
:103F50000F00000053032000830F51000A003200BD
:103F6000E3814100830F51000E003200E6815100D1
:103F7000830F510013003A00004588001145880066
:103F8000E482A8000000060020458800014580006A
:103F90000100500040458800E482A900DCC2A8006E
:103FA00000000600314588001045800080805000E8
:103FB00051458800DCC2A9000104200080CD20000A
:103FC0001088700000000600DCC2A900E482A9008D
:103FD00000000600FEE9020000000000FDFF3700BF
:103FE00084CD80000400010080CD88000000060020
:103FF0000040DA000000FE000000000000000000A9
:1040000000000000000000000000000000000000B0
:1040100000000000000000000000000000000000A0
:104020000000000000000000000000000000000090
:104030000000000000000000000000000000000080
:107000000200370031587800030178008201E9005E
:10701000E00F5100FBFF3A000000060002003700BD
:1070200001587800030178008201E900E00F510067
:10703000FBFF3A0000000600889FBE008A9FBE004A
:107040008C9FBE008E1F7800000678000205BE00EF
:107050005C149000EC1490000001EB008A0F5400C7
:107060008B8F5C00380032004C409000E04F5000A5
:1070700024003200EE0220000C07470014C0B300C9
:107080000801BE008E0078001C4090000C9E02009B
:107090000000000012002000E00F50002A003A001B
:1070A000404698005C099000EC0990007C08900034
:1070B0008C1090000200400083804800800F540034
:1070C000818F5C000F003100BC4690000B00370040
:1070D0005C089000EC089000080440008984480097
:1070E00014C0B3000801BE008E0078001C40900060
:1070F0000C9E0200000000008D46E900E1CF560022
:10710000F3FF3E000001EB00E00F5500E08F5D0053
:107110000D003200E10220008C80400014C0B3005A
:107120000A01BE001C409000989D02000000000073
:1071300012002000E00F500003003A005A16980099
:107140006B16980000017800020078004F07780065
:107150004F06BE004F05BE004F04BE0000000600F3
:10716000881F780000047800E10220008880400039
:1071700014C0B30018409000989D02000000000069
:1071800031C0B300E00F50004C003A00D122200083
:1071900088804000914078008181FB00C819DD00A3
:1071A000C122200088804000914078008180FB004F
:1071B0008181710021C0B30052A52A00828F510045
:1071C0003E003A0078E39000C833DD00060020005E
:1071D00068E190008281FB0002002000020373003E
:1071E0008383730048E190000281FB0003002000CC
:1071F000020373008383730058E190004811DD009F
:107200000300200002037300838373000782FB00E6
:1072100005002000C021DD00020020006132B8001E
:10722000040171008581710064142400450520006B
:1072300080407800840F5100858F59001F00320074
:1072400038439100C833DD0006002000284091003B
:107250008080FB0000002000000373008183730026
:10726000084091000080FB00010020000003730033
:1072700081837300184091004800DD000100200068
:1072800000037300818373000781FB00030020006B
:10729000C010DD00000020006131B8000200700065
:1072A0008380700004006800858068000100700021
:1072B0008000EA0000807000CF00DE00014078000E
:1072C0004F0478000000060092002000E00F5000FC
:1072D0000C0032008041EB0090CF11000900320019
:1072E000B0019000818F510006003A0010409000DC
:1072F0008C9D02000000000061016000010032006E
:10730000320020000200780000000600889FBE00C6
:107310008A1F7800000478006011B8000800780027
:1073200045FF070080047800E08F54005F003A00BA
:1073300030C0B300984F100054003A0058409000FD
:10734000E04F5000510032006000B8005014980027
:1073500061149800EA022000080545000220200080
:10736000890078000A0078002CFF0700C022200066
:107370000800400052C5B30002487800D022200027
:1073800008004000A2CAB3000248780022C5B3003A
:10739000626C9800726C98006F4141000274980012
:1073A00013C4B3001374980020212000080040008B
:1073B00024C7B300044878003021200008004000B2
:1073C000044878004021200008004000034878006D
:1073D0005021200008004000024878007801900009
:1073E00088099000602120000800400002487800D1
:1073F00071212000888040004810DE00804878001D
:107400008021200008004000401ADE000500200016
:107410000448780090212000080040004819DE0050
:107420000248780058019000E8019000A021200057
:107430000800400002487800B12120008880400008
:107440004810DE0080487800C0212000080040007D
:10745000401ADE000500200004487800D0212000FA
:10746000080040004819DE000248780014C0B3004C
:1074700018099000A80990008A0078001840900030
:107480000C9E020000000000594498000001EB002F
:107490008040EB0018409000A49E02000000000015
:1074A0008004EA0080847400CF4CDE00090078007C
:1074B0004F0578004F04BE0000000600F687470025
:1074C000889FBE008A9FBE008C9FBE008E1F7800E2
:1074D00002447800900178001302FB000403B1001D
:1074E000E90F520009003E0093429000A2C3B3008E
:1074F00082CF520005003A000388E800B000200067
:10750000F0B79F00E00F5200E6013A001ECD800068
:107510008E087800C1002000F1B79F00E00F5700EF
:10752000E00132000041EB009E4F11000F003200DD
:107530001E4090008C9D0200000000008080FB0037
:107540006180600009003A00F0B79F00E04F5400EE
:10755000D4013200E4806000A3002000F3B79F0054
:10756000D0013A00F1B79F00CE0137000040EB0098
:10757000004F780010479800669C02000000000051
:107580008080FB006180600032002000F2B79F0025
:10759000C4013A00E04F540004003200E48060006F
:1075A000A3002000F3B79F00BE013A006011B800AD
:1075B0000E007800EAFE07006066B800E14F500058
:1075C0001A003A000EF09300D1002000F1B79F009E
:1075D000E04F5000B30132007EF19300C811DD008E
:1075E000020020006EF093008080FB00000020006D
:1075F00000017100818171004EF093000080FB005A
:107600000100200000017100818171005EF0930093
:107610004800DD0001002000000671008186710035
:107620000C01BE000E007800CDFE07001200200005
:10763000F2B79F00E34F50009A013200D3002000C0
:10764000F3B79F00E04F500096013A00AE789000EB
:10765000C808DD001E7890000080FB00808070006C
:1076600000202000808F50008E013A005EC59000FF
:107670004855DD004EC090000080FB0000057500FD
:107680000B002000E00F5500E08F5D0012003A0073
:107690005ED59000C855DD000A0020004ED0900055
:1076A0008080FB00000020000005750081857500CA
:1076B0002ED090000080FB00010020000005750026
:1076C000818575003ED090004800DD00010020005B
:1076D00000057500818575005A0F98006B0F9800A2
:1076E000EE789000314798000141E900D000200079
:1076F000F0B79F00E14F51006A013E003E799000D3
:10770000A2EF9F0022479800E04F51006501320030
:10771000AFE997000381FB000200E900020160006D
:1077200060013A000EC190004811DD007E789000A3
:107730000080FB0000007100E0B79F004007980048
:10774000000178006F00610056013A002EC19000E0
:107750004811DD001EC090000080FB000001710098
:107760006114B800E00F5400E08F5C0014003A0090
:107770001ED190000281FB0003002000C813DD0031
:10778000060020000ED190008281FB000200200044
:1077900002017300838173006ECC90000884FB00AB
:1077A0000900200008037100898371007EC99000E0
:1077B0004811DD000300200002047300838473007D
:1077C0005E7B90004833DD004E7890000080FB0027
:1077D00000037300D3002000F3B79F003101320093
:1077E0000182FB00050020000401BE000A00BE006B
:1077F00086BF9F007A0402000000000090B79F003F
:10780000A1B79F000FBB97006130B800F0AF9F0099
:1078100081B79F00EFB097004408DE007FA9970072
:107820008FB1970000004100E08049001FB1970030
:10783000AFB197000001410081814900B2B79F00BC
:10784000C3B79F00820F5400838F5C00150139007D
:107850000203540083835C00AFE997000382FB00BE
:10786000050020000401BE000600BE005A0402000C
:10787000000000000002BE00E00F5000E08F580042
:107880000801320016C0B30050FF2000800F5200E4
:10789000E08F5A000500360036C0B300EB0F4200FF
:1078A000E08F5A0001003E0026C0B300620442008F
:1078B000E0844A00380F9800490F98003FB19700C4
:1078C000CFB197000200460083804E003017980029
:1078D000411798007FA897008FB097000C014000D7
:1078E0008D814800720F980003179800E34F5300F2
:1078F0001E003A00D1002000F1B79F006FB1970041
:10790000E00F5100E7003A005ED99000C811DD0099
:10791000020020004ED890008080FB000000200074
:1079200000007100818071002ED990000281FB005F
:107930000300200002007000838070003ED9900098
:107940004811DD00030020000200700083807000F9
:1079500010179800211798004248DD00CE40DE0045
:10796000810070004240DD001C003700D000200084
:10797000F0B79F00EFB09700E08F5000C9003200D1
:107980001FB09700AFB0970000014100818149000E
:107990001217980023179800E24F530003003A0093
:1079A0000800440089804C000C00370032002000A1
:1079B000030020000800BE0086BF9F007A0402007A
:1079C000000000008100D1000080D3006104640049
:1079D00008004000E08048000FBB9700F01FB00097
:1079E0000180B0004709DD004900DE0000007100A1
:1079F000C908DE00D3002000F3B79F00800F5500B8
:107A0000818F5D00A70039000080EB008080EB00D3
:107A100070079800010F98006000B80050079800A8
:107A200061079800E34F530093003A000040EB00D9
:107A3000504798007ED990004811DD006ED8900024
:107A40000080FB000001710002014600E0814E0051
:107A5000120F9800230F9800E10220008E80400052
:107A600014C0B3001E40900086BF9F00989D020086
:107A7000000000000FBB9700E00F50007E003A00AE
:107A8000D02220000E004000104078008080FB00D3
:107A9000C808DD00C02220000E0040001040780021
:107AA0000080FB008080700050A52A00808F50006D
:107AB00071003A001E719000C811DD000200200024
:107AC0000E7090008080FB0000002000000171001B
:107AD000818171006E6890000080FB000100200031
:107AE00000017100818171007E6890004800DD0016
:107AF0000100200000017100818171002025250016
:107B000011162400800F5100818F59005A003A004D
:107B1000502120000E00400010417800C811DD0007
:107B200002002000402120000E004000104078009C
:107B30008080FB0000002000000171008181710045
:107B4000202120000E004000104078000080FB0043
:107B500001002000000171008181710030212000AE
:107B60000E004000104078000080FB004800DD005F
:107B70000100200000017100818171002027270091
:107B800011142600800F5100818F59003A003A00ED
:107B9000D02120000E00400010417800C811DD0007
:107BA00002002000C02120000E004000104078009C
:107BB0008080FB00000020000000710081807100C7
:107BC000A22120000E014100124178000281FB0039
:107BD000030020000200700083807000B2212000AA
:107BE0000E014100124178000281FB004811DD00C6
:107BF000030020000200700083807000500798008E
:107C000061079800902120000E004000104178008C
:107C1000C811DD0002002000802120000E0040007D
:107C2000104078008080FB00000020000000710000
:107C300081807100622120000E0141001241780014
:107C40000281FB00030020000200700083807000AE
:107C5000722120000E014100124178000281FB00D8
:107C60004811DD00030020000200700083807000D6
:107C700070079800010F9800064F7800A419EC00D7
:107C800020CD8800300798006000B8005017980099
:107C9000611798000040EB00404798000000EB009F
:107CA000F0B79F007FB097004F0778004F06BE00E7
:107CB0004F05BE004F04BE006F01B100000006007A
:107CC00000017800B00020008001E900E00F5000C2
:107CD0000A003200124078000082FB0091427800D6
:107CE0000580FB000000520004003A000201E80099
:107CF0008100E80003007800F3FF37000000060071
:107D00008001780061CB2900010037008100E80084
:107D1000114178000200FB00E04F510002003200E8
:107D2000830F5000F9FF3A0000000600E887470083
:107D3000889FBE008A9FBE008C9FBE008E1F780069
:107D4000E1B79F0091067800F4C2B300C3C5B30049
:107D5000010037008D06E8001D417800844F510076
:107D6000FCFF3200834F5100FAFF3200900578008B
:107D7000B2002000010220000B007800A7FC0700E1
:107D80000005EB000A0778008C0020008A44780088
:107D900002C2B30051CC29006D447F000E07E800F9
:107DA000824F540033003600F0C2B300804F5400BD
:107DB00030003200C0C5B300804F54002D003200A7
:107DC000E0C2B300804F5400020032008C0F550017
:107DD0000A003900E80F560045003A00E0C2B3003F
:107DE000804F540042003A0020002000804CDD000B
:107DF0000C057800BC002000E7FF3700E04F54007E
:107E000004003D003940B3000884FB000808B100BD
:107E100061447C000880FB0081BF9F00F2B79F0097
:107E2000B7FF07008FB897007FB19700E00F5000B1
:107E30002F003A00F0CBB30000404400F94F50004F
:107E400002003E000914A00007003700F0C9B3008B
:107E500000404400F94F500003003E000904A00018
:107E600000CEB3000044440088757D000A05E80098
:107E7000C9FF37006FB097000E8846008040EB00C6
:107E800000C2B300804F540001003E0041C0B30067
:107E900060002000E00F55001600320050CEB30005
:107EA0009B4F100002003A0050C0B300804D780094
:107EB000E80F560002003A0020002000804CDD0050
:107EC0008984FB0063806400E10F500001003A00E8
:107ED0000144A000EC846400E48F540001003A00E7
:107EE0000134A000B14D98000000EB000100370004
:107EF000600020004F0778004F06BE004F05BE000F
:107F00004F04BE008F00B10000000600881F7800FB
:107F10000004780062005100E0805900380A9000A7
:107F2000C80A900062025200E0825A006011B80054
:107F3000840F5000858F58000900310028419000BF
:107F40000281FB00030020007A0402000000000010
:107F500038119000C8119000000141008181490052
:107F60000200BE004F04780000000600889FBE009B
:107F70008A9FBE008C9FBE008E1F7800000678008E
:107F80000205BE001800200009002000E10F51008A
:107F9000E08F59007D0036003C089000CC0890002E
:107FA000800F5100818F5900780031001C4078000B
:107FB000E24F50002F003200E34F500045003200E6
:107FC0000084EB008084EB00E14F50006F003A002A
:107FD0008206D100828646004969DE007C08900056
:107FE0008C10900002014000E08148000C007800F5
:107FF00011FC07000084EB008084EB00E00F5000D0
:1080000062003A000D007800F01FB200E002B000FC
:108010006C4778008D06E8004969DE007C08900016
:108020008C10900002014000E08148000C007800B4
:1080300001FC0700E00F500054003A000E87FB00DF
:10804000FD1FB200ED02B0006CC07E004804DD00F0
:108050000E04740061056500020032004444DE0035
:1080600002003700FEFF20000E046400090020001B
:10807000460037004859DD004850DE00000071001E
:10808000C858DE007C0990008C119000000141006E
:10809000818149000C007800E7FB07000084EB00B9
:1080A0008084EB00E00F500038003A000A054500DC
:1080B000FA1FB200EA02B0006C447D000884FB00A5
:1080C0000A0546001A4090004800DD0000047400D4
:1080D000E6FF37004959DD004750DE00000071001F
:1080E000C758DE007C0990008C119000000141000F
:1080F000818149000C007800CFFB07000084EB0071
:108100008084EB00E00F500020003A004255DD0073
:10811000FA1FB200EA02B0000A00460020419000B7
:108120000281FB0003002000C012DD0004002000DB
:1081300030419000C811DD000200200002017200F1
:1081400083817200104090004800DD000100200093
:1081500000017100818171006C407D000080FB0096
:10816000010020000001710081817100F0FF2000FA
:108170000300600001002000C004DD0008002000B2
:108180006110B80000047400818474000800BE000F
:108190004F0778004F06BE004F05BE004F04BE00DB
:1081A00000000600881F7800000478000000EB0043
:1081B0002004980038019000C801900021002000A0
:1081C000E10F5100E08F59003D00320018007800A7
:1081D000300A9000C00A9000840F5100858F59002A
:1081E00037003100E00F5100E08F590014003A00D1
:1081F00031C0B30090CF100005003A00101190007C
:10820000A0119000E00F5100E08F59000C003A00DF
:108210006011B80052049800630498004001900077
:1082200021002000E00F51002500320010119000C5
:10823000A011900072049800030C980018003700F9
:10824000A0409000E0CF500010003A0018007800E5
:1082500046FF07000001BE00E10F4000E08F48002C
:1082600014003200E10F5000E08F58001300360078
:1082700018007800C008900030089000800F51006E
:10828000818F5900F1FF39000C003700520498002B
:10829000630498001DFF070070049800010C98000B
:1082A000E302200018804100100C98008000EB00D1
:1082B00003003700110020000100370021002000DA
:1082C000010078004F04780000000600889FBE007F
:1082D0008A9FBE008C9FBE008E1F7800000578002C
:1082E0000204BE000406BE0020002000E10F510081
:1082F000E08F5900960036003A099000CA099000B4
:10830000820F5400838F5C00910031009A40780006
:10831000E2CF500040003200E3CF50005200320064
:10832000E1CF500088003A008805D10088854500DB
:108330004959DE007A0890008A109000020140003E
:10834000E08148000A0078003BFB0700E00F500086
:108350007D003A000B017800F21FB2006104640056
:1083600008003200E002200002004000EA407800ED
:10837000EFC060000C80FB004400DD0000C0700016
:10838000010037000C407800020145006069980048
:108390008B05E80010C0B300404598004959DE0045
:1083A0007A0890008A10900002014000E0814800A5
:1083B0000A00780020FB0700E00F500062003A003E
:1083C000FB1FB200E00F540005003200CC68DD0056
:1083D0004466DE000C867000C46EDE000B003700C1
:1083E000E10220008B8040006AC1780001CFB30019
:1083F000814061004869DD004866DE000C067100BE
:10840000C86EDE006F4666000CC670008B05450026
:10841000EC6D98004C003700484ADD004840DE0013
:1084200000007200C848DE007A0990008A119000AE
:1084300000014100818149000A007800FEFA07002E
:10844000E00F500040003A0008044400F81FB2005A
:1084500088004500EC689800010478004866DE005A
:108460007C6C9800380037004949DD004740DE0049
:1084700000007100C748DE007A0990008A11900060
:1084800000014100818149000A007800EAFA0700F2
:10849000E00F50002C003A004244DD00F81FB2000B
:1084A000EE022000080747008E004500E3854000EB
:1084B0008184E800194178000281FB00030020005C
:1084C000C012DD00040020001B417800C811DD004F
:1084D0000200200002017200838172005142780084
:1084E0000483FB004833DD00070020000602710012
:1084F000878271006A417F000281FB000300200037
:10850000020172008381720004002F0003016200E7
:1085100003002000C011DD00020020000C067100E5
:108520008D867100080445006C6C98004861DE007F
:10853000824878004069DE0003002000824C780009
:10854000486EDE008C4D780011C0B30041459800A4
:108550004F0778004F06BE004F05BE004F04BE0017
:1085600000000600889FBE008A9FBE008C9FBE0050
:108570008E1F7800000778000204BE00E00F510053
:10858000E08F59000B003A005E069000EE06900066
:10859000E00F5600E08F5E00120032003E089000AF
:1085A000CE089000800F5600818F5E000F003900CA
:1085B0000C0037000E0078006CFE0700E10F500041
:1085C000E08F58004D0036003E099000CE09900023
:1085D000820F5000838F58004E0039000806BE00FD
:1085E000020037001C0020000D0020000C05BE001A
:1085F00061054500E0854D003E089000CE089000E2
:10860000800F5500818F5D0005003900E10F560095
:10861000E08F5E003C0036002A0020000B002000A6
:108620000A01BE000E00780050FE0700E00F500067
:10863000E08F58000A003200E10F4000E08F480050
:1086400034003200E10F5000E08F5800310032005A
:108650008C0F55008D8F5D00E5FF3A002A00370032
:10866000F4FF2F00F5FF20000A01BE000E00780085
:1086700016FF070000017800E00F510018003A00D3
:10868000E00F5400E08F5C00070032000A02BE00D9
:108690000801BE000E0078000CFF07000001780002
:1086A000E00F51000E003A005A0798006B0798003F
:1086B0007E0090008E089000E10F4000E08F48009F
:1086C0001300320061005000E080580070079800ED
:1086D000010F980010C0B300504798000C003700FD
:1086E0001000200001002000E10F510009003A00B5
:1086F0000080EB008080EB000600370010002000B7
:1087000001002000030037006000B80001003700BE
:108710000A00BE004F0778004F06BE004F05BE009E
:108720004F04BE0000000600E4874700889FBE009B
:108730008A9FBE008C9FBE008E1F780000057800C7
:1087400001067800AA0690008D06E8004B00200084
:108750007C0032007A0090008A089000E00F500000
:10876000E08F5800770032006F8766006C003A0097
:1087700061004000E080480070059800010D9800FD
:108780005A019000EA0190001A007800E00F5100B1
:10879000E08F590004003A0040009000808F56009E
:1087A0005F00390067003700A04090008180FB0027
:1087B0008100E900446ADE008480600058003A00CD
:1087C000EAFD07000004BE002B002000E10F50006E
:1087D000E08F58005B0036001B002000E10F4000D6
:1087E000E08F4800570032001A00780030099000EE
:1087F000C0099000820F5400838F5C004100390053
:108800004B002000E00F56004E0032005A0190004D
:10881000EA01900053FF07000004BE007B00200027
:10882000E00F5000E08F5800460032002B0020007F
:10883000E10F5000E08F5800420032001B00200082
:10884000E10F4000E08F48003E0032006011B800A8
:108850001A007800F8F9070000067800E00F5600CB
:1088600038003A00E10220001A8040000220200077
:108870008C007800E9F907001A0278000801BE00B0
:108880000400780084BF9F00A0FD07000FBA970086
:1088900050129800611298000E0037004B4098006B
:1088A0006011B8001A007800E3F90700E00F5000EB
:1088B00023003A001A01780052109000E210900054
:1088C00061004000E080480050119800611198005C
:1088D0000C46E8001A007800A0409000814F560036
:1088E000EEFF39000C81FB000300200050129000C5
:1088F000E01290000201520083815A005210980049
:108900006310980058059800690598000801BE009A
:108910001A0078007DFD070070059800010D980091
:108920002D059800E10220001A8040004577DD0007
:108930000E0740001E0D98008005EB000100370077
:108940001B0020000B0078004F0778004F06BE0088
:108950004F05BE004F04BE004F00B10000000600EE
:10896000889FBE0080047800090078000DFE070093
:1089700000047800E00F540017003A0079019000DD
:108980008909900019007800ABF90700000478000D
:10899000E00F540010003A00190890008040EB00EE
:1089A00090CF10000B003200B0489000E8806000CB
:1089B00004003A00A9089000C1FC0700E00F500035
:1089C000050032008000EB000900780056FF070028
:1089D000E7FF370048002000080078004F04BE0081
:1089E000000006000200FA00889FBE000004780024
:1089F000D1BF9F0011407800F2C2B300824F5000F7
:108A000003003200C2C5B300824F500002003A009A
:108A10008100E800D1BF9F006000B80030049800DA
:108A2000410498005FB89700F1C1B30090CF1000E7
:108A300005003E0008007800DAFD07008000EB002A
:108A4000110C98002B003700F4044400E680570016
:108A500009007800B5FC0700E00F500025003A003F
:108A600008007800BEFF0700A8089000B1489000F9
:108A7000E00F500005003200E40F50001D003A00E6
:108A8000E48060001A0032001A003700E4806000C1
:108A900018003A009808900031489000700060007B
