:020000040000FA
:100000000848040001000000FC230000FC2300005D
:10001000FC230000FC230000FC230000FC23000064
:10002000FC230000FC230000FC230000FC23000054
:10003000FC230000B8F40000FC230000FC230000B7
:10004000FC230000DEF4000004F50000FC230000A7
:10005000FC230000FC230000FC2300004CFD0000FA
:10006000FC230000FC230000FC23000022E400002D
:10007000FC230000DCFC00009AFA0000FC230000D6
:10008000FC23000004FC0000FC230000FC23000013
:10009000FC2300003AF5000060F50000DAFA0000E9
:1000A000FC230000FC230000FC230000FC230000D4
:1000B000FC230000FC230000FC230000FC230000C4
:1000C000FC230000FC230000FC230000FC230000B4
:1000D000FC230000FC23000022FD0000FC230000A4
:1000E000FC230000FC230000FC230000FC23000094
:1000F000B8E40000FC230000FC230000D42300002F
:1001000016FB0000FC230000FC230000FC23000081
:10011000FC230000FC230000FC230000FC23000063
:10012000FC230000FC230000FC230000FC23000053
:10013000FC230000FC230000FC230000FC23000043
:10014000FC230000FC230000C0230000FC2300006F
:10015000FC230000FC230000FC230000FC23000023
:10016000FC230000FC230000FC230000FC23000013
:10017000FC230000FC230000FC2300004EE50000EF
:10018000A4F30000FC230000FC230000FC2300007B
:10019000FC230000FC230000FC2300006AF60000A2
:1001A000FC230000FC230000FC230000FC230000D3
:1001B000FC230000FC230000FC230000FC230000C3
:1001C000FC230000FC230000FC230000FC230000B3
:1001D000FC230000FC230000FC230000FC230000A3
:1001E000FC230000FC230000FC230000FC23000093
:1001F000FC230000FC230000FC230000FC23000083
:100200000000000000000000FC230000FC230000B0
:10021000FC230000FC230000FC230000FC23000062
:10022000FC230000FC230000FC230000FC23000052
:10023000FC230000B8F40000FC230000FC230000B5
:10024000FC230000DEF4000004F50000FC230000A5
:10025000FC230000FC230000FC2300004CFD0000F8
:10026000FC230000FC230000FC23000022E400002B
:10027000FC230000DCFC00009AFA0000FC230000D4
:10028000FC23000004FC0000FC230000FC23000011
:10029000FC2300003AF5000060F50000DAFA0000E7
:1002A000FC230000FC230000FC230000FC230000D2
:1002B000FC230000FC230000FC230000FC230000C2
:1002C000FC230000FC230000FC230000FC230000B2
:1002D000FC230000FC23000022FD0000FC230000A2
:1002E000FC230000FC230000FC230000FC23000092
:1002F000B8E40000FC230000FC230000D42300002D
:1003000016FB0000FC230000FC230000FC2300007F
:10031000FC230000FC230000FC230000FC23000061
:10032000FC230000FC230000FC230000FC23000051
:10033000FC230000FC230000FC230000FC23000041
:10034000FC230000FC230000C0230000FC2300006D
:10035000FC230000FC230000FC230000FC23000021
:10036000FC230000FC230000FC230000FC23000011
:10037000FC230000FC230000FC2300004EE50000ED
:100380009E480100FC230000FC230000FC23000029
:10039000FC230000FC230000FC2300006AF60000A0
:1003A000FC230000FC230000FC230000FC230000D1
:1003B000FC230000FC230000FC230000FC230000C1
:1003C000FC230000FC230000FC230000FC230000B1
:1003D000FC230000FC230000FC230000FC230000A1
:1003E000FC230000FC230000FC230000FC23000091
:1003F000FC230000FC230000FC230000FC23000081
:1004000000480400010000004FA72300607D240085
:1004100000018800000000000B00070000082C000D
:100420000100200010000700000020000000E00094
:1004300002003200000002000000000086B5020049
:10044000000000000000FE004440A90080C0210020
:100450000000E0000300320000002000A00188003E
:100460004440A80000000600F8FF2000591C2100AD
:1004700091018800800078000000EB001A0037002E
:100480008180E80032A0B4009101BA00E28040000F
:1004900032A0B4009102BA00E280400032A0B40061
:1004A0000002EB00472BDE00F507B200602CE100F4
:1004B00009003A00330007000700E00002003200A4
:1004C0000059EB00010037000201E8008301E90058
:1004D000F8FF3E00040037006128E100010032000F
:1004E0000082EB00040007001101BA000200E000E6
:1004F000E3FF3A0000000600220007000700E000CA
:10050000020032003159BA00020037008100E800D1
:100510000201E8008301E90017003200190007001A
:100520000700E000020032002159BA000200370043
:100530008100E9000201E8008301E9000D003200BA
:100540000400E00003003A00E280400032A0B40062
:10055000E9FF37000B0007000700E000020032004F
:1005600011D9BA00010037000201E8008301E90057
:10057000F5FF3A008100E800E180400032A0B400BD
:10058000000006000810E600020037000910E6002F
:10059000020037008083EB00000006008003EB00C0
:1005A000000006008A1F78008B1F780000000600FC
:1005B00091018800800478000000EB001A003700E9
:1005C000E284440032A0B4009905BA00E2844400F9
:1005D00032A0B4009906BA00E284440032A0B4000C
:1005E0000006EB00476FDE00FD07B200636CE10020
:1005F00003003A00EBFF07000000EB000A003700A1
:10060000606CE10004003A00005DEB008B05E9003E
:10061000FDFF3E00040037006168E1000100320088
:100620000086EB000B00070019C7BA001905BA00D5
:100630000E04E00003003A000A00E000E0FF3A0088
:1006400000000600FE07B2009E0188008A047800C0
:10065000F5FF3700395DBA008B05E9000C00320068
:10066000295DBA008B05E900080032000C00E000AB
:1006700003003A00E284440032A0B400F5FF3700E2
:1006800019DDBA008B05E900FAFF3A008904E80099
:10069000E184440032A0B40000000600C2D404008B
:1006A0000000000038B40400000000006CB3040037
:1006B0000000000086B3040000000000D6B3040070
:1006C0000000000012EB04000000000056E30400EC
:1006D0000000000054F6040000000000F0C4040014
:1006E0000000000072BC0400000000003AAE0400EC
:1006F0000000000036AE04000000000070AE0400F0
:10070000000000003EAE040000000000DEB0040067
:1007100000000000B264040000000000E464040073
:10072000000000001465040000000000566504008D
:10073000000000009E65040000000000E665040063
:10074000000000002C66040000000000A466040005
:1007500000000000F0660400000000003C67040098
:10076000000000009C670400000000000A6804000C
:10077000000000008868040000000000D868040041
:1007800000000000F4680400000000007C69040020
:1007900000000000D469040000000000106A04009A
:1007A000000000004C6A040000000000B26A04006F
:1007B00000000000EA6B0400000000001C6C040054
:1007C00000000000406C0400000000008E6C04007B
:1007D000000000000C6D0400000000005A6D0400D1
:1007E00000000000A46D040000000000D26D0400B1
:1007F00000000000046E040000000000466E0400CB
:1008000000000000DC9C0400000000004A9D040081
:1008100000000000109D040000000000849D040002
:1008200000000000049E040000000000429E04003E
:1008300000000000EC9E040000000000609F040027
:1008400000000000269F04000000000034A1040006
:10085000000000009A9F040000000000F89F0400C0
:100860000000000090A0040000000000C6A00400EA
:1008700000000000E2A0040000000000FEA0040050
:100880000000000064A10400000000009AA1040020
:1008900000000000B6A10400000000001EA2040039
:1008A000000000004EA20400000000007EA2040030
:1008B00000000000AAA2040000000000C0A2040082
:1008C00000000000BE9D04000000000042B50400CE
:1008D0000000000062DE040000000000DEDE040014
:1008E0000000000004DC0400000000003EFD0400E5
:1008F00000000000949A04000000000056B70400B5
:1009000000000000B29B040000000000020AB900D1
:10091000001BB9000200B8008100420081004300C2
:10092000000006006022B800060220000000D0008F
:100930008180D2000482D2008582D2000000A00013
:100940000202520083825A00030031000202420078
:1009500083824A000000A1000603E900F3FF3A0089
:100960000000060080017800110009008280D80094
:100970008001FD00110009004288D8008300780042
:1009800000000600839F68000100E00002003D00B7
:1009900060001000E08018000300E00002003D004D
:1009A00060011100E0811900DEFF07004F00E00048
:1009B00002003B0060001000E0801800000006000C
:1009C000889FBE008A9FBE008C1F78000006EB0047
:1009D000E00F5000E08F5800E00F5900E08F590001
:1009E00007003D006044B8006055B80000005400A6
:1009F00081805C0002015D0083815D001C0020009D
:100A0000E00F5200E08F5A00E00F5B00E08F5B00C8
:100A100007003D006044B8006055B800040254006F
:100A200085825C0006035D0087835D000C00A200E8
:100A3000000107000C00E000060032006022B80050
:100A40006033B8000000520081805A0002015B0050
:100A500083815B004F0678004F05BE004F04BE0047
:100A600000000600889FBE008A9FBE00300442003E
:100A7000B0844A0030054B0090854B006000B10007
:100A80000898BE000A90BE00C100070002003100B5
:100A9000680040001008E8004F05BE004F04BE008B
:100AA00000000600889FBE008A9FBE003004BE0082
:100AB0002005BE000418540005985C0006185D006F
:100AC00007985D0011002000B10007000100390007
:100AD0008000EB00108810004F05BE004F04BE00E0
:100AE000000006001200FA00889FBE008A9FBE0028
:100AF0008C9FBE00E0B79F00F1B79F0082BF9F00B0
:100B000093BF9F000605BE000404BE000000EB007A
:100B1000D0B79F00C0B79F00B0B79F00A0B79F009D
:100B200090B79F000006EB005FB19700CFB0970031
:100B3000820141003FB097000200E00004003D0048
:100B4000980007007E805700C6FF070003003700AB
:100B5000940007007E805700D2FF0700DFB69700A1
:100B60000D00E0000C0035006FB29700FFB2970057
:100B70000FBB97009FBB97001000200001002000D2
:100B80006011B800000272008182720002037300DB
:100B900083837300580007000C06E800010420005E
:100BA000810F5600E0FF3A000D00E00004003D0018
:100BB0000802BE000A03BE007E805700A9FF07009E
:100BC0005FA897000000E00005003A001FB2970000
:100BD000AFB297003FB39700CFB39700460007002E
:100BE0006FB09700FFB097000FB997009FB99700BB
:100BF0004F06BE004F05BE004F04BE000080FA0045
:100C000000000600881F780018002000881F780068
:100C1000B4FF07008F87E9004F047800000006004A
:100C2000801FEB00AFFF07008F87E9000000060080
:100C3000889FBE008A9FBE003D00070007003D0060
:100C400040000700180020004500070008003D0094
:100C50002B0007000004EB00050037000004EB0048
:100C60003F00070002003D0025000700180020009B
:100C7000E4FF07000800E000010032003D0007002B
:100C80004F05BE004F04BE0000000600889FBE0056
:100C90008A9FBE008C1F78002500070008003D00D9
:100CA000280007001C0020000820E10009A8E1003E
:100CB0000AB0E1000BB8E10007003D000500370075
:100CC0000006EB002600070003003D006044B8006A
:100CD0006055B8000C000700D1FF07000C00E000D1
:100CE00001003200230007004F0678004F05BE00C8
:100CF0004F04BE00000006000800070000000600C8
:100D00006044B8006055B8000402540085825C005D
:100D100006035D0087835D0000000600A4B79F0006
:100D2000B5B79F00C6B79F00D7B79F000000060069
:100D3000E00F5000E08F5800E00F5900E08F59009D
:100D4000000006006044B8006055B8000000540080
:100D500081805C0002015D0083815D00000006006F
:100D6000E00F5200E08F5A00E00F5B00E08F5B0065
:100D7000000006006022B8006033B8000000520096
:100D800081805A0002015B0083815B000000060045
:100D90000440E10005C8E10006D0E10007D8E10009
:100DA000000006004F09DE0082817100B3B79F008A
:100DB0004F01DE008180400082807000A1B79F005B
:100DC0008FB097004F09DE00000040000200700065
:100DD00090B79F007FA897004F01DE008180400000
:100DE0008280700081B79F000D0007004F3ADE003F
:100DF0000000400004007000F0AF9F0008000700F2
:100E00000402420085824A0006034B0087834B00A0
:100E1000C2FF07000802BE000A03BE000000060071
:100E20002FB29700BFB297004FB39700DFB3970080
:100E300000000600889FBE008A9FBE008C9FBE00F7
:100E40000404B8000506B8008904460060854E0019
:100E50000606B8000A054600E0854E000706B80001
:100E60008B054600040EB800890446000A854E0032
:100E7000E0854D00050EB8000A0546008B854E0042
:100E8000060EB8008B0546000416B8000A05460099
:100E90008B854E000516B8008B054600041EB80071
:100EA0008B0546000800BE000A01BE004F06BE00CA
:100EB0004F05BE004F04BE00000006008000780011
:100EC0003104E000FEFF3A000080EA0000804000AC
:100ED0000000060080017800020037008159780088
:100EE0000201E9000200E000FCFF3A0000000600F9
:100EF000E68747008E1F7800D0BF9F00E1BF9F00AC
:100F00000E0037005FBA970014407800EFB99700E1
:100F1000934078000201E900814F50000400320044
:100F20000080FB008180FB000100500006003700BC
:100F300066875700041FE800030FE8000200E00086
:100F4000F0FF3A000000EB004F0778006F00B1009F
:100F5000000006008001780002003700B1597800D7
:100F60000201E9000200E000FCFF3A000000060078
:100F70004E6500006761000074690000766500003E
:100F8000206900006E70000075740000207400007D
:100F90006F2000007371000072740000006D00008B
:100FA00061740000682E0000636F0000707900001B
:100FB000006300006F70000069650000732000008E
:100FC0007372000063200000746F00002064000052
:100FD0006573000074200000656C0000656D000002
:100FE000656E00007420000062790000206500003A
:100FF0006C6500006D6500006E7400000064000008
:10100000657300007400000073720000630000004C
:10101000CF870000D9870000FFFF0000FF87000096
:10102000FFFF000004880000000000000000000036
:101030006D610000746800002E660000696C00009D
:101040006C000000666900006C6C000073200000FA
:10105000646500007374000020770000697400006C
:1010600068200000636F00006E7300007461000070
:101070006E74000020760000616C00007565000051
:1010800000760000616C0000756500000000000043
:101090001888000022880000FFFF0000FF87000082
:1010A0000100000041880000000000000000000076
:1010B0006D610000746800002E610000646400002F
:1010C00073630000616C0000617200000061000049
:1010D0006464000020730000636100006C61000024
:1010E00072200000746F0000206500006163000042
:1010F00068200000656C0000656D0000656E0000F2
:10110000742000006F66000020730000726300000E
:10111000206100006E64000020730000746F000006
:10112000726500002072000065730000756C00009D
:1011300074200000746F00002064000065730000DC
:101140007400000073630000616C000061720000B5
:10115000000000005888000067880000FFFF0000C2
:10116000FF870000FFFF000004880000010000006E
:10117000A288000000000000000000006D61000077
:10118000746800002E6100006464000000610000CB
:10119000646400007320000073720000633100007B
:1011A000206100006E640000207300007263000084
:1011B000322C000020770000726900007465000086
:1011C000207400006F20000064650000737400004C
:1011D0002C200000656C0000656D0000656E00004D
:1011E0007420000062790000206500006C6500003A
:1011F0006D6500006E7400000073000072630000F3
:101200003100000073720000633200000000000033
:10121000BE880000C7880000FFFF0000FF870000B5
:10122000FFFF0000FD880000FFFF000002890000B2
:1012300000000000000000006D6100007468000004
:101240002E730000756200000073000075620000DC
:10125000737400007261000063740000732000006A
:10126000737200006332000020660000726F00009D
:101270006D200000737200006331000020740000D4
:101280006F20000064650000737400002C200000D3
:10129000656C0000656D0000656E00007420000044
:1012A00062790000206500006C6500006D6500003B
:1012B0006E740000000000001C89000025890000F9
:1012C000FFFF0000FF870000FFFF0000FD88000017
:1012D000FFFF000002890000000000000000000085
:1012E0006D610000746800002E6D0000756C0000D8
:1012F000006D0000756C000074690000706C0000E7
:101300006965000073200000737200006331000003
:10131000206100006E640000207300007263000012
:1013200032200000746F000020640000657300002C
:10133000742C0000206500006C6500006D650000E5
:101340006E7400002062000079200000656C0000CF
:10135000656D0000656E000074000000708900007B
:1013600079890000FFFF0000FF870000FFFF0000F9
:10137000FD880000FFFF000002890000000000005F
:10138000000000006D610000746800002E64000021
:10139000697600000064000069760000696400005E
:1013A00065730000207300007263000031200000AC
:1013B0006279000020730000726300003220000098
:1013C000746F00002064000065730000742C00003E
:1013D000206500006C6500006D6500006E74000003
:1013E0002062000079200000656C0000656D00003F
:1013F000656E000074000000C2890000CB89000007
:10140000FFFF0000FF870000FFFF0000FD880000D5
:10141000FFFF000002890000000000000000000043
:101420006D610000746800002E6D0000696E0000A0
:1014300000770000726900007465000073200000EE
:1014400074680000652000006D6900006E6900008E
:101450006D7500006D2000006F66000020730000B5
:101460007263000031200000616E00006420000003
:101470007372000063320000207400006F200000CF
:1014800064650000737400002C200000656C00008F
:10149000656D0000656E0000742000006279000038
:1014A000206500006C6500006D6500006E74000032
:1014B00000000000108A0000198A0000FFFF0000F1
:1014C000FF870000FFFF0000FD880000FFFF000015
:1014D0000289000000000000000000006D610000B3
:1014E000746800002E6D0000617800000077000035
:1014F00072690000746500007320000074680000C9
:10150000652000006D610000786900006D750000C5
:101510006D2000006F660000207300007263000001
:1015200031200000616E0000642000007372000032
:1015300063320000207400006F200000646500002A
:10154000737400002C200000656C0000656D0000C5
:10155000656E0000742000006279000020650000C4
:101560006C6500006D6500006E74000000000000F6
:101570006E8A0000778A0000FFFF0000FF870000EE
:10158000FFFF0000FD880000FFFF0000028900004F
:1015900000000000000000006D61000074680000A1
:1015A0002E6300006C6100006D700000006300009D
:1015B0006C6100006D700000207300007263000019
:1015C000207400006F2000006C6F0000772F000077
:1015D0006869000067680000206200006F75000005
:1015E0006E64000073200000696E0000746F0000DC
:1015F0002064000065730000742C0000206500006A
:101600006C6500006D6500006E74000020620000D3
:1016100079200000656C0000656D0000656E0000BB
:10162000740000006C6F0000770000006869000023
:101630006768000000000000CC8A0000D78A000024
:10164000FFFF0000FF870000FFFF0000048800008C
:10165000FFFF0000128B0000FFFF0000168B000050
:1016600000000000000000006D61000074680000D0
:101670002E6400006F7400000077000072690000A3
:10168000746500007320000074680000652000008D
:10169000646F000074200000707200006F6400002E
:1016A00075630000742000006F6600002073000066
:1016B0007263000031200000616E000064200000B1
:1016C0007372000063320000207400006F2000007D
:1016D00064650000737400002C2000006166000047
:1016E0007465000072200000612000007368000033
:1016F00069660000740000007368000069660000FD
:1017000074000000348B00003D8B000001000000DD
:10171000FF870000FFFF0000FD880000FFFF0000C2
:1017200002890000010000007C8B00000000000026
:10173000000000006D610000746800002E7300005E
:1017400074610000740000007065000072660000A3
:101750006F7200006D730000207300007461000060
:101760007469000073740000696300007320000056
:101770006F6E00002073000072630000006D0000B7
:10178000696E0000006D000061780000006D0000CF
:10179000656100006E0000009A8B0000A48B0000C1
:1017A000FFFF00000488000001000000BF8B000064
:1017B00001000000C38B000001000000C78B000087
:1017C00000000000000000006D610000746800006F
:1017D0002E61000072670000626F0000756E0000ED
:1017E000647300000067000065740000207400004E
:1017F00068650000206900006E64000069630000F5
:10180000657300002028000061720000676D000011
:10181000696E00002C20000061720000676D0000FE
:1018200061780000292000006F660000207400002D
:1018300068650000206C0000696D0000697400009C
:1018400020760000616C00007565000073200000C8
:101850006F660000207300007263000000610000EA
:10186000726700006D6900006E0000006172000088
:10187000676D00006178000000000000E48B00004C
:10188000F38B0000FFFF000004880000010000004F
:101890002F8C000001000000368C000000000000CA
:1018A000000000006D610000746800002E730000ED
:1018B0006F72000074000000736F0000727400000B
:1018C0002061000072720000617900002069000050
:1018D0006E200000706C0000616300006500000075
:1018E000617200007261000079000000528C0000FB
:1018F0005C8C0000FFFF0000708C00000000000006
:10190000000000006D610000746800002E6D000092
:10191000756C0000646900007600000070650000CE
:10192000726600006F7200006D730000206400009A
:1019300065730000742000003D2000002861000055
:101940002A620000292F000063200000696E000059
:101950002033000032200000626900007473000030
:10196000206500006C6500006D6500006E7400006D
:101970002062000079200000656C0000656D0000A9
:10198000656E00007400000061000000620000004D
:1019900063000000828C00008E8C0000FFFF0000BE
:1019A000FF870000FFFF0000C48C0000FFFF000065
:1019B000C68C0000FFFF0000C88C00000000000083
:1019C000000000006D610000746800002E610000DE
:1019D000746100006E32000000700000657200004B
:1019E000666F0000726D00007320000064650000E7
:1019F00073740000203D000020610000746100004D
:101A00006E320000287900002C78000029200000A8
:101A1000656C0000656D0000656E000074200000BC
:101A200062790000206500006C6500006D650000B3
:101A30006E740000007900000078000000000000D3
:101A4000E28C0000ED8C0000FFFF0000FF8700002B
:101A5000FFFF00001B8D0000FFFF00001D8D000038
:101A600000000000000000006D61000074680000CC
:101A70002E730000696E00000070000065720000A7
:101A8000666F0000726D0000732000006465000046
:101A900073740000203D000020730000696E000098
:101AA0002878000029200000656C0000656D0000AA
:101AB000656E00007420000062790000206500005F
:101AC0006C6500006D6500006E7400000000000091
:101AD000348D00003D8D0000FFFF0000FF870000F7
:101AE000FFFF00001D8D000000000000000000004E
:101AF0006D610000746800002E6300006F730000C9
:101B00000070000065720000666F0000726D0000DA
:101B1000732000006465000073740000203D000025
:101B2000206300006F730000287800002920000067
:101B3000656C0000656D0000656E0000742000009B
:101B400062790000206500006C6500006D65000092
:101B50006E74000000000000788D0000818D000090
:101B6000FFFF0000FF870000FFFF00001D8D000049
:101B700000000000000000006D61000074680000BB
:101B80002E7200006F74000032000000726F0000BF
:101B9000746100007465000073200000762000006E
:101BA0006F660000206100006E6700006C65000039
:101BB00020610000207400006F20000064650000B8
:101BC000737400000076000000000000BC8D00006F
:101BD000C68D000002000000FF8700000200000028
:101BE000E38D000001000000C48C00000000000034
:101BF000000000006D610000746800002E7300009A
:101C000071720000740000007065000072660000D0
:101C10006F7200006D7300002064000065730000A7
:101C2000742000003D2000007371000072740000F9
:101C30002878000029200000656C0000656D000018
:101C4000656E0000742000006279000020650000CD
:101C50006C6500006D6500006E74000000000000FF
:101C6000FA8D0000048E0000FFFF0000FF870000D7
:101C7000FFFF00001D8D00000000000000000000BC
:101C80006D610000746800002E6E00007A73000021
:101C90006571000000770000726900007465000043
:101CA000207400006F200000646500007374000061
:101CB0002074000068650000206D00006964000069
:101CC000646C000065200000696E0000646500001F
:101CD000782000006F660000207400006865000036
:101CE000206C0000617200006765000073740000E2
:101CF0002073000065710000756500006E630000D0
:101D0000652000006F660000206E00006F6E00000E
:101D10002D7A0000657200006F200000656C0000E5
:101D2000656D0000656E00007473000020660000A1
:101D3000726F00006D20000073720000632C0000C1
:101D4000202D00003120000069660000206E000098
:101D50006F740000206600006F7500006E64000064
:101D6000206F0000722000006966000020730000F0
:101D70006D6100006C6C0000657200002074000052
:101D8000686100006E2000006D6900006E4C00006C
:101D9000656E000067740000680000006D69000057
:101DA0006E4C0000656E0000677400006800000063
:101DB000408E00004B8E000001000000FF870000F5
:101DC000FFFF00000488000001000000CE8E00002C
:101DD00000000000000000006D6100007468000059
:101DE0002E720000616E0000640000006669000051
:101DF0006C6C0000206100007272000061790000CC
:101E00002077000069740000682000007261000003
:101E10006E6400006F6D000020760000616C0000B1
:101E20007565000073000000EC8E0000F68E000067
:101E3000FFFF0000FF87000000000000000000001E
:101E40006465000071750000652E00007369000074
:101E50007A65000000720000657000006F7200007B
:101E600074200000736900007A650000206F000094
:101E700066200000646500007374000000640000C8
:101E8000657100007565000000730000697A00004C
:101E900065000000208F00002B8F0000FFFF000076
:101EA0003F8F000001000000458F0000000000008F
:101EB000000000006465000071750000652E0000E0
:101EC0006765000074000000666900006C6C00002B
:101ED000206400006573000074200000667200003A
:101EE0006F6D0000206400006571000075650000E2
:101EF0002061000074200000696E0000646500002D
:101F000078000000696E0000646500007800000041
:101F10005A8F0000648F0000FFFF00003F8F000019
:101F2000FEFF0000FF87000001000000828F00001C
:101F300000000000000000006465000071750000F2
:101F4000652E00007365000074000000636F0000E0
:101F50007069000065730000207300007263000068
:101F6000207400006F20000064650000717500009F
:101F70006520000061740000206900006E640000AC
:101F800065780000000000009C8F0000A68F000014
:101F9000FFFF00003F8F0000FEFF000004880000EC
:101FA00001000000828F000000000000000000001F
:101FB0006465000071750000652E0000696E000008
:101FC000736500007274000000730000686900000F
:101FD00066740000206400006571000075650000F3
:101FE0002061000074200000696E0000646500003C
:101FF0007820000062790000206C0000656E00000F
:10200000287300007263000029200000616E000048
:1020100064200000696E00007365000072740000A7
:10202000207300007263000000000000D88F0000E1
:10203000E58F0000FFFF00003F8F0000FEFF000063
:102040000488000001000000828F000000000000F2
:10205000000000006465000071750000652E00003E
:102060006572000061730000650000007368000085
:10207000696600007420000064650000717500004E
:102080006520000061740000206900006E6400009B
:102090006578000020620000792000006C65000077
:1020A0006E200000746F0000206500007261000067
:1020B00073650000006C0000656E00000000000009
:1020C0002A90000036900000FFFF00003F8F0000C4
:1020D00001000000828F0000010000005B90000002
:1020E0000000000000000000646500007175000041
:1020F000652E000070750000736800005F660000C8
:10210000726F00006E740000006900006E730000C2
:1021100065720000742000007372000063200000EC
:1021200062650000666F00007265000020740000A8
:102130006865000020660000726F00006E74000089
:10214000206F0000662000006465000071750000CB
:10215000650000007490000085900000FFFF000003
:102160003F8F0000FEFF0000048800000000000018
:10217000000000006465000071750000652E00001D
:1021800070750000736800005F620000616300000A
:102190006B000000696E000073650000727400003F
:1021A000207300007263000020610000667400006C
:1021B0006572000020740000686500002062000065
:1021C000616300006B2000006F6600002064000067
:1021D000657100007565000000000000BA90000005
:1021E000CA900000FFFF00003F8F0000FEFF0000CC
:1021F000048800000000000000000000646500008A
:1022000071750000652E0000706F0000705F0000A7
:10221000667200006F6E00007400000066690000C6
:102220006C6C0000206400006573000074200000E6
:10223000667200006F6D000020660000726F000083
:102240006E740000206F00006620000064650000CE
:10225000717500006520000074680000656E000064
:1022600020650000726100007365000020650000B9
:102270006C6500006D6500006E7400007300000066
:10228000FE9000000E910000FFFF00003F8F000055
:10229000FEFF0000FF8700000000000000000000BB
:1022A0006465000071750000652E0000706F00000D
:1022B000705F000062610000636B00000066000058
:1022C000696C00006C2000006465000073740000FD
:1022D00020660000726F00006D2000006261000047
:1022E000636B0000206F0000662000006465000042
:1022F000717500006520000074680000656E0000C4
:102300002065000072610000736500002065000018
:102310006C6500006D6500006E74000073000000C5
:10232000509100005F910000FFFF00003F8F000010
:10233000FEFF0000FF87000000000000000000001A
:10234000000000009301000024030000B704000017
:1023500048060000DA0700006B090000FC0A0000D4
:102360008C0C00001C0E0000AB0F00003B110000A5
:10237000C812000056140000E31500006E1700009C
:10238000F9180000831A00000C1C0000941D0000C6
:102390001A1F0000A020000024220000A723000034
:1023A00029250000A826000027280000A4290000F5
:1023B000202B0000992C0000122E0000872F000017
:1023C000FC3000006F320000DF3300004E350000AB
:1023D000BA360000253800008D390000F33A0000BD
:1023E000573C0000B93D0000173F0000744000005A
:1023F000CE410000264300007B440000CD45000094
:102400001D4700006A480000B4490000FC4A000073
:10241000404C0000824D0000C04E0000FC4F000008
:1024200034510000695200009B530000CA54000060
:10243000F65500001E570000435800006459000084
:10244000835A00009D5B0000B45C0000C85D000082
:10245000D75E0000E45F0000EC600000F161000066
:10246000F2620000EF630000E9640000DE65000036
:10247000D0660000BD670000A76800008C690000FE
:102480006E6A00004B6B0000246C0000F96C0000C9
:10249000CA6D0000976E00005F6F0000237000009F
:1024A000E37000009E710000557200000873000088
:1024B000B67300006074000005750000A57500008B
:1024C00042760000D97600006C770000FB770000B0
:1024D00084780000097900008A790000067A0000FB
:1024E0007D7A0000EF7A00005D7B0000C67B000073
:1024F0002A7C0000897C0000E47C0000397D00001B
:102500008A7D0000D77D00001D7E0000607E0000F7
:102510009D7E0000D67E0000097F0000397F00000C
:10252000627F0000877F0000A77F0000C27F00005D
:10253000D87F0000EA7F0000F67F0000FE7F0000E9
:10254000FF7F00008C020000DF020000300300006B
:1025500080030000D1030000220400007304000087
:10256000C204000014050000B3050000540600007A
:10257000F10600008F0700002D080000CA080000C7
:1025800063090000FC090000340B00005C0C000033
:10259000820D0000A40E0000BD0F0000D31000004B
:1025A000E2110000E7120000EF140000CC1600005A
:1025B00092180000401A0000D61B0000531D0000B6
:1025C000B51E00000B200000792200008D240000C1
:1025D0006F2600001428000090290000E02A000067
:1025E000112C0000252D0000052F0000893000006F
:1025F000D3310000EC320000DD330000AE340000C7
:10260000673500000D36000020370000FB37000062
:10261000B23800004A390000CC3900003B3A0000D3
:102620009B3A0000F33A0000833B0000F43B0000BB
:10263000513C00009F3C0000E13C00001A3D0000BE
:102640004B3D0000783D0000C03D0000F93D00001A
:10265000283E00004F3E0000703E00008D3E00000E
:10266000A53E0000BC3E0000E03E0000FD3E000034
:10267000143F0000283F0000383F0000473F0000A3
:10268000533F00005E3F0000703F00007F3F0000AE
:102690008A3F0000943F00009C3F0000A43F0000E0
:1026A000AA3F0000AF3F0000B83F0000C03F00005D
:1026B000C53F0000CB3F0000CE3F0000D23F0000EE
:1026C000D53F0000D83F0000DC3F0000E03F0000A5
:1026D000E33F0000E53F0000E83F0000E93F000065
:1026E000EB3F0000EC3F0000EE3F0000F13F000038
:1026F000F13F0000F33F0000F43F0000F53F000011
:10270000F53F0000F73F0000F73F0000F93F0000F1
:10271000F83F0000FA3F0000FA3F0000FA3F0000D7
:10272000FB3F0000FB3F0000FC3F0000FC3F0000BF
:10273000FC3F0000FE3F0000FD3F0000FD3F0000A9
:10274000FD3F0000FE3F0000FE3F0000FE3F000096
:10275000FE3F0000FE3F0000FE3F00000040000082
:10276000FF3F0000FF3F0000FF3F0000FF3F000071
:10277000FF3F0000FF3F0000FF3F0000FF3F000061
:10278000FF3F0000FF3F0000FF3F0000004000004F
:102790000040000000400000004000000040000039
:1027A0000040000000400000004000000040000029
:1027B0000040000000400000004000000040000019
:1027C000004000000040000041640000647200000E
:1027D00065730000732000006F7500007420000016
:1027E0006F660000207300006574000074690000CB
:1027F0006E67000073000000536C00006565000008
:10280000702000006D6F000064650000206E000005
:102810006F7400002073000075700000706F00007E
:1028200072740000656400000045000072720000D0
:102830006F7200003A2000006D6900006E200000F9
:102840003D3D000020300000784600004646000074
:1028500046460000464600004620000021000000D9
:1028600045720000726F0000723A000020550000AF
:102870006E610000626C000065200000746F000053
:10288000206600006C610000736800002062000098
:1028900079740000656300006F640000652000002B
:1028A00028310000292000002100000045720000AE
:1028B000726F0000723A0000205500006E61000047
:1028C000626C000065200000746F0000206600004C
:1028D0006C610000736800002062000079740000E1
:1028E000656300006F64000065200000283200006E
:1028F000292000002100000045720000726F0000D6
:10290000723A0000205500006E610000626C000009
:1029100065200000746F0000206600006C610000FC
:102920007368000020620000797400006563000095
:102930006F6400006520000028330000292000009B
:1029400021000000466C000061730000686900000F
:102950006E670000204F00004B000000564D000045
:102960002041000053530000455200005420000055
:102970002100000074680000796D0000696F00009C
:102980002D490000490000005F690000640000005C
:1029900065760000656E0000742E0000736F000005
:1029A0007572000063650000006500007665000038
:1029B0006E7400002E61000072670000730000005A
:1029C0005F660000777600006572000073690000A2
:1029D0006F6E0000005F0000707200006F64000006
:1029E0007563000074490000640000006275000017
:1029F000747400006F6E0000732E00005F720000A0
:102A0000617700000062000075740000746F0000C0
:102A10006E2E000062610000636B000077610000B1
:102A2000726400000062000075740000746F0000A2
:102A30006E2E00006C6500006674000000620000ED
:102A400075740000746F00006E2E00006365000056
:102A50006E74000065720000006200007574000072
:102A6000746F00006E2E0000666F00007277000029
:102A70006172000064000000627500007474000060
:102A80006F6E00002E72000069670000687400001D
:102A90000062000075740000746F00006E73000027
:102AA0002E5F00006D650000616E00000062000096
:102AB00075740000746F00006E7300002E5F0000DC
:102AC0006E6F000069730000650000007072000006
:102AD0006F7800002E6800006F720000697A0000B5
:102AE0006F6E0000746100006C00000070720000E6
:102AF0006F7800002E6300006F6D00006D2E0000E7
:102B0000727800002E5F000070610000796C000098
:102B10006F6100006473000000700000726F0000BD
:102B2000782E0000636F00006D6D00002E720000B3
:102B3000782E00005F6900006E740000656E000072
:102B40007369000074690000657300000070000084
:102B5000726F0000782E0000636F00006D6D000042
:102B60002E72000078000000707200006F78000084
:102B70002E6300006F6D00006D2E00007478000061
:102B800000700000726F0000782E00006772000075
:102B90006F7500006E6400002E6100006D62000021
:102BA000696100006E74000000700000726F000028
:102BB000782E0000677200006F7500006E640000E0
:102BC0002E720000656600006C65000063740000F2
:102BD0006564000000700000726F0000782E000035
:102BE000677200006F7500006E6400002E640000C4
:102BF000656C000074610000006D00006F740000DF
:102C00006F7200002E6C000065660000742E0000DC
:102C1000746100007267000065740000006D0000C0
:102C20006F7400006F7200002E7200006967000070
:102C3000687400002E740000617200006765000077
:102C4000740000005F760000626100007400000004
:102C50005F6900006D6F0000740000006D6F000080
:102C6000746F0000722E00006C6500006674000036
:102C70002E7300007065000065640000006D0000A8
:102C80006F7400006F7200002E7200006967000010
:102C9000687400002E730000706500006564000019
:102CA000006D00006F7400006F7200002E6C000059
:102CB00065660000742E0000707700006D00000053
:102CC0006D6F0000746F0000722E000072690000CA
:102CD00067680000742E0000707700006D0000002F
:102CE0005F6900006E74000065670000726100009B
:102CF000746F000072000000616300006300000058
:102D00006C650000647300002E7400006F7000009A
:102D1000006C000065640000732E0000626F00000C
:102D2000747400006F6D00002E6C0000656600007A
:102D3000740000006C650000647300002E620000E7
:102D40006F740000746F00006D2E00007269000047
:102D500067680000740000006C6500006473000088
:102D60002E63000069720000636C000065000000C3
:102D7000746500006D7000006572000061740000F1
:102D8000757200006500000072630000352E0000BF
:102D9000616400006472000065730000730000004D
:102DA00072630000352E0000636F00006D6D00003F
:102DB000616E0000640000006D690000632E000079
:102DC000696E0000746500006E7300006974000095
:102DD000790000006D690000632E00007468000037
:102DE00072650000736800006F6C000064000000F2
:102DF0006D690000632E00005F6D000065610000DA
:102E00006E000000746900006D650000722E000005
:102E100070650000726900006F64000000610000CE
:102E2000636300002E5F000074610000700000000A
:102E3000736400002E70000072650000736500006E
:102E40006E74000000000000BA9400000100000051
:102E5000C494000001000000C8940000200000009D
:102E6000D594000002000000E09400000100000082
:102E7000EB94000005000000F69400000100000043
:102E80000395000001000000139500000100000000
:102E90001F950000010000002D95000001000000BA
:102EA0003C95000005000000499500000500000069
:102EB000579500000700000066950000070000001D
:102EC00076950000070000008D95000001000000CD
:102ED000A795000001000000B4950000020000006A
:102EE000C195000002000000D5950000020000001E
:102EF000EB95000001000000FD95000001000000BE
:102F00000F96000002000000229600000200000060
:102F100028960000010000002E960000010000002D
:102F20003F960000010000005196000001000000E3
:102F30006096000002000000709600000300000090
:102F40007C96000003000000809600000300000053
:102F500089960000030000009A9600000800000017
:102F6000AC96000001000000B896000001000000CF
:102F7000C496000001000000D0960000010000008F
:102F8000DC96000001000000EA960000010000004D
:102F9000F896000002000000029700000100000007
:102FA0000F970000010000001897000000000000CB
:102FB00000000000DE000000AD000000CA000000BC
:102FC000FE000000BE000000EF0000000400000052
:102FD0000200000036AE000070AE00003EAE000001
:102FE000DEB00000B2640000E4640000146500007C
:102FF000566500009E650000E66500002C66000036
:10300000A4660000F06600003C6700009C670000BA
:103010000A68000088680000D8680000F4680000B2
:103020007C690000D4690000106A00004C6A00004E
:10303000B26A0000EA6B00001C6C0000406C0000EB
:103040008E6C00000C6D00005A6D0000A46D000035
:10305000D26D0000046E0000466E0000DC9C000093
:103060004A9D0000109D0000849D0000049E000009
:10307000429E0000EC9E0000609F0000269F000022
:1030800034A100009A9F0000F89F000090A000006B
:10309000C6A00000E2A00000FEA0000064A10000A5
:1030A0009AA10000B6A100001EA200004EA20000DE
:1030B0007EA20000AAA20000C0A20000BE9D0000E7
:1030C00042B5000042610000636B000077610000C0
:1030D000726400002062000075740000746F0000CC
:1030E0006E200000737400006174000075730000AE
:1030F00020630000686100006E67000065640000E6
:10310000004C00006566000074200000627500003D
:10311000747400006F6E0000207300007461000082
:10312000747500007320000063680000616E000089
:103130006765000064000000436500006E740000D5
:10314000657200002062000075740000746F00005A
:103150006E2000007374000061740000757300003D
:1031600020630000686100006E6700006564000075
:10317000004600006F72000077610000726400007A
:103180002062000075740000746F00006E20000063
:103190007374000061740000757300002063000008
:1031A000686100006E670000656400000052000066
:1031B00069670000687400002062000075740000F8
:1031C000746F00006E2000007374000061740000D2
:1031D0007573000020630000686100006E670000E6
:1031E000656400000062000075740000746F0000E8
:1031F0006E7300000042000075740000746F0000E0
:103200006E73000020760000616C000075650000A0
:103210007320000075700000646100007465000098
:1032200064000000707200006F7800000050000021
:10323000726F0000786900006D6900007479000009
:1032400020760000616C00007565000073200000AE
:103250007570000064610000746500006400000087
:10326000707200006F7800002E6300006F6D000028
:103270006D000000446100007461000020720000D5
:103280006563000065690000766500006420000049
:103290006F6E000020740000686500002070000060
:1032A000726F0000786900006D6900007479000099
:1032B000206300006F6D00006D7500006E690000F6
:1032C00063610000746900006F6E0000007400000C
:1032D0006170000000410000207400006170000077
:1032E0002069000073200000646500007465000020
:1032F0006374000065640000004100006363000027
:10330000656C0000657200006F6D00006574000060
:103310006572000020760000616C00007565000099
:103320007320000075700000646100007465000087
:10333000640000006D690000630000004669000041
:10334000726500006420000077680000656E000070
:10335000206D000069630000726F0000706800005B
:103360006F6E000065200000696E0000746500004B
:103370006E7300006974000079200000697300001A
:1033800020610000626F000076650000207400007C
:103390006872000065730000686F00006C640000D4
:1033A000007300006F7500006E6400002E66000060
:1033B000696E000069730000686500006400000029
:1033C0004669000072650000642000007768000014
:1033D000656E000020740000686500002070000029
:1033E0006C61000079620000616300006B200000E6
:1033F0006F6600002061000020750000736500000A
:1034000072200000696E00006974000069610000AC
:103410007465000064200000736F0000756E00008A
:10342000642000006973000020660000696E0000DF
:1034300069730000686500006400000054650000C6
:103440006D7000006572000061740000757200000C
:1034500065200000766100006C75000065200000AA
:103460007570000064610000746500006400000075
:103470007263000035000000524300003520000058
:103480006D65000073730000616700006520000037
:1034900072650000636500006976000065640000E5
:1034A000006D00006F7400006F720000004D00009E
:1034B0006F7400006F72000020740000696D0000DE
:1034C0006572000000740000696D00006572000004
:1034D00030000000546900006D650000722000009B
:1034E00030000000746900006D650000723100005A
:1034F00000540000696D000065720000203100007A
:103500000000000003950000629800001395000081
:10351000819800001F9500009C9800002D950000E8
:10352000B99800003C950000D7980000F39800007F
:10353000FB980000129900001799000030990000D4
:103540003A990000679900006B9900007C96000092
:103550007D9900009A9900009E990000D199000081
:10356000E0990000B89600001E9A0000389A00000A
:103570003C9A0000519A0000579A0000639A00009C
:103580006A9A0000729A0000799A00000000000018
:10359000000000005F730000797300007465000094
:1035A0006D2E000072650000626F00006F740000F5
:1035B00000520000656200006F6F00007420000080
:1035C00074680000652000006D69000063720000EF
:1035D0006F6300006F6E0000747200006F6C00007B
:1035E0006C650000720000005F73000079730000DA
:1035F000746500006D2E0000736500007474000097
:10360000696E0000677300002E72000065610000A3
:103610006400000052650000616400002061000049
:103620002073000065740000746900006E6700007C
:1036300000610000646400007265000073730000A4
:1036400000760000616C000075650000005F0000FE
:103650007379000073740000656D00002E73000024
:1036600065740000746900006E670000732E00002E
:103670007772000069740000650000005772000056
:10368000697400006520000061200000736500007F
:1036900074740000696E0000670000005F73000032
:1036A00079730000746500006D2E000073650000E2
:1036B00074740000696E0000677300002E660000DD
:1036C0006C61000073680000005700007269000020
:1036D000746500002074000068650000207300001D
:1036E00065740000746900006E67000073200000BC
:1036F000696E0000746F0000206600006C610000BD
:10370000736800000000000045720000726F000046
:10371000723A000020730000616D0000706C0000C0
:1037200065730000206D00007573000074200000B8
:1037300062650000206900006E2000005B2D000023
:1037400031320000382C000031320000375D0000BB
:1037500020720000616E000067650000005F0000DD
:103760006C650000647300002E7300006574000037
:1037700000530000657400002074000068650000BC
:10378000206C000065640000006C000065640000AF
:10379000006200007269000067680000746E00003B
:1037A0006573000073000000736F0000756E000009
:1037B000642E000072650000636F000072640000F8
:1037C0000053000074610000727400002072000059
:1037D000656300006F720000646900006E6700009E
:1037E000206F000066200000724E00002E7700005F
:1037F00061760000004E0000007300006F7500004D
:103800006E6400002E7000006C6100007900000002
:10381000537400006172000074200000706C00009E
:103820006179000062610000636B0000206F00009E
:1038300066200000704E00002E77000061760000C8
:10384000007300006F7500006E6400002E720000AF
:10385000657000006C610000790000005374000086
:103860006172000074200000706C0000617900003B
:1038700062610000636B0000206F000066200000A2
:10388000724E00002E770000617600000073000089
:103890006F7500006E6400002E64000075720000F9
:1038A00061740000696F00006E000000476900004D
:1038B00076650000206400007572000061740000ED
:1038C000696F00006E200000696E0000203100006A
:1038D0002F31000030730000206F000066200000D0
:1038E000724E00002E770000617600000064000038
:1038F0007572000061740000696F00006E000000C6
:10390000736F0000756E0000642E00007379000074
:1039100073740000656D00000053000074610000C6
:1039200072740000207000006C6100007962000079
:10393000616300006B2000006F66000020730000D0
:1039400079730000746500006D200000736F000043
:10395000756E0000642000004E0000006C650000E1
:10396000647300002E63000069720000636C000045
:1039700065000000536500007420000063690000CA
:1039800072630000756C000061720000207200001C
:10399000696E0000672000006C6500006473000021
:1039A000006C0000300000006C310000006C000072
:1039B000320000006C330000006C00003400000096
:1039C0006C350000006C0000360000006C37000011
:1039D000006C000065640000732E0000746F00002E
:1039E0007000000053650000742000005247000082
:1039F00042200000746F0000702000006C65000021
:103A0000640000007265000064000000677200003E
:103A1000656500006E000000626C000075650000C6
:103A2000006C000065640000732E0000626F0000EF
:103A3000747400006F6D00002E7200006967000052
:103A400068740000005300006574000020520000FC
:103A500047420000206200006F7400006F6D00009C
:103A6000207200006967000068740000206C00008C
:103A700065640000006C000065640000732E0000A7
:103A8000626F0000747400006F6D00002E6C000007
:103A9000656600007400000053650000742000009B
:103AA0005247000042200000626F0000746F000067
:103AB0006D2000006C65000066740000206C000042
:103AC00065640000006C000065640000732E000057
:103AD00062750000747400006F6E000073000000D7
:103AE00053650000742000006275000074740000CB
:103AF0006F6E0000732000006C65000064730000AE
:103B0000006C000065640000732E000070720000FD
:103B10006F7800002E6800000053000065740000FC
:103B2000206800006F720000697A00006F6E00006C
:103B3000746100006C200000707200006F7800005B
:103B4000696D000069740000792000006C65000058
:103B500064730000006C000065640000732E0000B8
:103B6000707200006F7800002E7600000053000095
:103B70006574000020760000657200007469000022
:103B8000636100006C200000707200006F7800001C
:103B9000696D000069740000792000006C65000008
:103BA00064730000006C000065640000732E000068
:103BB0007263000000530000657400002072000072
:103BC000632000006C650000640000006C6500006C
:103BD000647300002E7300006F7500006E640000B7
:103BE0000053000065740000207300006F75000032
:103BF0006E640000206C000065640000006C000032
:103C000065640000732E0000746500006D70000094
:103C100065720000617400007572000065000000AC
:103C200053650000742000006E74000063200000E3
:103C30006C65000064000000736F0000756E00008A
:103C4000642E0000667200006571000000500000E4
:103C50006C61000079200000667200006571000050
:103C6000756500006E63000079000000487A00006E
:103C7000003100002F360000307300000073000098
:103C80006F7500006E6400002E7700006176000002
:103C90006500000053650000742000007468000097
:103CA0006520000070720000696D00006172000004
:103CB000792000007761000076650000206F000029
:103CC000662000007468000065200000746F00002A
:103CD0006E65000020670000656E000065720000E0
:103CE000617400006F7200000077000061760000D0
:103CF00065000000707200006F7800002E63000005
:103D00006F6D00006D2E0000656E000061620000A6
:103D10006C650000004500006E610000626C0000F0
:103D2000652000006F7200002064000069730000CD
:103D3000616200006C65000020740000686500008E
:103D400020700000726F0000786900006D6900004B
:103D500074790000206300006F6D00006D75000035
:103D60006E69000063610000746900006F6E0000FE
:103D700000730000746100007465000000730000AF
:103D8000642E00006F700000656E0000004F0000A0
:103D9000706500006E200000612000006669000070
:103DA0006C650000206F00006E2000007468000049
:103DB0006520000053440000206300006172000091
:103DC000640000006E7500006D6200006572000006
:103DD000007300007461000074750000730000003F
:103DE000736400002E7700007269000074650000A3
:103DF0000057000072690000746500002064000034
:103E00006174000061200000746F000020740000E5
:103E100068650000206F0000706500006E6500009E
:103E200064200000666900006C650000006400000A
:103E30006174000061000000777200006974000086
:103E4000746500006E000000736400002E720000B4
:103E500065610000640000005265000061640000BC
:103E600020640000617400006120000066720000A0
:103E70006F6D00002074000068650000206F000076
:103E8000706500006E650000642000006669000037
:103E90006C650000007200006561000064000000B5
:103EA000736400002E730000656500006B00000065
:103EB00053650000656B0000207400006865000019
:103EC000206F0000706500006E6500006420000037
:103ED000666900006C650000007000006F730000F0
:103EE00069740000696F00006E0000005F720000DE
:103EF000662E00006E6F00006465000069640000BB
:103F00000053000065740000205700006972000033
:103F1000656C000065730000732000004E6F0000A8
:103F20006465000020490000440000006E6F00003E
:103F30006465000049440000005F000072660000F4
:103F40002E730000657400007570000000530000BF
:103F5000657400002057000069720000656C000065
:103F6000657300007320000043680000616E00006C
:103F70006E6500006C200000616E0000642000008F
:103F80004E650000747700006F7200006B00000047
:103F900063680000616E00006E6500006C00000048
:103FA0006E650000747700006F7200006B490000BE
:103FB00044000000733000002E770000617600009E
:103FC00000730000322E00007761000076000000D0
:103FD000733300002E77000061760000007300004C
:103FE000342E000077610000760000007335000079
:103FF0002E7700006176000000730000362E00006E
:104000007761000076000000733700002E77000013
:104010006176000000000000480D00000D00000067
:104020003011000007000000EC1300000700000042
:104030000019000007000000781E000007000000C3
:104040000000000000000000781E00000D000000CD
:104050000019000007000000EC130000070000003A
:104060003011000007000000480D000007000000AC
:1040700000000000000000004C04000007000000E9
:104080009808000007000000000000000000000089
:10409000E40C000007000000301100000D000000DB
:1040A000C819000007000000000000000000000028
:1040B0009C27000002000000AB220000010000006D
:1040C0009D1C000002000000FB1800000200000020
:1040D0002D32000001000000322D00000100000020
:1040E0004628000002000000E82600000100000051
:1040F000BF22000002000000FB18000002000000C8
:10410000FF32000001000000C62000000100000096
:10411000762F0000020000002C2E0000010000009D
:10412000CE2C000001000000FD390000020000005C
:104130000000000000000000C81900000500000099
:10414000BE0A0000040000000000000000000000A3
:1041500030110000070000007C150000070000007F
:104160000000000000000000301100000700000007
:104170007C15000007000000C819000007000000BF
:104180000000000000000000222A00002B2C00008C
:104190003A3B00003C3D00003E3F00005B5D0000FC
:1041A0007C7F0000008000009A900000418E00009B
:1041B000418F00008045000045450000494900004E
:1041C000498E00008F900000929200004F990000ED
:1041D0004F55000055590000999A00009B9C000023
:1041E0009D9E00009F410000494F000055A5000022
:1041F000A5A60000A7A80000A9AA0000ABAC00007B
:1042000021AE0000AFB00000B1B20000B3B40000B6
:10421000B5B60000B7B80000B9BA0000BBBC0000DA
:10422000BDBE0000BFC00000C1C20000C3C400008A
:10423000C5C60000C7C80000C9CA0000CBCC00003A
:10424000CDCE0000CFD00000D1D20000D3D40000EA
:10425000D5D60000D7D80000D9DA0000DBDC00009A
:10426000DDDE0000DFE00000E1E20000E3E400004A
:10427000E5E60000E7E80000E9EA0000EBEC0000FA
:10428000EDEE0000EFF00000F1F20000F3F40000AA
:10429000F5F60000F7F80000F9FA0000FBFC00005A
:1042A000FDFE0000FF0000002E2E00002F2E00005B
:1042B0002E2F00006173000065620000612D000078
:1042C0007461000072670000657400002D740000C6
:1042D000687900006D6900006F3200002F6D0000EA
:1042E0006F6C00006F6C0000652F000069320000E9
:1042F000632F000069320000635F000070720000ED
:10430000697600002E680000002E00002E2F0000AD
:104310002E2E00002F610000736500006261000016
:104320002D7400006172000067650000742D0000AC
:1043300074680000796D0000696F0000322F000082
:104340006D6F00006C6F00006C6500002F6900004D
:10435000326300002F6D000061730000746500007F
:10436000725F0000707200006F7400006F630000E5
:104370006F6C00002E630000000000002E2E000075
:104380002F2E00002E2F00006173000065620000D8
:10439000612D000074610000726700006574000008
:1043A0002D740000687900006D6900006F32000014
:1043B0002F6D00006F6C00006F6C0000652F000017
:1043C00069320000632F000069320000635F000063
:1043D00070720000697600002E680000002E000058
:1043E0002E2F00002E2E00002F61000073650000AC
:1043F000626100002D7400006172000067650000BA
:10440000742D000074680000796D0000696F000071
:10441000322F00006D6F00006C6F00006C650000B3
:104420002F690000326300002F6D000061730000EF
:1044300074650000722E0000630000002E2E000044
:104440002F2E00002E2F0000617300006562000017
:10445000612D000074610000726700006574000047
:104460002D740000687900006D6900006F32000053
:104470002F6D00006F6C00006F6C0000652F000056
:10448000746900006D650000722F000074690000FF
:104490006D650000722E0000630000000100000046
:1044A00000000000080000000000000040000000C4
:1044B0000000000000010000000000002E2E00009F
:1044C0002F2E00002E2F0000617300006562000097
:1044D000612D0000746100007267000065740000C7
:1044E0002D740000687900006D6900006F320000D3
:1044F0002F6D00006F6C00006F6C0000652F0000D6
:1045000069320000632F000069320000635F000021
:1045100070720000697600002E6800000000000044
:104520002E2E00002F2E00002E2F000061730000A1
:1045300065620000612D0000746100007267000078
:10454000657400002D740000687900006D6900003A
:104550006F3200002F6D00006F6C00006F6C000068
:10456000652F0000666C000061730000682F00007A
:10457000666C000061730000682E0000630000009C
:104580005249000046460000000000000000000004
:104590005741000056450000666D00007420000081
:1045A00010000000000000000100000001000000F9
:1045B000841E000000000000841E000000000000B7
:1045C0000100000008000000646100007461000048
:1045D000000000000000000041720000677500004C
:1045E0006D6500006E7400002061000072720000B2
:1045F0006179000020730000697A000065200000E6
:1046000069730000207400006F6F0000206C0000D0
:104610006172000067650000202800003E33000042
:1046200032290000000000002E2E00002F2E000076
:104630002E2F00006173000065620000612D0000F4
:104640007461000072670000657400002D74000042
:10465000687900006D6900006F3200002F6D000066
:104660006D61000037360000363000002E63000018
:10467000000000005F4C00004F4700004455000060
:104680004D5000002E23000040210000005F00007C
:1046900054450000535400004D4F0000442E0000CC
:1046A0002340000021000000564D0000434F000051
:1046B000444500002E410000424F00000000000071
:1046C0002E2E00002F2E00002E2F00006173000000
:1046D00065620000612D00007461000072670000D7
:1046E000657400002D740000687900006D69000099
:1046F0006F3200002F6C000069730000326400000C
:1047000065310000322E0000630000005F5400009D
:104710004553000054530000440000005F70000047
:104720006F770000657200006F6600006600000091
:10473000506F000077650000726F00006666000031
:10474000000000005F4200004C570000484C000091
:10475000564C00002E4400004154000000000000B0
:1047600010110000141200001300000001160000D8
:1047700017000000038000000F0F00000F00000072
:104780003400F800881F780008002000A801880085
:104790004F0478008D00A9009D00A9008AA0A80000
:1047A0003400F900004006003600F800809FBE008B
:1047B000829FBE00849FBE00869FBE003400F8002A
:1047C00000002000A00188008AA0A9009AA0A900EA
:1047D0000000EB0042B50200000000003400F900C8
:1047E0004F03BE004F02BE004F01BE004F00BE008F
:1047F0003600F900004006000040DA000000FE002C
:1048000000000000000000000000000000000000A8
:104810000000000000000000000000000000000098
:104820000000000000000000000000000000000088
:104830000000000000000000000000000000000078
:1078000002003700315878000201E9000200E00070
:10781000FCFF3A0000000600020037000158780023
:107820000201E9000200E000FCFF3A00000006004F
:10783000889FBE008A9FBE008C9FBE008E1F78006E
:10784000000478000206BE0058159000E81590006C
:107850008000EB00820F5500838F5D0038003200FE
:10786000484090000004E00024003200EE022000B6
:107870000807470014C0B3000A01BE008E0078005C
:1078800018409000C0AB0200000000001100200072
:107890000000E0002A003A00404498005809900097
:1078A000E8099000780890008810900002004000DD
:1078B00083804800800F5500818F5D000F003100EC
:1078C000B84490000B00370058089000E80890007A
:1078D0000A0540008B85480014C0B3000A01BE00B1
:1078E0008E00780018409000C0AB0200000000003D
:1078F0008944E900E1CF5400F3FF3E008000EB0033
:10790000E00F5600E08F5E000D003200E102200023
:107910008880400014C0B3000C01BE0018409000E5
:1079200050AB020000000000110020000000E00049
:1079300003003A005C1498006D1498008000EB007E
:10794000010078004F0778004F06BE004F05BE00CB
:107950004F04BE0000000600881F78000004780075
:10796000E10220008880400014C0B300184090005D
:1079700050AB0200000000008000780030C0B3006F
:107980000100E00045003A00D0222000080040003D
:107990001081FB004811DD00C022200008004000DB
:1079A0001080FB000201700020C0B30051A52A0026
:1079B000810F510039003A0078E29000C822DD00C2
:1079C0000400200068E090008080FB0000002000A0
:1079D000000272008182720048E090000080FB008B
:1079E0008000EB00000272008182720058E090007B
:1079F0004800DD008000EB0000027200818272000E
:107A00000580FB0080007800040078000001BE00C3
:107A100064142400450520000040EB00840F510051
:107A2000858F59001D00320038439100C833DD00B6
:107A300006002000284091008080FB00000020000C
:107A40000003730081837300084091000080FB00F5
:107A50008000EB00000373008183730018409100E5
:107A60004800DD008000EB00000373008183730099
:107A70000781FB0082017800060178000200BE0049
:107A800004006800858068000080700000F0A70096
:107A90000000EA000000EA004F00DE004F0478001A
:107AA00000000600920020000000E0000C00320000
:107AB0001004E0000A003200B0019000818F5100F4
:107AC00007003A001040900044AB020000000000A4
:107AD0000001EB000008A30001003200320020008A
:107AE0000200780000000600889FBE008A1F780010
:107AF000000478006011B800080078004CFF07000F
:107B0000800478000900E00060003A0030C0B30053
:107B1000984F100054003A00584090000004E000D4
:107B2000510032006000B8005014980061149800B1
:107B3000EA02200008054500022020008000EB003A
:107B40000A00780034FF0700C0222000080040002F
:107B500051C5B30001487800D02220000800400041
:107B6000A1CAB3000148780020C5B300606C98003A
:107B7000706C98006F4040000074980011C4B3000E
:107B800011749800232120008881410022C7B3008E
:107B900082497800332120008881410082497800A1
:107BA00042212000080141000149780051212000B4
:107BB0008880400080487800780090008808900015
:107BC0006221200008014100004978007221200054
:107BD00008014100C801DE0003497800822120002D
:107BE00008014100400ADE00050020000449780039
:107BF00092212000080141004808DE000049780079
:107C000058009000E8009000A221200008014100E7
:107C100000497800B221200008014100C801DE00BF
:107C200003497800C221200008014100400ADE001B
:107C30000500200004497800D221200008014100FD
:107C40004808DE000049780014C0B300180990000D
:107C5000A80990008A00780018409000C0AB02008C
:107C600000000000594498000001EB008040EB0048
:107C7000184090005AAC02000000000000F0A7007D
:107C80000000EA008004EA00CF4CDE000900780022
:107C90004F0578004F04BE0000000600F88747003B
:107CA000889FBE008A9FBE008C9FBE008E1F7800FA
:107CB00002447800100178009201FB000303B10038
:107CC000E98F510008003E0092429000A4C3B30027
:107CD00084CF520004003A000288E800B40020007B
:107CE0000300E000DA013A00FE4980008E087800C7
:107CF000C40020000E00E000D50132001E04E000A8
:107D00000D0032001E40900044AB02000000000055
:107D10000080FB000008A30007003A000002EB000F
:107D20000804E000CA0132000028A300C8013200A4
:107D3000A4002000C6013700004FEB000040EB001C
:107D40001047980040AA0200000000000080FB00DD
:107D5000340020000008A300BD013A000804E00040
:107D600003003200A40020000028A300B8013A005C
:107D70006011B8000E007800F7FE07006011B8002F
:107D8000C2B79F00D3B79F00E14F50001B003A00DD
:107D90000EF09300D40020000004E000AC0132009B
:107DA0007EF19300C811DD00020020006EF0930008
:107DB0008080FB00000020000001710081817100C3
:107DC0004EF093000080FB008000EB00000171008A
:107DD000818171005EF093004800DD008000EB00BF
:107DE0000002710081827100C4B79F00D5B79F0067
:107DF0000401BE000E007800D7FE0700140020002A
:107E0000E34F500092013200D40020000004E00053
:107E10008F013A00AE789000C808DD001E7890000F
:107E20000080FB008100700000202000808F500047
:107E300087013A005EC490004844DD004EC09000C7
:107E40000080FB00080470008004EB00E00F540089
:107E5000E08F5C0012003A005ED49000C844DD0060
:107E6000080020004ED090008080FB000000200021
:107E700000047400818474002ED090000080FB0008
:107E80008000EB0000047400818474003ED09000F8
:107E90004800DD008000EB00000474008184740061
:107EA000580F9800690F9800EE78900031479800BD
:107EB0000140E900D4002000E14F500064013E0081
:107EC000BE7B9000274798000704E0006001320065
:107ED0000780FB000001E900000061005C013A003E
:107EE0000EC390004833DD007E7890000080FB00D8
:107EF00006037000460798006F00630054013A00C3
:107F00002EC190004811DD001EC090000080FB00D3
:107F1000020070006105B800AAB79F00BBB79F00C0
:107F2000E00F5500E08F5D0014003A001ED0900075
:107F3000C802DD00040020000ED190008281FB0009
:107F40000200200002027200838272006EC990005B
:107F50000281FB008001EB0002027200838272004A
:107F60007EC990004811DD008001EB00020672001E
:107F700083867200ACB79F00BDB79F00DE7D900086
:107F8000C85DDD004E7890000080FB008B0570001E
:107F9000D40020002E0132000181FB008001EB00A3
:107FA0000800BE00F4B79F0086BF9F00E7B79F00A0
:107FB00086040200000000000006BE006158B80000
:107FC000E0AF9F00F1AF9F000FBB97004430DE0091
:107FD0006FA99700FFA9970002004000E0804900C8
:107FE0000005460081854E008AB79F009BB79F0021
:107FF0007FB29700EFB397002FB09700BFB0970004
:108000008A0F50008B8F5800110139000A00500070
:108010008B8058000781FB008001EB009204020076
:10802000000000007FB297000FBB9700E00F5000E8
:10803000E08F58000601320015C0B30053FF200046
:10804000830F5000E08F58000500360035C0B300A4
:10805000EB0F4000E08F580001003E0025C0B30048
:1080600062054000E08548003A0F98004B0F9800E9
:108070000FB097009FB097004FB19700DFB1970006
:108080000000410081804900301798004117980096
:108090006FA89700FFA89700020040008380480067
:1080A000A0B79F00B1B79F00700F9800011798000C
:1080B000E3CF52001C003A00D40020000600E0008C
:1080C000E3003A005ED99000C811DD0002002000F4
:1080D0004ED890008080FB0000002000000071005E
:1080E000818071002ED990000281FB008001EB009D
:1080F00002007000838070003ED990004811DD00BE
:108100008001EB000200700083807000101798005F
:10811000211798004258DD00CE50DE00810070002B
:108120004250DD001A003700D40020000600E000B5
:10813000C70032002FB19700BFB197000C0041007B
:108140008D8049001017980021179800E2CF520047
:1081500003003A000A0045008B804D000C003700F8
:1081600032002000030020000A00BE00E5B79F0097
:1081700086040200000000008100D1000080D300CE
:108180006105650000004500E0804800EFB29700FF
:10819000F01FB0000180B000C709DD004900DE001B
:1081A00000807100C908DE00D4002000800F540058
:1081B000818F5C00A60039000080EB008080EB001E
:1081C00070079800010F98006055B8005A07980092
:1081D0006B079800E3CF520093003A000040EB0099
:1081E000504798007ED990004811DD006ED890006D
:1081F0000080FB00020170004FB69700DFB69700C9
:108200000C014100E0814E00120F9800230F9800EE
:10821000E10220008E80400014C0B3001E40900098
:10822000E5B79F0050AB020000000000EFB29700DE
:108230000000E0007C003A00D02220000E00400048
:108240009080FB00C808DD00C02220000E00400026
:108250001080FB008100700050A52A00808F500024
:1082600071003A001E719000C811DD00020020006C
:108270000E7090008080FB00000020000001710063
:10828000818171006E6890000080FB008000EB002F
:1082900000017100818171007E6890004800DD005E
:1082A0008000EB0000017100818171002025250014
:1082B00011162400800F5100818F59005A003A0096
:1082C000502120000E0040001081FB008001EB00D7
:1082D000C811DD0002002000402120000E004000F7
:1082E0001080FB008000EB00C000DD0000002000DB
:1082F0000001710081817100202120000E004000EA
:108300001080FB008000EB00000171008181710092
:10831000302120000E0040001080FB004800DD00EE
:108320008000EB000001710081817100202727008F
:1083300011142600800F5100818F59003A003A0035
:10834000D02120000E0040001081FB008001EB00D6
:10835000C811DD0002002000C02120000E004000F6
:108360001080FB008000EB00C000DD00000020005A
:108370000000710081807100A22120000E014100E7
:108380001281FB008001EB0002007000838070000E
:10839000B22120000E0141001281FB004811DD00D6
:1083A0008001EB000200700083807000500798008D
:1083B00061079800902120000E0040001081FB0012
:1083C0008001EB00C811DD000200200080212000A8
:1083D0000E0040001080FB008000EB00C000DD00BC
:1083E00000002000000071008180710062212000E7
:1083F0000E0141001281FB008001EB0002007000C1
:1084000083807000722120000E0141001281FB0068
:108410004811DD008001EB000200700083807000D5
:1084200070079800010F9800054F78004009EC0094
:10843000004A8800300798006000B8005017980084
:10844000611798000040EB00404798000002EB00E5
:10845000040078004F0778004F06BE004F05BE00AD
:108460004F04BE008F01B10000000600000178003B
:10847000EB014100830F5100050032003282FB0006
:108480003180FB0000005200FAFF320000000600BD
:108490000000050080017800310C2A00514178006D
:1084A0000200FB000204E00002003200830F5000D3
:1084B000FAFF3A0000000600E6874700889FBE00EA
:1084C0008A9FBE008C9FBE008E1F78000105780039
:1084D0009A007800810478008900780031417800A2
:1084E000F3C2B300834F5100FAFF3200C3C5B3009B
:1084F000834F5100F7FF320010047800B2002000D3
:108500000102200008007800C3FC07000901780080
:108510008006EB008000EB008E0020000046EB00A0
:1085200032407800804578008100E80003C2B30043
:10853000834F500034003600EFC14100834F50009C
:1085400031003200C3C5B300834F50002E0032000B
:10855000E3C2B300834F5000020032008E8F5600FA
:108560000A003900E80F570045003A00E3C2B300A3
:10857000834F500042003A00200020000066DD00DA
:108580008E067800BE002000E5FF37000004E00002
:1085900005003D003C40B3008085FB000B08B100A6
:1085A000300D2A00E0C57D000B80FB00F1B79F0075
:1085B00082BF9F00B7FF0700FFB097000FB9970079
:1085C0000000E0002E003A00F0CBB30000C04500F0
:1085D000F94F500002003E000C14A00007003700C5
:1085E000F0C9B30000C04500F94F500003003E0041
:1085F0000C04A00000CEB30080C545000BF47E0043
:108600008D06E800C6FF3700018D44008040EB0076
:1086100002C2B300824F500001003E0041C0B300CF
:10862000600020000D00E0001600320050CEB300C4
:10863000984F100002003A0050C0B300004C780080
:10864000E80F570002003A00200020000066DD001D
:108650000C86FB0063006600E10F500001003A0049
:108660000144A0006C066600E40F560001003A00C9
:108670000134A000314C98000000EB0001003700ED
:10868000600020004F0778004F06BE004F05BE0077
:108690004F04BE006F00B10000000600881F780084
:1086A0000004780062005100E0805900380A900010
:1086B000C80A900062025200E0825A006011B800BD
:1086C000840F5000858F5800090031002841900028
:1086D0000281FB008001EB00860402000000000024
:1086E00038119000C81190000001410081814900BB
:1086F0000200BE004F04780000000600889FBE0004
:108700008A9FBE008C9FBE008E1F780000047800F8
:108710000206BE001A0020000B002000E10F5100ED
:10872000E08F59007A00360038089000C8089000A1
:10873000800F5100818F590075003100184078007A
:10874000E24F50002F003200E34F5000450032004E
:108750000085EB008085EB00E14F50006C003A0093
:108760008204D100828444004949DE0078089000E8
:108770008810900000014100E08148000800780066
:108780002BFC07000085EB008085EB000000E0007B
:108790005F003A0009007800F01FB200E002B0006C
:1087A000684778008904E8004949DE0078089000AD
:1087B0008810900000014100E08148000800780026
:1087C0001BFC07000000E00051003A000E87FB0090
:1087D000F91FB200E902B00068C57C004855DD0011
:1087E0000A0577000C08A300020032004455DE00A1
:1087F00002003700FEFF20000E0565008005EB003B
:10880000430037004818DD004811DE000201700007
:10881000C819DE007808900088109000020140001E
:10882000838148000800780001FC07000085EB0008
:108830008085EB000000E00035003A000C064600A1
:10884000FC1FB200EC02B00068457E000A85FB0008
:108850000C0644001C4090004800DD000A05700032
:10886000E6FF37004918DD004711DE000201700005
:10887000C719DE00780890008810900002014000BF
:108880008381480008007800E9FB07000085EB00C1
:108890008085EB000000E0001D003A004266DD002C
:1088A000FC1FB200EC02B0000C004400204190001C
:1088B0000281FB008001EB00C012DD0004002000FB
:1088C00030419000C811DD0002002000020172005A
:1088D00083817200104090004800DD008000EB00B2
:1088E000000171008181710068407E000080FB0002
:1088F0008000EB000001710081817100F0FF200019
:108900000300600080007800020078000005BE00CF
:108910000A00BE004F0778004F06BE004F05BE009C
:108920004F04BE0000000600881F78000004780095
:108930000000EB002004980038019000C80190006E
:1089400020002000E10F5100E08F59003E0032006E
:1089500098007800310A9000C10A9000840F5100FD
:10896000858F590038003100E00F5100E08F590029
:1089700014003A0030C0B300914F100005003A00D7
:1089800011119000A1119000E00F5100E08F5900EB
:108990000C003A006011B80052049800630498007B
:1089A00041019000200020000200E000260032007B
:1089B00011119000A111900072049800030C98000E
:1089C00019003700214090000004E00010003A0038
:1089D0001800780049FF07000001BE00E10F4000C9
:1089E000E08F480015003200E10F5000E08F580082
:1089F0001400360018007800C0089000300890007D
:108A0000800F5100818F5900F1FF39000D003700B0
:108A10005204980063049800010078001FFF0700CB
:108A200070049800010C9800E302200018804100B7
:108A3000100C98000000EB0003003700100020002D
:108A400001003700200020004F04780000000600DD
:108A50000800FA00889FBE008A9FBE008C9FBE005F
:108A6000000478000205BE000406BE0020002000BD
:108A7000E10F5100E08F5900A50036003809900041
:108A8000C8099000820F5500838F5D00A00031005F
:108A900098407800E2CF500040003200E3CF500011
